:020000040800F2
:1000000080110020ED0B000883320008D90B000896
:10001000D90B0008D90B0008D90B0008000000001C
:10002000000000000000000000000000210C00089B
:10003000D90B000800000000DD0D0008A51F000816
:10004000550E0008550E0008550E0008550E000804
:10005000550E0008550E0008550E0008550E0008F4
:10006000550E0008550E0008550E0008550E0008E4
:10007000550E0008550E0008550E0008550E0008D4
:10008000550E0008550E0008550E0008550E0008C4
:10009000550E0008550E0008550E0008550E0008B4
:1000A000550E0008550E0008550E0008550E0008A4
:1000B000550E0008550E0008550E0008550E000894
:1000C000550E0008550E0008550E0008550E000884
:1000D000550E0008550E0008550E0008550E000874
:1000E000550E0008550E0008550E0008550E000864
:1000F000550E0008550E0008550E0008550E000854
:10010000550E0008550E0008550E0008550E000843
:10011000550E0008550E0008550E0008550E000833
:10012000550E0008550E0008550E0008550E000823
:10013000550E0008550E0008550E0008550E000813
:10014000550E0008550E0008550E0008550E000803
:10015000550E0008550E0008550E0008550E0008F3
:10016000550E0008550E0008550E0008550E0008E3
:10017000550E0008550E0008550E0008550E0008D3
:10018000550E0008550E0008550E0008550E0008C3
:10019000550E0008550E0008550E0008550E0008B3
:1001A000550E0008550E0008550E0008550E0008A3
:1001B00053B94AB9002908BF00281CBF4FF0FF31CE
:1001C0004FF0FF3000F00CB8ADF1080C6DE904CE33
:1001D00000F008F8DDF804E0DDE9022304B0704720
:1001E000704700BF2DE9F0478C468E46089E1546A5
:1001F00004461946002B40F0D080724547D9B2FA28
:1002000082F74FB1C7F120030EFA07FC20FA03F37F
:10021000BD4043EA0C0CBC404FEA154EA8B2BCFBF3
:10022000FEF8230C0EFB18CC08FB00F943EA0C4344
:10023000994528D9EB1808F1FF3204D2994502D923
:10024000A8F102022B44A3EB0903A4B2B3FBFEFC0A
:100250000EFB1C330CFB00F044EA0344A04214D90B
:100260002C190CF1FF3304D2A04202D9ACF10203E5
:100270002C44241A43EA02401EB1FC40002334609F
:100280007360BDE8F0874246DDE76346F1E7002A88
:1002900079D0B2FA82F3002B3FD01946C1F1200386
:1002A00002FA01F52EFA03F20EFA01FE20FA03F328
:1002B00043EA0E034FEA154E00FA01F4B2FBFEFCCE
:1002C000AFB20EFB1C201A0C0CFB07F842EA0042EE
:1002D00090455AD9AA180CF1FF3004D2904502D9A2
:1002E000ACF102002A44A2EB08029BB2B2FBFEFC76
:1002F0000EFB1C220CFB07F743EA02439F4246D940
:10030000EB180CF1FF3204D29F4202D9ACF1020289
:100310002B44DB1B42EA004202E0AEEB0203012267
:100320004FEA154EAFB2B3FBFEFC200C0EFB1C33A4
:100330000CFB07F840EA034398452AD9EB180CF167
:10034000FF3004D2984502D9ACF102002B44A3EB54
:100350000803A4B2B3FBFEFC0EFB1C330CFB07F737
:1003600044EA0344A74216D92C190CF1FF3304D2F6
:10037000A74202D9ACF102032C44E41B43EA00403B
:100380000F46114678E71F2188E76046ABE76246D3
:10039000BFE76046DBE76346EFE7734506D916B96A
:1003A000002108466DE7C6E9000EF9E7B3FA83F7C6
:1003B00087B9734501D3824207D8841A6EEB0303D1
:1003C00001209C461EB900215BE73846FAE7C6E9E2
:1003D000004CF8E7C7F1200CBB4022FA0CF51D4396
:1003E00020FA0CF12EFA0CF30EFA07FE41EA0E0188
:1003F0004FEA154900FA07F4B3FBF9F81FFA85FE36
:1004000009FB18300B0C08FB0EFA43EA00439A452F
:1004100002FA07F240D9EB1808F1FF3004D29A45EE
:1004200002D9A8F102002B44A3EB0A0389B2B3FB63
:10043000F9F809FB183308FB0EFE41EA03418E452B
:100440002CD9691808F1FF3304D28E4502D9A8F1DE
:100450000203294443EA0040A0FB0298A1EB0E01ED
:100460004145CE46434602D306D14C4504D2B9EBB2
:10047000020E68EB05030138002EA4D0B4EB0E0287
:1004800061EB030101FA0CFC22FA07F34CEA0303C7
:10049000F940C6E9003196E74046C5E74346D9E74B
:1004A0002DE9F04F87B00390274FBB68029304AA51
:1004B0005B6801213846984700283DDBDDE9044AA6
:1004C000224BDFF88C80A4FB03B503FB0A552946B9
:1004D0001BA3D3E900235846FFF76AFE4FF0FF390C
:1004E000D94578EB0505064626D3039B642BA8BFA8
:1004F000642344F6206223EAE373534303F5F423B1
:1005000003F59073A3FB045403FB0A4421460CA398
:10051000D3E900232846FFF74BFEA94578EB0404F6
:10052000034609D3864207D300220092029A012192
:10053000146838463246A04707B0BDE8F08F00BFC8
:1005400000CA9A3B00000000783F0008002D3101EE
:10055000FFC99A3B08B500F013F820B1064802F035
:10056000F5FD002008BD3220FFF79AFF0348322135
:1005700002F0ECFDF5E700BF4446000859460008CC
:1005800008B5044803F082FA00280CBF6FF012008F
:10059000002008BD783F0008014B1B68184700BFCA
:1005A00000000020014B1860704700BF00000020D1
:1005B00030B5044685B00D4610220021684603F090
:1005C00045FB02238DF802302A46044B0193214655
:1005D000684602F007FB05B030BD00BF9905000872
:1005E000034A536823F0020353600020704700BFA2
:1005F000002004E008B54168054883681B680C3199
:100600001BB1984700EAE07008BD6FF05700F9E7AA
:10061000D43D0008192810B502D90024204610BD89
:10062000044B53F82040204603F030FA0028F5D15F
:10063000F3E700BF74430008134B1A6842F40072DA
:1006400082B01A601A6842F480621A601A6842F432
:1006500080721A600D4B0E4A1A600E4A536843F0BE
:10066000010353600C4B9A6D42F080529A659B6D6A
:100670000A4A03F080530193019B936843F480433B
:10068000936002B0704700BF002002405C00002071
:100690000024F400002004E000100240007000403C
:1006A000014B036000207047DC43000880B505461D
:1006B0000E461746984602F051F8034600F0DCFB60
:1006C000DFF81890044649F8003042463046394673
:1006D000A84754F8090000F06BFB00BF08000000B9
:1006E00008B50348034A0021121A02F0C2FD08BDF2
:1006F000A0000020980300200748084A084908B5D0
:10070000121A02F0B8FD0748074A0849BDE8084038
:10071000121A02F0B0BD00BF000000209C000020B3
:10072000E04B00080000002000000020E04B000823
:1007300038B505460C4699B1D1E901230F4809683F
:1007400002F004FDD4E90423E1680D4802F0FEFC48
:10075000E1690C4802F0FAFCA1690B4802F0F6FCD2
:10076000012D05D1EFF305810848103902F0EEFCA8
:1007700021462846BDE8384001F082BDCF4600083A
:10078000FF4600082F4700083F4700086E47000853
:1007900030BFFFF7FDBF00BF2DE9F0410B4EDFF882
:1007A000308006EB0807CC1B054632460949204637
:1007B00003F03EFAA01942460021083C03F046FA35
:1007C0002C6707F10800BDE8F08100BF00000000C1
:1007D00004000000E04200082DE9F843324D804655
:1007E00032488946174602F0B1FCAB6ADE0622D5D4
:1007F0002F4802F0ABFC1124AB6A1D0703D52D482E
:1008000002F0A4FC1224284DAB6A980715D52A489B
:1008100002F09CFC6E6BAB6A190642D52748314644
:1008200002F094FCB9F1000F03D0AB6A23F080030F
:10083000AB62132403E01024DEE76FF015061A4DB7
:10084000AB6ADA0703D51E4802F080FC1424AB6AB9
:100850009B0603D51B4802F079FC1524124B9A6ABB
:10086000D50602D49A6A90070AD55B68190507D5A0
:100870004146304600F052FA10B180F30988022454
:10088000094B9A6A920642BF5A6A22F400525A628F
:100890009A6A42F0FF029A6200233B702046BDE84C
:1008A000F8836FF01506C4E700ED00E0824700080A
:1008B00099470008CD470008E1470008FA470008BB
:1008C000114800083148000810B51D4C1D4802F0C1
:1008D0003DFCA36A990130D51B4802F037FC1E206D
:1008E000A36ADA0103D5194802F030FC1F20144C2A
:1008F000A36A1B0303D5164802F028FC2120A36A33
:10090000590303D5134802F021FC22200C4CA36AA2
:100910009A0303D5104802F019FC2320A36ADB03D5
:1009200003D50E4802F012FC2420054A936A6FEAB0
:1009300003436FEA1343936210BD1D20D0E700BF4D
:1009400000ED00E0614800087A4800088E48000881
:10095000A9480008C8480008EE48000809490008EE
:1009600070B5244C064624480D4602F0EFFBA36AFE
:10097000D90435D5214802F0E9FB1720A36A1A05EE
:1009800003D51F4802F0E2FB18201A4CA36A9B050E
:100990000FD51C4802F0DAFBA16BA36A180407D537
:1009A000194802F0D3FB1EB1A36A23F40043A362EB
:1009B0001920104CA36A590503D5144802F0C6FB50
:1009C0001A20A36ADA050DD5114802F0BFFB1B20DF
:1009D000084A936A43F47F43936200232B7070BDEF
:1009E0001620CBE7A36A9B04F2D50A4802F0AEFBBF
:1009F0001C20EDE700ED00E0354900084C490008F7
:100A0000CD4700085E490008784900088E49000873
:100A1000AA490008314800082DE9F0415D4B5F68A4
:100A20008AB00446C7F30806002585F31188BFF392
:100A30006F8F02F07F43B3F17F4F06D102F00C03BA
:100A4000082B13D1544802F081FB00252C464FF0AF
:100A50000008F31E8DF80780092B00F28C80DFE878
:100A600003F00A80847C8A8A8A8A8A8810074CBFAD
:100A70000C460125EBE74948464E02F067FB8DF82E
:100A80000780F36A9A0704D5454802F05FFB00230C
:100A90002AE0F36A002B01DA4248F6E7F36A5B00CA
:100AA000F5D5414802F052FB7369A26943F48073A3
:100AB0007361BFF34F8FBFF36F8F32F8023C7269DF
:100AC00022F480727261BFF34F8FBFF36F8F03F414
:100AD0007F42B2F55F4F27D1DBB2022B24D12168D0
:100AE000324802F033FB23689DF80720CAB902AEF2
:100AF00004F1200720686168324603C20834BC4212
:100B00001646F7D1099A002D41D0C2F3080121B948
:100B10006FEA52226FEA4222099202A91846FFF7B1
:100B200007FE0AB0BDE8F0811A4B9A6AD2B232B120
:100B30000DF1070201212046FFF74EFE0FE09A6AF1
:100B400012F47F4F05D00DF107010120FFF708FFD8
:100B500005E09B6AB3F5803F99D3FFF7B5FE0346E6
:100B6000C2E70DF107020021E5E70DF107010020C2
:100B7000ECE70F4889E70F4B0F49104817F4F87F4F
:100B8000A6F1100208BF194602F0E0FA7FE76FF302
:100B90000802C1E700ED00E0F14900081D4A000825
:100BA000354A0008574A0008664A0008864A000885
:100BB000A34A0008C3490008D8490008C84A0008E9
:100BC000044B5A6942F010025A615A6922F0080235
:100BD0005A61704700ED00E0EFF30880EFF3098100
:100BE00001B57246FFF718FF01BD00BF0A4880F348
:100BF0000888102080F3118808484FF404614018D9
:100C000080F30988EFF314800221084380F31488ED
:100C1000BFF36F8F00F04AF880110020C00300205E
:100C20001EF0040F0CBFEFF30880EFF30980816919
:100C300011F8021C0229FFD001B5724602F01DFB1B
:100C400001BD00BF40B2002807DB044A410901236F
:100C500000F01F00834042F82130704700E100E0BF
:100C600040B20028A8BF00F1604001F10101B8BF07
:100C7000064B4FEA0111ACBF00F5614000F00F00D8
:100C8000C9B2B4BF195480F80013704714ED00E0E6
:100C9000044B054A23F07F039360BFF34F8FBFF3EC
:100CA0006F8F70470000000800ED00E008B5FFF707
:100CB000EFFF0B4AD2F8883023F47003C2F8883073
:100CC000EFF3148323F0040383F31488BFF36F8FCF
:100CD000FFF706FDFFF710FD00F0B0F801F098FBFC
:100CE00000ED00E042F8203C009B42F81C3C0A4921
:100CF000019B42F8183C029B42F8143C21F0010190
:100D00004FF0807342F8043C42F8081C0023203A5C
:100D100002654367704700BFAD060008094A0346F5
:100D2000906870B113F1160F006E05D0A0F140026B
:100D3000934205D3834203D2814228BF00207047EB
:100D4000002070476803002008B515460B4A0C4B7D
:100D50009060026F1A600E4600F0A0F82C4686F3F1
:100D600009880020034B98472046002100220023D9
:100D7000014C20479F320008AD06000868030020A0
:100D8000C0020020014B10221A61704700ED00E004
:100D9000054B5A699B689A421FBF044A536843F047
:100DA00080535360704700BF6803002000ED00E0EF
:100DB000084B9B6883420BD1EFF3058343B1064B8D
:100DC0005A6842F080525A605A6A22F400425A62CB
:100DD00001F0CABC6803002000ED00E014498A68F5
:100DE0004FF030001044EFF3098C80E8F01F102022
:100DF00080F31288BFF36F8F0E4F4FF000664A6981
:100E00008A603E60106F0C4C2060506F0023536767
:100E100080F3118804B5104600F040F8BDE80440A6
:100E200002F1300090E8F01F8CF309887047000051
:100E30006803002004ED00E0C00200200448002305
:100E40001021C21801335C2B82F80013F9D17047CE
:100E500000E100E008B5EFF30583064A103B02EB22
:100E6000C30152F8330049688847BDE80840FFF7DE
:100E70008FBF00BF943F0008014800687047000022
:100E8000C0020020024B034A0348012100F076B85B
:100E90000000022000000020DC430008036E054A29
:100EA000403B1360044B4021C2E90113104601216D
:100EB00000F06EB8C402002000000B15084AC2F80A
:100EC00098000B6823F01F03034343F01003C2F89C
:100ED0009C308B6843F00103C2F8A030704700BF1C
:100EE00000ED00E02DE9F043DFF8608085B00E46AC
:100EF0001F4604464FF00009B14523DA6068D8B1B7
:100F00003FB1411E08421BD11F2819D9236819423D
:100F100016D12368019302F0D6F9A3680343039323
:100F2000D8F89050C5F30725D0B2013DA84207D8A4
:100F300001A9FFF7C3FF421C09F101090C34DBE7EB
:100F40006FF01502104605B0BDE8F08300ED00E03B
:100F5000044B0522C3F89420BFF34F8FBFF36F8F6C
:100F6000704700BF00ED00E0BFF35F8F024B00222F
:100F7000C3F89420704700BF00ED00E010B5034CAB
:100F800001232278FFF7AEFF207010BD94030020EC
:100F900008B50B4A00231278FFF7A4FF10F1160FD3
:100FA00007D0084A0021D2F89030C3F307239842B3
:100FB00000DB08BDC2F89800C2F8A0100130F2E7CB
:100FC0009403002000ED00E02DE9F0435A4B5B4D07
:100FD000D3F890302C68C3F307239C4285B000F20D
:100FE000A780FFF7C1FF00200C2684421AD1544E7F
:100FF000DFF8449134706846FFF752FB514C524D74
:1010000080460027B84514D133784B490020D1F8E9
:101010009020C2F307229342C0F28480FFF798FF2A
:10102000002045E0696806FB0011FFF747FF01302B
:10103000DBE7009800EB07114FEA071CCB68234061
:10104000B3F5000F4DD00AD8B3F5001F33D0B3F578
:10105000800F3BD0B3F5801F13D00137D2E7B3F137
:10106000007F47D0B3F1805F4DD0B3F1807FF4D1E2
:1010700050F80C3088684A6802F025F940F0887012
:1010800009E050F80C3088684A6802F01CF940F01A
:10109000885040F43020CDE901230390D9F89030F6
:1010A0003078C3F30723013B984234D96FF0150021
:1010B00005B0BDE8F08350F80C3088684A6802F04B
:1010C00002F940F0885040F40020E4E750F80C307A
:1010D00088684A6802F0F7F840F0C06040F40030D9
:1010E000D9E750F80C3088684A6802F0ECF840F014
:1010F0008270D0E750F80C3088684A6802F0E3F854
:1011000040F48020C7E750F80C3088684A6802F045
:10111000DAF82843BFE701A9FFF7D0FE337801339F
:1011200033709AE7C1F89830C1F8A00001336EE738
:101130004FF0FF30BCE700BF00ED00E0E8430008DF
:10114000940300200000F0FF0000021108B5024BDC
:101150001B689847002008BDD0020020034B044ABA
:101160001860937843F0020393707047D002002018
:101170000400002008B50649064821F00701C1F126
:10118000005202F5003201F09EFF002008BD00BFB2
:10119000C7110020D402002007B5084A92E80300D6
:1011A000CDE9000106488268126822B1694690477D
:1011B00003B05DF804FB6FF05700F9E7E042000868
:1011C000D43D00083F280DD800F01F0201239340B2
:1011D000054A1F2894BF5269526B93430CBF0120EC
:1011E00000207047002070470004014000F01F02FB
:1011F00001233F2803FA02F307D81F28044A02D824
:101200005361002070475363FBE76FF01500704790
:1012100000040140044B1844002301338B4200F8C2
:10122000012BFADB704700BF6C0000202DE9F04174
:10123000104F054600264FF001086B78F4B2A34228
:1012400001D8BDE8F0812B781C442046FFF7BAFF97
:1012500068B12046FFF7CAFF57F834303BB107EBBF
:10126000C40204F01F04516808FA04F098470136DC
:10127000E3E700BFE0020020034660B1B0FA80F26D
:10128000C2F11F02D2B205498856054A11680B43C4
:101290001360FFF7D7BCFF22F5E700BF6C0000200A
:1012A00000040140024A136823EA000313607047F8
:1012B00000040140032921D8DFE801F0020C1019D5
:1012C0000F4B9A6822EA00029A60DA6822EA00026A
:1012D000DA6070470A4B9A680243F5E7084BDA6810
:1012E0000243DA609A6822EA00029A607047044B6F
:1012F0009A6802439A60DA681043D860704700BF6A
:101300000004014030B5B0B1B0FA80F3C3F11F035F
:10131000DBB20B4850F833408C4204D100EBC305DC
:101320006D68954205D044B940F8331000EBC30016
:101330004260002030BDFF23EBE76FF00F00F9E7BC
:10134000E002002060B1B0FA80F3C3F11F03DBB20A
:10135000044A002142F8331002EBC3025160704787
:10136000FF23F5E7E002002000F0030204329200C0
:101370000F23934043EA900000F003030233074A2F
:1013800052F82320030C02EA104293FAA3F008B1AA
:10139000B0FA80F022FA00F0704700BF0000014070
:1013A00038B50B88C3F30B030D2B0D46144617D825
:1013B00013B96FF0850012E0023B0B2B1BD8DFE85E
:1013C00003F03506353331351A1A1A1D28284FF423
:1013D000FA4020602B68B3F5805F29D2002038BD29
:1013E00003F6B873C3F30B03182BE2D8144A22FA9E
:1013F00003F3DB07DDD5134B1868EAE700F0D0F8FC
:101400000623B0FBF3F0552358430723B0FBF3F05A
:10141000DFE700F0C5F80623B0FBF3F0552358438F
:101420004008D6E70848D4E70848D2E70020D0E7CC
:10143000C3F313330133B0FBF3F02060CEE700BFFA
:10144000110111015C00002000366E01006CDC020D
:10145000F8B54F4F4F4C00F0C1F8384602F039F85C
:1014600000F06EFEA3684C4AC3F303131578D35CF7
:1014700005F01F0503F01F0320FA03F647FA05F5F0
:10148000AE4202D2284600F091FE236823F4802366
:101490002360236843F48033236023689903FCD5D9
:1014A000D4F8943043F00103C4F89430D4F8943065
:1014B0009A07FBD5D4F8983043F00103C4F898306C
:1014C000D4F898309B07FBD5A36803F00C030C2BD2
:1014D00018D12368580506D4236843F48073236029
:1014E00023685905FCD5A36823F0030343F00103E7
:1014F000A360A36803F00C03042BFAD1A36823F0C4
:10150000F003A360236823F08073236023689A01AB
:10151000FCD4E36823F4003343F06053E360E368F2
:1015200043F48033E360E36823F4C003E360E368DB
:1015300043F48013E36000F037F8236843F08073CE
:10154000236023689B01FCD5A36823F0F00343F0DC
:101550008003A360A36843F00303A360A36803F0C0
:101560000C030C2BFAD1A368AE4223F0F003A36066
:1015700002D3284600F01AFE084B1F60A36823F42C
:10158000E063A360A36823F46053A3600020F8BD68
:1015900080FE210A00100240CF4B00085C000020B2
:1015A0000048704700366E010A4AD2F8803023F4B2
:1015B0008073C2F8803002F5D032074BD1680B40FF
:1015C00043F4AA4343F05303D360D36843F08073DA
:1015D000D3607047007000400C80FFF9064B9A6D95
:1015E00042F0805282B09A659B6D03F08053019364
:1015F000019B02B0704700BF0010024008B50748C9
:1016000002F044FA38B10648FFF7A8FD0448FEF797
:10161000C9FF002008BD6FF01200FBE7EC3E000898
:10162000251600080A2838B5074D044604D1AB68D2
:101630000D215B6828469847AB6803485B68E1B2B8
:101640009847204638BD00BFEC3E00082DE9F8431E
:10165000D0F804900746D9F8080090460D461E467B
:1016600001F08FFEB8F5001F044616D12846D9F8C0
:101670000840FFF779FE84420CD1294601F081FE33
:101680000446FFF70FFE2046FFF75CFE00212046D0
:10169000FFF710FE0020BDE8F883B8F5800F20D0DA
:1016A000B6F1806F19D0B6F1C06F18D0B6F1007FD7
:1016B0001AD102260F493A462046FFF723FEB0B959
:1016C000D9F80810284601F061FE20463146FFF7A0
:1016D000F1FD2046FFF7D0FDDCE70126EAE703260F
:1016E000E8E76FF08500D6E76FF01500D3E76FF0FD
:1016F0000F00D0E73B3600082DE9F0410C4604F11D
:10170000FF3C19464368BDF818701E68BCF1050F10
:1017100015D8B6F1804F06D0A548864203D0B2F561
:10172000803F00F25F81A348042C50F82C5096BFF4
:10173000A148002450F82C40F80503D51CB96FF0DF
:10174000150006E02C4632B9336A23EA04033362FB
:101750000020BDE8F0819B68002B40F0998002F1E9
:10176000FF3807F00107B4F5807F4FEA470000F02B
:10177000B68000F2A180102C00F0B38000F29780B8
:10178000012C00F0B080042C14BF092201228B4FE1
:10179000336ABA5C022707FA02FE23EA0E0300FA54
:1017A00002F213433362864B304653F82C3098478D
:1017B000C6F82C80336A34EA0303C9D0B5F5807FBC
:1017C00000F0AF8000F29A80102D00F0AC8000F2A3
:1017D0009080012D00F0A980042D14BF092301235E
:1017E000784F794817F803C010F803E0774B06F1FB
:1017F000180103FA0EF351F80C2022EA03036022C9
:1018000002FA0EF21343B4F5807F41F80C3000F079
:10181000AA8000F29580102C00F0A78000F28B8047
:10182000012C00F0A480042C14BF09230123DFF84D
:10183000A0C172681CF803C04FF4807303FA0CF364
:1018400022EA03037360336A1C4334623368B5F5DC
:10185000807F43F08003336000F0A78000F2928025
:10186000102D00F0B78000F28880012D00F0B480C8
:10187000042D14BF09230123FA5CC05C8C58082393
:10188000834023438B50736943F0010373615FE727
:10189000102B01D1013962E723F04000202802D04B
:1018A000402B40F09F8049084FEA520859E7402CEE
:1018B00014BF092203226AE7B4F5804F15D008D877
:1018C000B4F5806F13D0B4F5805F14BF09220622EF
:1018D0005DE7B4F5803F14BF0922082257E70422D0
:1018E00055E7022253E7002251E707224FE705227E
:1018F0004DE7402D14BF0923032371E7B5F5804F51
:1019000015D008D8B5F5806F13D0B5F5805F14BF3A
:101910000923062364E7B5F5803F14BF0923082394
:101920005EE704235CE73B465AE7002358E70723BA
:1019300056E7052354E7402C14BF0923032376E719
:10194000B4F5804F15D008D8B4F5806F13D0B4F536
:10195000805F14BF0923062369E7B4F5803F14BFF5
:101960000923082363E7042361E702235FE70023D9
:101970005DE707235BE7052359E7402D14BF0923E3
:10198000032379E7B5F5804F28D008D8B5F5806FE7
:1019900026D0B5F5805F14BF092306236CE7B5F5A3
:1019A000803F14BF0923082366E7042364E700BFD0
:1019B000000C00405845000848450008B14B00089D
:1019C00030450008C54B0008BB4B00087300010000
:1019D000A74B000802234FE700234DE707234BE7FF
:1019E000052349E76FF08500B3E600BF2DE9F74313
:1019F000674F4668D7F80890D0F81080D9F80030C3
:101A0000346871692BB96FF05705284603B0BDE8FB
:101A1000F08338469847051EF7DBB369012B40F287
:101A2000B3807169D9F818300831002BEBD000224F
:101A30003846984705460028E7D17169D9F80C3037
:101A40000831002BDFD06A463846984700280FDB64
:101A5000009BC8F80030D8E901018368DB6803B156
:101A60009847F06901AA002101F0FDFD002801DA84
:101A70000546CAE7019B00221979186801F006FEA5
:101A80000028F5DB7368A3620023E362414B9C42AC
:101A900024D0B4F1804F21D0A3F594339C421DD0C3
:101AA00003F580639C4219D003F580639C4215D0F6
:101AB00003F594339C4211D003F5E0539C420DD0C2
:101AC000A3F580539C4210D1236823F44073236014
:101AD000304B9C4217D10023236332E02368B26865
:101AE00023F0700313432360EEE72B4B9C42EBD0B3
:101AF00003F580639C42E7D0284B9C4221D0284BC1
:101B00009C421ED00AE0274B9C42E4D0264B9C42CC
:101B1000E1D0214B9C420ED10023236333693BB9B2
:101B20001D4B9C4218D0214B9C4215D0F368EBB161
:101B30006FF0850569E71D4B9C42EDD01C4B9C4224
:101B4000C9D06368326923F0007323F07003134334
:101B50006360104B9C420ED1636CF26823F0FF036C
:101B600013436364636C43F400436364236843F08A
:101B70000103236049E70B4B9C42EDD003F5406322
:101B80009C42E9D00A4BCFE76FF015053DE700BF57
:101B9000D43D0008002C01400044014000100040EA
:101BA0000014004000340140004001400048014062
:101BB00000500140012912D0022907D089B90068DC
:101BC000094BC01A18BF0120000370470068064B7C
:101BD00098420CBF4FF400504FF440507047002023
:101BE00070474FF4005070470080004038B51D46E4
:101BF000094B33F812200023FEF7DAFA090241EA12
:101C000010616C08000220182A464FF0000341F1D1
:101C10000001FEF7CDFA38BD2C460008F7B50346A3
:101C200005680C4619B96FF0150003B0F0BD4068A7
:101C300019698368DB68002B43D001AA9847002804
:101C4000F3DB214B9D422ED1019F204E00252346E0
:101C5000AAB238460021FFF7C9FFA0F54070B04294
:101C600003D901350C2DF2D1DDE7174EF36A23F0CD
:101C70000F032B43F362164B33F81520002338462D
:101C80001946FEF795FA00230546194660084FF4F9
:101C900080772246E5FB0701FEF78AFAC0F31300BE
:101CA000F0600020C1E72B6823F400432B6001980B
:101CB00000EB5400B0FBF4F10F29B4D989B2E9600C
:101CC000EFE76FF05700B0E700800040FFFC0F0027
:101CD0002C4600082DE9F84306460A794068336926
:101CE00004681F68012A0D4617D0931ED3F100091E
:101CF00049EB03094FEA89296979FFF75BFF95F8FA
:101D00000680B8F1020F03460AD0B8F1040F01D0E3
:101D1000002A59D04FF4805005E04FF4C069EBE73A
:101D2000002A4ED00020A2F1030CBCF1010F04D810
:101D30006FF085031846BDE8F88312B1B8F1040FBF
:101D4000F6D0B3F5805F41D0B3F5405F40D0002BB3
:101D50000CBF012303239942EAD1494601F026FD35
:101D60008045E5D1EB79C3B1012B33D11B4B9C42AC
:101D700013D0A3F574439C420FD003F580639C42BB
:101D80000BD003F580639C4207D003F580639C422F
:101D900003D003F540539C42CAD1236823F00103CA
:101DA00023602946304601F0B7FD03460028BFD125
:101DB000226842F00102226095E8030087E80300F0
:101DC000B8E74FF08050BCE71046BAE70023C2E7FF
:101DD0000223C0E7032BC9D0AAE700BF00380140A7
:101DE000F7B5446806466068216983681B68002B64
:101DF00000F093809847002830DB606A01AA002138
:101E000001F031FC002829DB019B002219791868B8
:101E100001F03CFC002821DB756833692C681F68E1
:101E2000236823F001032360A86801F02FFE002837
:101E300076D0D5E902018368DB6803B1984754E89E
:101E4000003F43F00C0344E80032002AF7D1394642
:101E5000304601F061FD18B16FF0150003B0F0BD20
:101E60002B7E1BB1A36843F00803A3606B7E1BB1FC
:101E7000636843F400436360AB7E1BB1636843F463
:101E800080336360EB7E1BB1636843F400336360AF
:101E90002B7F83B3244B9C4213D0A3F574439C4205
:101EA0000FD003F580639C420BD003F580639C4206
:101EB00007D003F580639C4203D003F540539C4256
:101EC000CAD173681A68936843F4804393602368A7
:101ED0006A7F23F0787343EA425323602368AA7F22
:101EE00023F4F81343EA02432360EB7F1BB1A3689A
:101EF00043F40043A36095F820301BB1236843F0FE
:101F000000532360236843F001032360E3699A02CE
:101F1000FCD5E3695B02FCD5A0E76FF057009DE7B5
:101F20006FF012009AE700BF003801404FF0E02345
:101F30000D4A9969126818699B69002908BF114602
:101F4000002B08BF134610F4803F084801D1994286
:101F500005D20168114401604FF0E0210969006871
:101F60001044C01A704700BF6403002060030020C3
:101F7000094B102283F82320084B44F268221A6090
:101F8000074B002018604FF0E02344F267225A61AB
:101F9000072298611A61704700ED00E06403002099
:101FA00060030020684620F007018D4619B5FFF751
:101FB000BDFF144B1449D3E900420868001942F1EF
:101FC0000002C3E90002114A00230B60D2E900417C
:101FD00044F26823001BB0FBF3F043431B1941F1AB
:101FE0000001C2E90031EFF31181102383F312885D
:101FF000BFF36F8F00F094FDFEF7CAFEBDE81940F5
:1020000085467047A800002060030020A000002043
:102010002DE9F041364E89B1421C0AD14FF0E02241
:10202000136923F0010313614FF07F433360BDE870
:10203000F0813568012806DC00240AE0431C35687D
:10204000F8D140F2D93040F2DA339842A8BF1846AE
:10205000441EEFF31187102383F31288BFF36F8FB1
:10206000FFF764FF23494FF0E023D3F818C0D1E90C
:102070000023801843F10003C1E900031E4B002236
:102080001A601E4B1A68831A2DD444F2682E44F24B
:10209000672814FB0E841C44131AB4FBFEF440F2B0
:1020A00026420EFB0433934238BF1346144A934230
:1020B00028BF13464FF0E02233609469013B53611F
:1020C00000239361A445D1E90032ACEB04000DD2AA
:1020D0000544EB1842F10002C1E9003287F3118890
:1020E000BFF36F8FA3E740F22643E3E7C318F1E79E
:1020F00064030020A800002060030020A00000204E
:102100002882FF0038B5EFF31185102383F312887E
:10211000BFF36F8F084B1C68084B1B68E41AFFF76E
:1021200005FF85F31188BFF36F8F44F268232044C5
:10213000B0FBF3F038BD00BFA8000020A0000020D5
:10214000174B9A6802F00C02042A23D09A6802F016
:102150000C02082A20D09A6802F00C020C2A1DD129
:10216000D968DA68D868DB6801F00301C3F341631A
:102170000329C2F30312C0F3062003F101030CBFCD
:10218000084909495B000132B1FBF2F25043B0FB50
:10219000F3F07047044870470248704700207047CA
:1021A0000010024000366E010024F40010B52849EA
:1021B000284A441E8C421368D2F8802044D803F485
:1021C000C063B3F5007F2FD1D20522D403F10163A0
:1021D00003F5332398422FD81F4B98422ED81F4B1C
:1021E00098422FD81E4B984294BF002001201D4AD0
:1021F000136823F00F0303431360136803F00F0306
:10220000984223D0136803F00F03181A18BF012057
:1022100010BD154B98420FD8144B98420ED8144B52
:1022200098420FD8134BDEE7B3F5806F08D1124BFD
:10223000984207D8114BD6E70420D8E70320D6E709
:102240000020D4E70220D2E70120E1E70020DFE709
:102250007FFE210A007000408065140600990D047D
:1022600080CC060200200240000E2707804A5D0550
:102270000087930380C3C90100366E01001BB700BD
:1022800038B5EFF31185102383F31288BFF36F8FF6
:10229000064B9C6801F00DFC85F31188BFF36F8F2E
:1022A0002046BDE83840FEF783BD00BF680300202C
:1022B00038B50A4B53F82040013053F82050A5425E
:1022C00000D838BD606830B1037EDB0701D401F06F
:1022D000C5FB0834F3E723689847FAE7144600087B
:1022E00070B52A4B2A4C2B4D86B0012203201A7060
:1022F000FFF7DEFF00F070FC0420FFF7D9FF264651
:10230000AE4204F130040FD300F0E2F9204CAC42AD
:1023100026D300F0F1F9FEF71DF91F4A938923F047
:102320000103938106B070BD54F80C3C059354F83A
:10233000103C049354F8143C039354F8183C029353
:1023400054F81C3C019354F8203C009354E90A23B0
:1023500054E90C0100F0C2F854F8303C5E65CEE759
:10236000D4E90A23B3F1FF3F08BFB2F1FF3F05D024
:1023700052EA0301206803D101F0EEFB3034C6E7D6
:102380000649183000F03CFBF8E700BF9503002039
:10239000744200087442000830010020393B0008F4
:1023A00070B5002386B00122CDE90423134E144DED
:1023B00001930F22CDE902321249142303FB005589
:1023C00006EBC01604464FF4C07000FB04110E4B20
:1023D00000954FF4A072304600F080F8337C0B4A31
:1023E000EE6023F0040333744FF4046304FB0333FF
:1023F00013442C746B6006B070BD00BFB0000020A9
:1024000068030020000C0020B93A0008C003002037
:102410007FB50020FFF74CFF284B83F30888284C3A
:10242000636943F4007363610025F02384F822306C
:10243000E57725766576A57684F82050636A43F4BF
:10244000E0236362FEF7BCFBFEF79CFC4FF0FF331A
:10245000A362E362FEF7B8FDFEF714FD19481A4CBB
:1024600000F088F8FEF7E8F80120FFF721FF0220CE
:10247000FFF71EFF00F06AF9144B15495C61154B1C
:10248000059301234FF48062CDE90353CDE9015553
:10249000114B0095204600F021F8237C064623F0DE
:1024A00004032046237401F024FB2846FFF778FF3D
:1024B000094A31462046FEF747FC00BF000C0020C9
:1024C00000ED00E0B0010020300100206803002092
:1024D000800D00204B4B0008E12200082DE9F0435D
:1024E000073285B022F007020E461F4610998181FF
:1024F00000F158037F32C0E916330446002322F06E
:102500003F020421836001743F2A0F98A073C4E93D
:102510000633E37306F14009A2F1400805D883F3BE
:102520001188BFF36F8F084602DFB5182946204691
:10253000FEF732F907300E9B20F00700A066C4E9D1
:10254000189802930D9B01932D1A0C9B00932A4619
:102550003B4631462046FEF7C5FB00236365044B2E
:102560009B6803B1DB6EE366284605B0BDE8F083E7
:10257000680300200123037483810023C0E918331A
:10258000C366014B9860704768030020094A93684E
:102590006FF00A019967084958674B6843F0805308
:1025A0004B60002383F31188BFF36F8F9368986F9C
:1025B000704700BF6803002000ED00E070B590F99F
:1025C0001020037C002A2FDBD9062DD11A4C63F092
:1025D0007F032246037452F8183FE169934207D102
:1025E000C0E900210860E0610FE09942F8D01B6863
:1025F000002BF5D093F90E6090F90E50AE42F4DD49
:102600005968C0E9003108605860A569954200D05A
:1026100005B9E568A3681A7CD20606D1DA897F2A53
:1026200003D9AA690AB9636170BDAB4202D02846DA
:1026300000F068F96561F7E768030020034648B9D0
:10264000EFF3058232B9064A51699268914201D08E
:10265000FFF79CBF83F31188BFF36F8F704700BFF4
:102660006803002038B5184CA168E0690B68814206
:1026700014BF1A46002249680B605960A368E169DB
:102680002AB9124AC3E900210B60E3610AE092F91A
:102690000E5093F90E00854212DD5168C3E9002106
:1026A0000B605360A569094B9D4200D005B9E568F0
:1026B000A3689D4202D0284600F024F9656138BD28
:1026C0008A42DED01268DBE7680300208003002026
:1026D000EFF31181102383F31288BFF36F8F054B43
:1026E0009A68D37B013BD37381F31188BFF36F8F5B
:1026F000704700BF6803002070B5EFF31186102308
:1027000083F31288BFF36F8F0F4DAB68DA7B013212
:10271000DA732A4652F8184F944200D004B9EC6894
:102720001A7CD20604D1DA897F2A01D9A2692AB19A
:102730009C4202D0204600F0E5F823466B6130460B
:10274000BDE87040FFF77ABF68030020024B03F139
:102750001802C3E90622704768030020014B9868FD
:10276000704700BF680300202DE9F84304468789BD
:10277000EFF31186102383F31288BFF36F8F037C6E
:10278000190705D586F31188BFF36F8FBDE8F8836D
:10279000D90943F008026FD10274A36813B120462F
:1027A00001F09DF904F1180001F00DFAA56D04F196
:1027B0005808A84511D04FF0000975B1284601F01E
:1027C0008EF905F1180001F0FEF9C5F87890284659
:1027D000FFF7F4FEA56DA845EFD1DFF8BC80D8F86F
:1027E00008309C4250D1EFF30589B9F1000918BFB8
:1027F0004FF00109D8F81850284A954200D00DB979
:10280000D8F80C50AB4202D0284600F07BF82046A6
:10281000C8F8145000F040FDB9F1000F02D0204874
:10282000FFF7A8FED8F808309C4230D1EFF30583BB
:102830006BBBA289D20711D586F31188BFF36F8FC6
:1028400083F31188BFF36F8F0423184602DFEFF381
:102850001186102383F31288BFF36F8F3046FFF782
:1028600095FEFB0792D5002383F31188BFF36F8F8A
:102870000423184602DF89E703F07F0343F00803CF
:10288000037401F024F988E74FF00009B2E786F3FA
:102890001188BFF36F8FE4E76803002080030020F6
:1028A000B0010020027C12F01F02034610D10A4939
:1028B00088420DD00949086868B1D9897F2909D8AB
:1028C00093F90E20064B1B689A42B8BF0020704750
:1028D0000020704710467047B000002060000020C4
:1028E0008C030020044BC01A044BC0105843044B07
:1028F00001221A54704700BF30020020ABAAAAAAD6
:102900009603002070B50C4B0C4D1E7CFFF7CAFFE0
:10291000182303FB06550446284601F054F9084BDA
:1029200000229A553CB1621E28460649BDE8704017
:10293000D31700F065B870BD680300203002002096
:1029400096030020E528000838B5EFF31185102321
:1029500083F31288BFF36F8F0F4B104A9C68106887
:10296000A04206D1FFF7CEFF85F31188BFF36F8F2A
:1029700038BD00211B7C1160094AD35C002BF3D0C9
:102980002046FFF78FFF0028EED0237CDB0601D125
:10299000FFF768FE2046E5E7680300208803002073
:1029A00096030020024B1868984208BF0020704729
:1029B00064000020034B1B680BB9FFF7A3BB00208A
:1029C000704700BF9003002030B570B10B4B5B68BF
:1029D00098420AD0036843B1D3E90421D0E9044501
:1029E000121941EB0501C3E90421D0E9003213605B
:1029F0005A600023C0E9003330BD00BF64000020EE
:102A0000B3F1FF3F08BFB2F1FF3F2DE9F84F044695
:102A1000994615461F467AD08160EFF3118810233E
:102A200083F31288BFF36F8FB9F1000FDFF8E4A0D2
:102A300020DBFFF7BFFFDAE90027013549F1000984
:102A40002D1849EBE073C4E90453AD18064643EB77
:102A500007074FF00109FFF7A5FFDFF8BCE0DEF83C
:102A600004A00346EBB9C4E900EACAF80040CEF876
:102A7000044028E0DAE900126FF001035B1A4FF01E
:102A8000FF3161EB02025B1B62EB0902012B72F169
:102A90000001BCBF01230022C0E904324FF000094D
:102AA000D9E7D3E9041CD4E904208A4270EB0C0B6B
:102AB00024DA891A5A686CEB0000C3E90410C4E9EF
:102AC000003214605C60FFF76DFF84420ED1134B3F
:102AD0001B685BB9B9F1000F02D1FFF76BFF064627
:102AE000304601F059F80021FFF792FA88F3118877
:102AF000BFF36F8F28463946BDE8F88F521A60EB56
:102B00000C005345C4E90420ADD01B68AAE700259A
:102B10002F46EFE7480200206400002090030020C9
:102B20002DE9F047DFF8A890DFF8A880C9F8000089
:102B30000246FFF737FF0D4600260027D8E90013AD
:102B40004FEAE27E50B1D0E9044CA2427EEB0C0A7F
:102B50001BDAA41A6CEB0E06C0E9044652184FF0BB
:102B6000000443EB0E032046C8E90023C9F80040E7
:102B700001F012F82146FFF74BFA85F31188BFF3F5
:102B80006F8FBDE8F047FFF7DFBE611843EBE473DA
:102B9000C0E90467C8E90013FFF716FF01224FF0F0
:102BA0000043C0E9042385F31188BFF36F8F836866
:102BB0009847EFF31185102383F31288BFF36F8FCB
:102BC000D9F80020121BC9F80020FFF7EBFEB5E78B
:102BD0009003002048020020014800F0B7BA00BF6F
:102BE000504B00082DE9F04F8BB043680093837879
:102BF0009C078046924640F1F9800025087800281D
:102C000000F0F68025280AD04B1C0193013541467F
:102C1000009B98470028C0F2E3800199EEE74E78C8
:102C20008B1C252E0193F1D00027B9463C460A2281
:102C30001F2C22D8A6F12003102B20D8DFE803F0A8
:102C4000141F1F1A1F1F1F0B1F1F1F121F171F1FCD
:102C5000090044F00104019B13F8016B0193002E5D
:102C6000E6D13AE044F0020444F00404F3E744F00F
:102C70000804F0E744F01004EDE77F2C24D8A6F117
:102C80003003092B08D860064EBF02FB073702FB52
:102C9000093944F02004DEE72A2E0DD161065AF8E6
:102CA000043B53D4002BA7BF44F020049946C3F142
:102CB000000944F02804CEE72E2E05D1630600F16A
:102CC000978044F04004C6E76C2E2ED028D8682E9A
:102CD00032D06A2E37D04C2E35D0002F46F020034C
:102CE000B8BF24F04004A3F16502BCBFA4B2002722
:102CF000022A01D9612B2BD10AF1070A2AF0070A0F
:102D00009C4E0AF1080A0727210760D506EB070B3E
:102D100034465C455DD1AE1BA219A9EB070959E108
:102D2000742E98D07A2E96D0D7E7260648BF44F462
:102D3000007444F080048EE7E00548BF44F400745A
:102D400044F4807487E744F4207484E71F4682E7E4
:102D5000A6F16302122A00F2D880DFE812F0130015
:102D60004D00D600D600D600D6004D00D600D600C5
:102D7000D600D600D600E800D100D600D6001A0052
:102D8000D600A0005AF8043B8DF81030012704AE9D
:102D9000BAE75AF8046B784B002E08BF1E4614F0B1
:102DA000400F14BF39464FF0FF31304600F056FF58
:102DB0000746A9E7009B41462020984700280FDBE3
:102DC000013CA742F6D34D442D1BA1469EE74C463D
:102DD000F7E714F8010B009B41469847002898DA62
:102DE00098F8023043F0040388F802304FF0FF35C2
:102DF00028460BB0BDE8F08F220630D5A3052AD5B2
:102E00000AF1070A2AF007039A4659685AF8080B8C
:102E100024F0100B00291FFA8BFB2FDA404261EBE4
:102E200041014BF4806B04AC0A23224600F022FFE0
:102E30001BF0400FA0EB040200F08E802BF0010489
:102E40009742A4B240F38F80002E40F08E802BF08A
:102E50001104A4B21DE05AF8040BC117D8E7E0052D
:102E60005AF8041B01D40846F7E7A2054BBF48B245
:102E700008B241F3C01141F3C031C9E750EA010380
:102E8000D1D16306CFD5002FCDD124F01104A4B247
:102E90003A463B4640F206410C4262D124E024F01F
:102EA0001004A4B20A2314F0800243D014F4007179
:102EB0001FBF0AF1070A2AF007029246516814BFA1
:102EC0005AF8080B5AF8040B50EA01023ED124F0DC
:102ED000160B62061FFA8BFB3CD5002F3AD124F06B
:102EE0001704A4B23A463B4621075AD4E10705D558
:102EF000994572DDA9EB03039F184B469B464AE0B8
:102F000044F0100410237826CDE7782B04D1C6F1C5
:102F1000780343F01003C6E7009B414625209847FD
:102F20000028FFF65DAF02354146304670E60823C3
:102F30000026B8E714F480715AF8040BC4D014F4D6
:102F400000711ABFC0B2114680B2BDE724F006047A
:102F50001FFA84FB04AC68E713465C46E10699D58A
:102F60002EB90133C0E71346F8E73B46F6E70233D4
:102F7000BAE700BF914B00088A4B0008CDE9023246
:102F80004146009B202098470028FFF629AFDDE945
:102F900002320BF1010BD945F0DCEB1A03EB0B0508
:102FA0005B46E10627D5CDE902324146009B302041
:102FB00098470028FFF614AFDDE902327EB90135EB
:102FC0002F44791B8A4229DB144604AE9CBB2A4459
:102FD000A9EB03091546914442E017468EE7CDE977
:102FE0000232023541463046009B98470028DDE911
:102FF0000232E5DAF4E640F206410C42E0D014F089
:10300000020F14BF2B20202014F4806FCDE9023270
:1030100005F10105414618BF2D20E5E7CDE9023253
:103020004146009B302098470028DDE9023205F137
:103030000105C6DAD4E6013CCDE90232305D009BE1
:10304000414698470028DDE90232BFDAC8E6009B16
:10305000414620209847002805F10105FFF6C0AE43
:10306000A9EB0503002BF2DCD7E500BF704700EBAE
:10307000C100408840087047F8B50346FFF7F7FFE6
:10308000B0FA80F0C0F11F0003EB800CCA00DCF83E
:103090001060171D0C4606328DB256B9012101FA97
:1030A00000F0D9680143D960CCF81040DD539D523F
:1030B000F8BDF1000431585AD85303EBC0009E52BA
:1030C000C5805D52F4E7043A2DE9F843CC1D114464
:1030D00024F0070421F00706A6EB04084FEAD807FE
:1030E000B7FA87F2C2F12405AD004FF000090735A9
:1030F000C2F12002ED0804604946A760C4F80C90B4
:10310000920004F1100000F0A1FDAAB2530043F0B8
:10311000010363807B1B9BB204EBC5015800A4F83C
:103120000090488024F83520A6F8029024F8083052
:1031300004EBC70329465A8842F001025A80204610
:10314000BDE8F843FFF798BF002070470FB407B5FC
:1031500004A951F8040B0191FDF72AFA03B05DF8B8
:1031600004EB04B070477047F0B51E4643685C68D6
:10317000012067688840C2F3801327EA00078B406C
:103180003B43636090FAA0F7B7FA87F7D4F808C01A
:103190004FF0030E7F000EFA07F72CEA070C90FAA7
:1031A000A0F7B7FA87F7C2F3C1137F00BB4043EA29
:1031B0000C03A36090FAA0F3B3FA83F3E7685B0013
:1031C0000EFA03F327EA030790FAA0F3B3FA83F3A6
:1031D00002F030055B00C2F341229A403A43202DB1
:1031E000E26016D107292CD890FAA0F3226A33B3F3
:1031F000B3FA83F39B000F2101FA03F322EA0302DF
:1032000090FAA0F3B3FA83F39B0006FA03F3134397
:10321000236290FAA0F3B3FA83F3226890FAA0F045
:1032200003215B00B0FA80F001FA03F340002D099E
:1032300022EA030385401D4325600020F0BD2B4694
:10324000D8E7030A616A93FAA3F282B1B2FA82F272
:1032500092000F2793FAA3F3B3FA83F307FA02F26B
:103260009B0021EA02029E4016436662D1E72A468D
:10327000EEE700F0EBBC00F0DBBC01460068FDF7B8
:1032800057BA08B5FDF784FABDE80840FDF780BDE0
:1032900000210120FDF74CBA6FF08500704761B640
:1032A00062B680F31188BFF36F8F704772B6002348
:1032B00083F31188BFF36F8FBFF34F8F30BF62B6B8
:1032C000BFF36F8F7047202809D9B0F1004F08D89D
:1032D0000138B0FA80F0C0F11F00400070470820AC
:1032E00070473E20704708B5FDF730FF002008BD4D
:1032F00008B5062201210020FDF78CFF00221146AF
:103300000620FDF7ADFC012108460722FDF782FFEC
:10331000002211460720FDF7A3FC0822012102200C
:10332000FDF778FF002211460820FDF799FC0922DD
:1033300001210320FDF76EFF002211460920FDF751
:103340008FFC0A2201210420FDF764FF00221146B0
:103350000A20FDF785FC052108461722FDF75AFFD4
:10336000002211461720FDF77BFC282206210A20A7
:10337000FDF750FF002211462820FDF771FC0020C8
:1033800008BD01F01F0101208840704700F00302D2
:10339000043292000F23934043EA900000F00303AD
:1033A00010B59B0003F1804303F58033020C9C6849
:1033B00092FAA2F224EA10400AB1B2FA82F29140E3
:1033C0000143996010BD0B88C3F30B0303F6B87279
:1033D000C2F30B02182A82B014D803F1804303F51C
:1033E000043348681A6802431A600B88C3F30B035E
:1033F00003F1804303F5043300201B680193019B14
:1034000002B070476FF08500FAE70B88C3F30B0337
:1034100003F6B872C2F30B02182A9FBF03F1804370
:1034200003F5043349681A689DBF8A4300201A6077
:103430006FF0850070470D2809D843F66A73C340C2
:1034400013F0010F0CBF6FF08500002070476FF084
:103450008500704770B508884A68C0F30B0094B2C5
:10346000C2F30445FFF7E7FFA0B9FF2A11D004F12A
:103470008041C2F3415601F5043101360123B340C6
:103480000C68013BAB40120E24EA0303AA4013432D
:103490000B6070BD6FF08500FBE70888C0F30B0080
:1034A00008B500F6B873C3F30B03182B0AD800F164
:1034B000804000F504304B68026893430CBF022043
:1034C000012008BDFFF7B7FF00280CBF0220012034
:1034D000F7E7704743685B681B690B600020704723
:1034E00043685B68586942400A4042405A61002084
:1034F000704743685B6800209961704743685B6868
:1035000000209962704743685B685A69514059616D
:103510000020704730B50369986800B300248842E2
:1035200019D108688CB9DC689860A14200D1D860D4
:10353000002008602AB19A680A60DA68996002B9C6
:10354000D96000200FE02846E9E72060D868814272
:1035500008BFDC60ECE705680446002DF3D1002AC3
:10356000E9D16FF0150030BD12F4003CF8B50C46FF
:10357000134641D0960738D555075BD55022D9065A
:1035800035D542F4007203F4C061B1F5806F43D0C9
:10359000B1F5C06F3DD0B1F5007F40D013F4403697
:1035A000056912D06F6827FA04F1C9075FBF0121CE
:1035B000A14039436960BCF1000F06D01F0331D52B
:1035C000416801234968A3408B6100232146FFF72E
:1035D000CBFD46B96B6823FA04F2D20741BF012242
:1035E000A24093436B600020F8BD1022C7E79F06FE
:1035F000C9D542F48062C6E7D60305D5D50605D401
:10360000C2F340129202BEE73022BCE74FF40072D0
:10361000B9E742F4C072C1E742F48072BEE742F0FB
:103620008002BBE75903D0D5416801234968A34014
:103630008B62CAE76FF08500D6E770B50B690E465E
:103640009968054609B10C6801B970BD8A682A40BD
:1036500002D04B68304698471CB1236821461C466F
:10366000F2E72346FAE730B503681360057904688A
:1036700004EBC504A34202D36FF0010030BD5C79B6
:103680008C4203F10803F0D10020F7E72DE9F84F51
:10369000044600EBC10800254FF00109444502D162
:1036A0000020BDE8F88FD4F800B01BF0100F20D137
:1036B000656845F02005CBF34420FCF7ABFF0746D7
:1036C00008B3CBF343160BF01F0A53462A46314684
:1036D000FFF74AFD0028E4DBBAF1110F07D17B6840
:1036E0005B6809FA06F62A054CBF9E619E620834A3
:1036F000D4E70BF01F03102B03D0112BDBD165682F
:10370000D9E73025D7E76FF01200CAE74163704769
:1037100081637047C163704701647047836C816443
:103720007047C16470474168036949681B6800209D
:103730000131B3FBF1F3C2E9003070474368C1F3D4
:103740004B101B6801F01F01C05801238B40034040
:10375000003B18BF012313700020704710B5436869
:10376000C1F34B101A6801F01F01845801238B40EC
:1037700023438350002010BD10B54368C1F34B14A0
:10378000186801F01F01235801228A4023EA02032E
:103790002350002010BD38B504460D46FFF7DEFF6C
:1037A00029462046FFF7E8FF002038BDB0F5805FCE
:1037B00007D0B0F1805F09D100290CBF02200120A1
:1037C000704700290CBF04200320704700290CBF5C
:1037D00003200220704743681B68D869DA69C0F388
:1037E000C00002F0010240EA4200DA699207DA6999
:1037F00048BF40F004005107DA6948BF40F020009C
:10380000D20542BF4FF4807240F008001A62C1072F
:1038100044BF08221A62820744BF01221A6241078C
:1038200044BF02221A62820644BF04221A62704711
:1038300010B543681B681020DA691206FCD5EFF357
:10384000118280F31288BFF36F8FDC69240604D4E1
:1038500082F31188BFF36F8FEEE7996282F31188CC
:10386000BFF36F8F10BD43681B68DA69100744BF50
:1038700008221A62DA69920643BF5B6A0B70002065
:103880004FF0FF30704710B50269126812680A6085
:1038900042681268126802F4C062B2F5806F044692
:1038A0000B4633D0A2F5C060424242411A716268B1
:1038B0001268526802F44052B2F5805F28D0B2F527
:1038C000405F27D0002A0CBF012203225A71626890
:1038D00012681068116800F0102001F4C061FFF751
:1038E00065FF987162681268926802F44072A2F5EE
:1038F00040714A424A41DA7161680968896811F485
:10390000804F18BF0322DA71002010BD0222CDE7DC
:103910000022DBE70222D9E72DE9F0410A790369A9
:10392000D0F804801E68012A04460D4614D0A2F186
:10393000020CDCF1000747EB0C07BF026979404637
:10394000FEF738F9AB79022B09D0042B31D0131EC6
:1039500018BF01231B0306E04FF4C067EEE7B2FA7D
:1039600082F35B091B07EA79D8F80010012A0CBF23
:103970004FF4407C4FF0000CAE421DD10A6822F09B
:10398000805222F4B0523A431A430A604B6823F43F
:10399000405303434B6063681A68936823F4407391
:1039A00043EA0C03936031686068BDE8F041FEF7BC
:1039B00035B94FF48053D6E7D1F800E00EF4C06E6D
:1039C00077451FBFD1F800E02EF4C06E4EEA07071E
:1039D0000F6061680F68796801F4405188421FBF29
:1039E000796821F440510143796061680868016891
:1039F00001F010218B421FBF016821F010210B4301
:103A00000360636819688B6803F440739C451FBFAB
:103A10008B6823F4407343EA0C038B6063681B6874
:103A2000D71E996878427841C1F38031884207D027
:103A3000032A9A680CBF42F4804222F480429A60C2
:103A400029683368994207D06068FEF7E7F808B93B
:103A50002B683360BDE8F0810020FBE710B54369B7
:103A600004463BB90020E268537843F001035370E9
:103A7000404210BD98470028F4D00028B8BF40420B
:103A8000E368FF28A8BFFF201870ECE740B1C368C7
:103A9000587810F001001EBF1878B0FA80F0400985
:103AA0007047EFF31183102383F31288BFF36F8FF6
:103AB000FEE708B5FFF7F5FF08B51024EFF3118313
:103AC00084F31288BFF36F8FFFF7F0FBF6E7D0E9BE
:103AD000003213605A600023C0E90033704708B514
:103AE000FFF7F5FF037C23F00203037400238360D8
:103AF00008BD10B5EFF31184102383F31288BFF3D0
:103B00006F8FFEF75BFD84F31188BFF36F8F10BDDD
:103B100008B5037C13F0280F01460CD183680BB164
:103B2000FFF7DDFF0B7C23F004030B740846BDE8B0
:103B30000840FEF743BD08BD10B5EFF31184102314
:103B400083F31288BFF36F8F1838FFF7E1FF84F318
:103B50001188BFF36F8F10BD38B50446EFF31185A0
:103B6000102383F31288BFF36F8F037C5B070ED59E
:103B7000183000F028F8237C23F004032046237437
:103B8000FEF71CFD2846BDE83840FEF757BD85F31B
:103B90001188BFF36F8F38BD08B50246FEF702FFEC
:103BA00070B1D0E904319B1A61EBE272B3F1004FBE
:103BB00072F1000104DA002AACBF1846002008BDEB
:103BC0006FF00040FBE738B50246EFF31185102394
:103BD00083F31288BFF36F8F0368D3B1FEF7E2FE61
:103BE00004461046FEF7F0FE00224FF000438442E8
:103BF000C0E9042305D0002085F31188BFF36F8F3F
:103C000038BDFEF7D7FEFFF7C7FF0021FEF700FA29
:103C1000F1E7D0E90413B3F1004F08BF012904D143
:103C200000204FF00041C2E904016FF01500E3E706
:103C30000A44914200F1FF3300D1704710B511F8EA
:103C4000014B03F8014F9142F9D110BD02440346E4
:103C5000934200D1704703F8011BF9E710B5024603
:103C600001448A42134603D01C780132002CF8D15B
:103C7000181A10BDF0B5C3F137070446FFB203F0C0
:103C80001F031046082BE6B233D0102B3ED0650838
:103C9000A40844EA817445EAC1752D194FEA9102DE
:103CA00042EB5102290941EA02716D1842EB1212EE
:103CB000290A41EA02616D1842EB1222290C41EAFD
:103CC00002416D1842EB1242AD1842F10002EC08BD
:103CD00044EA4274D10804EB8402A6EB4205EDB23B
:103CE000092D0CD90134A5F10A0541F10001EDB20D
:103CF00012E0E40844EA417406F00705C9083035CB
:103D000054EA010200F8015BBCD1F0BD240944EA89
:103D1000017406F00F050909092D84BFED19EDB2F4
:043D2000EDE70000CB
:083D2400C0C4FF7F0100000094
:103D2C0000000000D43D0008E10500080000000080
:103D3C0000000000F03D0008000000007C3E000880
:103D4C0000000000B43E000800000000D03E000857
:103D5C0000000000983E000800000000603E0008D3
:103D6C0000000000443E000800000000283E00084F
:103D7C00000000000C3E0008F132000800000000BA
:103D8C0000000000EC3E000800000000083F0008A6
:103D9C00FD15000800000000711F00080000000065
:103DAC00751100080000000000000000783F0008BA
:103DBC00000000005C3F000800000000403F0008CD
:083DCC0000000000243F000884
:103DD400094B000800000000B04200088C000020DD
:103DE4000000000051140008000000001A4B0008F5
:103DF40070450008A0420008960000200000000062
:103E040000000000000000006D460008E8420008C1
:103E1400744200087C00002050020020F5050008D0
:103E2400000000007B460008FC42000874420008C1
:103E34007E00002060020020F5050008000000005C
:103E440089460008104300087442000880000020DE
:103E540070020020F50500080000000097460008E5
:103E640024430008744200088200002080020020DD
:103E7400F505000800000000A546000838430008C6
:103E8400744200088400002090020020F505000818
:103E940000000000B34600084C43000874420008C8
:103EA40086000020A0020020F505000800000000A4
:103EB400C1460008604300087442000888000020DE
:103EC400B0020020F505000800000000EB4A0008DD
:103ED40000000000000000008A0000200000000034
:103EE40099110008000000002B4B000874450008DD
:103EF400CC4200089800002044000020E11D000886
:103F0400000000003B4B0008C4450008CC420008F8
:103F14009A00002050000020E11D0008000000006D
:103F2400164B000808440008984200088E00002040
:103F340014000020ED19000800000000164B0008D2
:103F440050440008984200089000002020000020FF
:103F5400ED19000800000000164B00089844000802
:103F640098420008920000202C000020ED1900085F
:103F740000000000164B0008E844000898420008BE
:103F84009400002038000020ED1900080000000013
:103F94000000000091320008000000009132000887
:103FA4000000000091320008000000009132000877
:103FB4000000000091320008000000009132000867
:103FC400A54B00082D120008A34B00082D12000871
:103FD400A14B00082D1200089F4B00082D12000869
:103FE4009D4B00082D1200080000000091320008CB
:103FF4000000000091320008000000009132000827
:104004000000000091320008000000009132000816
:104014000000000091320008000000009132000806
:1040240000000000913200080000000091320008F6
:1040340000000000913200080000000091320008E6
:1040440000000000913200089B4B00082D1200086C
:1040540000000000913200080000000091320008C6
:1040640000000000913200080000000091320008B6
:1040740000000000913200080000000091320008A6
:104084000000000091320008000000009132000896
:104094000000000091320008000000009132000886
:1040A4000000000091320008000000009132000876
:1040B4000000000091320008000000009132000866
:1040C4000000000091320008000000009132000856
:1040D400994B00082D1200080000000091320008DE
:1040E4000000000091320008000000009132000836
:1040F4000000000091320008000000009132000826
:104104000000000091320008000000009132000815
:104114000000000091320008000000009132000805
:1041240000000000913200080000000091320008F5
:1041340000000000913200080000000091320008E5
:1041440000000000913200080000000091320008D5
:1041540000000000913200080000000091320008C5
:1041640000000000913200080000000091320008B5
:1041740000000000913200080000000091320008A5
:104184000000000091320008000000009132000895
:104194000000000091320008000000009132000885
:1041A4000000000091320008000000009132000875
:1041B4000000000091320008000000009132000865
:1041C4000000000091320008000000009132000855
:1041D4000000000091320008000000009132000845
:1041E4000000000091320008000000009132000835
:1041F4000000000091320008000000009132000825
:104204000000000091320008000000009132000814
:104214000000000091320008000000009132000804
:1042240000000000913200080000000091320008F4
:1042340000000000913200080000000091320008E4
:1042440000000000913200080000000091320008D4
:1042540000000000913200080000000091320008C4
:1042640000000000913200080000000091320008B4
:1042740069350008D5340008E1340008F334000837
:10428400FD340008073500084D16000815350008F0
:044294000000000026
:08429800F916000827370008A1
:1042A0003D3700085D370008793700089737000868
:1042B000C73300080B34000800000000A1130008F9
:0C42C0009B34000800000000553400088A
:1042CC006738000831380008D7370008D51C0008BB
:0442DC008738000817
:1042E0006000000001000000FFFF0000001800480F
:1042F000060000004C00000040000000FFFF00002E
:1043000000140048050000004C00000020000000E0
:10431000FFFF000000100048040000004C000000F7
:1043200010000000FFFF0000000C00480300000028
:104330004C00000008000000FFFF000000080048DB
:10434000020000004C00000004000000FFFF00001D
:1043500000040048010000004C00000002000000C2
:10436000FFFF000000000048000000004C000000BB
:1043700001000000B43E0008983E00087C3E0008A2
:10438000603E0008443E0008283E00080C3E00083D
:10439000000000000000000000000000000000001D
:1043A000000000000000000000000000000000000D
:1043B00000000000000000000000000000000000FD
:1043C00000000000000000000000000000000000ED
:1043D00000000000000000000000000000000020BD
:1043E0000000000000000B0602000000F04300087F
:1043F00000000008DC4A000824000206000000203B
:10440000E44A000820000B110008004000000000F2
:104410000000000000000000000000002844000828
:1044200002000000384400085800000004000000AA
:1044300009000000FF0000004044000801000000E7
:104440004844000801000000E202000000000000F3
:104450000004004000000000000000000000000018
:1044600000000000704400080200000080440008C2
:10447000580000000200000009000000FF000000DA
:10448000884400080100000090440008010000007A
:1044900002020000000000000000004000000000D8
:1044A000000000000000000000000000B844000808
:1044B00002000000C844000858000000010000008D
:1044C00009000000FF000000D044000801000000C7
:1044D000D8440008020000000100000000000000B5
:1044E0002100000000000000002C0140A900000095
:1044F0000000000000000000000000000845000867
:1045000002000000184500086000000000080000DC
:104510000A000000FF000000204500080100000024
:10452000284500080100000006010000000000000E
:104530000D37000811370008153700081937000833
:104540001D37000823370008040000004000000069
:104550000004000000400000010000001000000006
:104560000001000000100000000001000000100029
:104570000010024000800040D43D0008F03D0008DB
:10458000800700009C4500080100000000000000BA
:104590000000000000000000A44500085C000000CE
:1045A00001000000AC45000801000000B44500080F
:1045B000020000004C000000000200006C0000003F
:1045C0000000000000380140D43D0008F03D000824
:1045D0000E080000EC45000801000000000000008B
:1045E0000000000000000000F4450008600000002A
:1045F00000400000FC4500080100000004460008DF
:10460000020000008704000000020000A704000070
:10461000000000002C3D00082C3D0008A43D0008CF
:10462000AC3D0008D43D0008D43D00080100020064
:104630000400060008000A000C00100020004000E2
:1046400080000001677269707065725F696E6974DD
:10465000206661696C65640A0067726970706572D2
:104660002068656C642061742025640A00677069A5
:104670006F403438303031383030006770696F4007
:104680003438303031343030006770696F4034383E
:10469000303031303030006770696F40343830303E
:1046A00030633030006770696F40343830303038F4
:1046B0003030006770696F4034383030303430301B
:1046C000006770696F4034383030303030300072FD
:1046D000302F61313A202030782530387820207210
:1046E000312F61323A2020307825303878202072FE
:1046F000322F61333A20203078253038780A007222
:10470000332F61343A2020307825303878207231C8
:10471000322F69703A202030782530387820723175
:10472000342F6C723A20203078253038780A0020F7
:10473000787073723A20203078253038780A004635
:1047400061756C74696E6720696E737472756374D9
:10475000696F6E20616464726573732028723135ED
:104760002F7063293A203078253038780A00556E4A
:1047700068616E646C6564204952516E3A2025640C
:104780000A002A2A2A2A2A204D5055204641554CF3
:1047900054202A2A2A2A2A0A002020537461636B93
:1047A000696E67206572726F722028636F6E746520
:1047B00078742061726561206D6967687420626534
:1047C000206E6F742076616C6964290A0020205580
:1047D0006E737461636B696E67206572726F720AC3
:1047E0000020204461746120416363657373205627
:1047F000696F6C6174696F6E0A0020204D4D4641EF
:104800005220416464726573733A20307825780AC7
:10481000002020496E737472756374696F6E204155
:1048200063636573732056696F6C6174696F6E0A98
:10483000002020466C6F6174696E672D706F696E21
:1048400074206C617A79207374617465207072656C
:10485000736572766174696F6E206572726F720A29
:10486000002A2A2A2A2A20555341474520464155E5
:104870004C54202A2A2A2A2A0A00202044697669D0
:1048800073696F6E206279207A65726F0A0020204A
:10489000556E616C69676E6564206D656D6F7279C8
:1048A000206163636573730A0020204E6F20636F7D
:1048B00070726F636573736F7220696E7374727553
:1048C0006374696F6E730A002020496C6C656761C0
:1048D0006C206C6F6164206F66204558435F5245C1
:1048E0005455524E20696E746F2050430A002020A8
:1048F000496C6C6567616C20757365206F66207408
:10490000686520455053520A002020417474656D3B
:10491000707420746F206578656375746520756E9A
:10492000646566696E656420696E7374727563741C
:10493000696F6E0A002A2A2A2A2A204255532046E5
:1049400041554C54202A2A2A2A2A0A00202053742E
:1049500061636B696E67206572726F720A00202056
:104960005072656369736520646174612062757358
:10497000206572726F720A00202042464152204127
:104980006464726573733A20307825780A002020B9
:10499000496D70726563697365206461746120623A
:1049A0007573206572726F720A002020496E7374ED
:1049B00072756374696F6E20627573206572726FB1
:1049C000720A005265736572766564204578636586
:1049D0007074696F6E20280053707572696F7573FB
:1049E00020696E7465727275707420284952512066
:1049F00000535053454C20696E20746872656164A1
:104A0000206D6F646520646F6573206E6F7420691C
:104A10006E646963617465205053500A002A2A2A23
:104A20002A2A2048415244204641554C54202A2AE3
:104A30002A2A2A0A002020427573206661756C7448
:104A4000206F6E20766563746F72207461626C658E
:104A500020726561640A00202044656275672065E4
:104A600076656E740A0020204661756C742065734B
:104A700063616C6174696F6E20287365652062657F
:104A80006C6F77290A00415243485F4558434550AF
:104A900054207769746820726561736F6E20257881
:104AA0000A0A002A2A2A2A2A204465627567206D8C
:104AB0006F6E69746F7220657863657074696F6E6C
:104AC000202A2A2A2A2A0A002A2A2A2A2A20257360
:104AD00020256429202A2A2A2A2A0A00464C4153E2
:104AE000485F30005352414D5F3000696E7465720B
:104AF000727570742D636F6E74726F6C6C6572403A
:104B00003430303130343030007263634034303010
:104B100032313030300070776D0072657365742DFE
:104B2000636F6E74726F6C6C65720073657269612D
:104B30006C40343030303830303000736572696129
:104B40006C403430303133383030006D61696E0084
:104B50002A2A2A20426F6F74696E67205A6570682E
:104B60007972204F53206275696C642076342E343C
:104B70002E302D3732322D67353964633930356543
:104B800038306137202A2A2A0A00286E756C6C2971
:104B9000002A666C6F61742A000A06050504010389
:104BA00001020101010001000102030405060708DA
:104BB0000A00020406080A0C0E1014000008000087
:104BC0000008000008000000000404040438380055
:104BD00000000000000000010203040607080900AD
:104BE0004931000800000000E73200080000000022
:104BF0000000000000000000F03D00080207000077
:104C000000000000F03D0008010700000000000067
:104C1000F03D00080007000000000000F03D000823
:104C20000B0800004800002000C201000001030042
:104C30005400002000C20100000103000024F40021
:104C4000C80000006400002064000020FFFFFFFF98
:0C4C5000FFFFFFFFFFFFFFFFFFFFFFFF64
:104C5C000000000000000000000000000000000048
:104C6C000000000000000000000000000000000038
:044C7C0015E015E04A
:0400000508000BEDF7
:00000001FF
