:020000040800F2
:100000009011002055160008113E00084116000806
:1000100000000000000000000000000000000000E0
:100020000000000000000000000000008916000829
:100030000000000000000000E51700085529000836
:10004000851800088518000885180008851800081C
:10005000851800088518000885180008851800080C
:1000600085180008851800088518000885180008FC
:1000700085180008851800088518000885180008EC
:1000800085180008851800088518000885180008DC
:1000900085180008851800088518000885180008CC
:1000A00085180008851800088518000885180008BC
:0800B0008518000885180008FE
:1000B80002B4714649084900095C49008E4402BCF3
:1000C8007047C046002934D00123002210B488426A
:1000D8002CD301242407A14204D2814202D209016F
:1000E8001B01F8E7E400A14204D2814202D2490090
:1000F8005B00F8E7884201D3401A1A434C08A04233
:1001080002D3001B5C0822438C08A04202D3001BC8
:100118009C082243CC08A04202D3001BDC082243DF
:10012800002803D01B0901D00909E3E7100010BC1F
:10013800704701B5002000F05FF802BD0029F8D033
:1001480003B5FFF7C1FF0EBC4243891A1847C046E2
:10015800002941D010B404004C40A44601230022D9
:10016800002900D54942002800D5404288422CD3B6
:1001780001242407A14204D2814202D209011B01B1
:10018800F8E7E400A14204D2814202D249005B00B0
:10019800F8E7884201D3401A1A434C08A04202D318
:1001A800001B5C0822438C08A04202D3001B9C0859
:1001B8002243CC08A04202D3001BDC0822430028BB
:1001C80003D01B0901D00909E3E710006446002C9D
:1001D80000D5404210BC704701B5002000F00CF873
:1001E80002BDC0460029F7D003B5FFF7B3FF0EBC28
:1001F8004243891A1847C0467047C0461C2101234C
:100208001B04984201D3000C10391B0A984201D3F1
:10021800000A08391B09984201D30009043902A2CF
:10022800105C40187047C046040302020101010136
:100238000000000000000000002B11D1002A0FD19F
:10024800002900D1002802D00021C943080007B4C2
:10025800024802A14018029003BDC0469DFFFFFF5F
:1002680003B4684601B5029800F088FA019B9E46DF
:1002780002B00CBC7047C046F0B5C30F85B044024D
:1002880045000391640A2D0E01932ED0FF2D39D01D
:100298008023E400DB047F3D1C4302950027039B79
:1002A8005D025E00DB0F6D0A360E039330D0FF2E21
:1002B8003BD08023ED00DB041D4333007F3B00214E
:1002C8000398019A42400298D2B2C31AB800084370
:1002D80001380E2842D8FFF7EBFE6CA87EA89DA82F
:1002E8007E6C6C9D7E2E2E2E720001270294002CAF
:1002F800D5D02000FFF782FF773F431F9C403B1A71
:100308000293CBE703270295002CC8D1013FC6E72B
:100318002B000121002DD3D02800FFF76FFF431FCA
:100328009D4076235B421B1AC9E733000321002D49
:10033800C6D10139C4E73900019A022939D0032905
:1003480000D170E00025280001291ED16D026D0A38
:10035800C0052843D207104305B0F0BD64016D0104
:10036800AC4228D31A200121641B0126270049002A
:100378006400002F01DBA54201D8641B314301381A
:100388000028F3D1601E84410C4318007F300028F8
:1003980024DD610704D00F212140042900D0043452
:1003A800210103D58033180023490C40E508FE28B5
:1003B800CCDD00250DE01B200021013BD5E7802383
:1003C800DB031C4201D01D4229D08025019AED0390
:1003D8002543FF20BAE72C00039AAEE70121002548
:1003E800091A28001B29B1DC9E3325009C40CD400A
:1003F800631E9C4125436B0704D00F232B40042B1D
:1004080000D0043580232800DB0418401D420FD19A
:10041800ED089BE7002380240193E403D5E7039BC1
:100428002C000193D1E70192CFE7002528008DE742
:10043800002501208AE7C046FFFFFFF7F0B5C30F8C
:1004480085B04702440003917F0A240E02930AD024
:10045800FF2C71D080227F3C26000023FF00D204AD
:10046800174301930CE001233E1E019308D0380086
:10047800FFF7C4FE7626431F9F407642361A019442
:10048800039B5C025D00DB0F640A2D0E03935AD0B8
:10049800FF2D64D080232800E400DB041C437F3850
:1004A8000023019986198800721C18430A2800DD68
:1004B8007EE00299039D69400291022855DC0138CB
:1004C800012864D9B9B20D003B0C200CA4B26543D5
:1004D80041435C43434309191F002B0C5B189C42A2
:1004E80002D9802149027F181904ADB24D19AC0117
:1004F800611E8C411B0CAD0EDB192C439B011C4368
:100508001B0167D5012361081C400C4310007F3094
:10051800002861DD630704D00F232340042B00D09B
:100528000434230103D5803210003F4B1C40E108FE
:10053800FE2834DD00214BE0032326000193002F21
:100548009ED1013B8DE720000123002CA9D0FFF7A5
:1005580055FE431F9C4076235B42181AA0E72800EB
:100568000323002C9DD1013B9BE701218140A6205C
:100578000D00C000054001421ED1902080000142BC
:1005880046D1B938FF3801429CD003990291022B19
:10059800D0D0032B42D000210800012BB6D1029BFA
:1005A8004902490AC0050843DB07184305B0F0BDF6
:1005B8000F2804D00B28E8D03C00019BE7E78023F4
:1005C800DB031F4201D01C4226D08021C9033943D6
:1005D800FF20E4E7320099E7012300211B1A0800F5
:1005E8001B2BDCDC9E3221009440D940631E9C41C9
:1005F80021434B0704D00F230B40042B00D00431B8
:1006080080230800DB041840194209D1C908C6E74D
:1006180080270295FF03D8E7039B02932700D4E7BE
:1006280000210120BBE7C046FFFFFFF7410243005E
:10063800C20F490A00201B0E7E2B03DD9D2B02DD15
:10064800084BD0187047802000040843952B05DD1F
:10065800963B9840002AF5D04042F3E79621CB1A02
:10066800D840F7E7FFFFFF7F70B503000400051EC1
:100678000ED0C21785185540C40F2800FFF7BEFDDD
:100688009E231B1A962B0ADC08282BD00838854095
:100698006D026D0AD8052843E407204370BD992BE5
:1006A8001BDD020029001B3291400A00511E8A41BD
:1006B8000521091ACD4015430B4A2A4069070FD076
:1006C8000F210D40042D0BD00432D508510107D558
:1006D8009F23064A1B1A1540DAE7421F9540EBE7AD
:1006E800D508D5E79623D3E7FFFFFFFBFFFF7F1F62
:1006F800D0400B00D1409C46203AD3401843524288
:1007080063469340184370479140030090409C46CD
:10071800203A9340194352426346D34019437047E5
:1007280010B5002903D1FFF769FD203002E0080069
:10073800FFF764FD10BDC046F7B5040C0D0091B27B
:100748000F0061438C460600019383B2100C5F438F
:10075800444358433B0C60441B18994202D98021FA
:1007680049026418019955437143180C04191B0474
:10077800BFB24919D819091903B0F0BDF0B587B04F
:1007880006000F00059204938B4200D966E001D160
:10079800824263D804990598FFF7C2FF3900019097
:1007A8003000FFF7BDFF019B04991B1A1A0005983A
:1007B8000193FFF7A9FF04000D00B94246D801D103
:1007C800B04243D801200021019AFFF79DFF361B54
:1007D800AF4102900391019B002B2ED0E9076208DC
:1007E8000A4301996B088C4601240025BB4232D884
:1007F80001D1B2422FD830003900801A994100182F
:1008080049410019694106000F00012149428C4401
:1008180061460029EAD1029C039D30003900019A03
:10082800FFF766FF019AA4197D4106000F00FFF744
:100838006BFF241A8D41029403950C9B002B01D069
:100848001E605F600298039907B0F0BD0022002384
:1008580002920393BFE7B6197F41D6E7002300242D
:1008680002930394E9E7000010B500F0CFFA00F016
:100878002FFB00F0AFFB00F07DFC00F0B9F8064854
:1008880003F0C5F900F0D4F800F014FC00210A20A8
:1008980003F0F3FDF6E7C046524E000873B50400B6
:1008A80083685B6C002B14D1A3685B6B002B14D19D
:1008B800A3689B69002B15D1414A424C13682078E4
:1008C80001331360052807D8FFF7F2FB121A22300C
:1008D8003E4E98470028E7D173BD2000984700286E
:1008E800FAD0E5E769460122200007319847E3E797
:1008F8006B4607331B78AA2BEED1A93B2370EBE795
:100908006B4607331B78553B5A4253415B00F5E76A
:100918006B4607331B78012B04D0DA1E022A01D953
:100928000023EBE7284A13700323E7E76B460733F6
:100938001B78102BF4D80021244A1370244A117014
:100948005A4253410433D9E76846214A073011789F
:1009580000784B1CDBB213701E4A50541B4A1278A5
:100968009A42B9D80523C9E7174B1A4E1878174B7E
:1009780001001A7800235140DDB2AA4217D86B460D
:1009880007331B788B4216D11349144D0B6801337A
:100998000B602B78002BC3D1114B0E491870114BEB
:1009A80011481A7003F0EAFD01232B70B8E7F55CD3
:1009B80001336940E0E70D4A136801331360AFE77C
:1009C80014030020860400208504002084040020ED
:1009D8007304002074040020100300207204002017
:1009E8007104002070040020600400200C03002023
:1009F80010B50C480C4C206003F0E6FC00280FD022
:100A080020688368002B05D09B6C002B02D0002245
:100A180006499847206883689B6A002B00D098474E
:100A280010BDC046C448000820030020A5080008DF
:100A3800F0B50025964B93B006931B78AB4200D1D6
:100A480086E0944B08AC1B7820000793924B93499F
:100A58001E78257032006570A570E5702571657186
:100A6800A571E57103F08AFD0022A35E2778039340
:100A78000222A35E04930422A35EE4880593069BE6
:100A88001D70079B581E042862D8FFF711FB0361ED
:100A980054B5C900082E5BD103980A21FFF758FB0B
:100AA8000A2103B2049803930C93FFF751FB0CAD92
:100AB80003B26B6005980A210493FFF749FB07B25C
:100AC8000A21AF6020B2FFF743FB06B233003A00B9
:100AD80004990398EE6002F0F8FF03F038FD0A224B
:100AE8000023FFF7A9FB6E4B6E4C1A782060002A92
:100AF80004D000226C481A7003F089F86B4C10225D
:100B08002100280003F04BFD002821D0230007CD49
:100B180007C32A6866481A60039B049A13433B4339
:100B2800334300D16FE03B006248049A0399009672
:100B380003F06DF80CE0012E0AD1380000F0D6F968
:100B48005D4A0F2F00D85D4A39005D4803F05FF811
:100B580003F0FDFC0A220023FFF76EFBFA21594A35
:100B680004001368C900C31A8B4210D34C4B564972
:100B78001B781460002B00D05449554B55481A680F
:100B8800554B1B6805685548009503F040F8FA2254
:100B9800444B52001B68E31A93420AD3404B1A781D
:100BA800002A06D101321A7000F084F94C4803F08B
:100BB8002EF84C4A1368E31A132B1BD94A4B1460BE
:100BC800002110220DA80C9303F0E1FC002312224F
:100BD8000CAD5919097901334A40102BF9D1002479
:100BE8002A75424B295D1868836801345B68984709
:100BF800152CF6D113B0F0BD012EA9D1012F05D1C6
:100C080000F010FA3A4803F002F8A1E7022F03D1E6
:100C180000F022FA3748F6E700F038FA3648F2E7EB
:100C2800082E95D10398FFF71FFD3449FFF724FBE1
:100C38002200011C012000F003FB0498FFF714FDBB
:100C48002E49FFF719FB2200011C022000F0F8FAD8
:100C58000598FFF709FD2949FFF70EFB2200011C43
:100C6800032000F0EDFA0A210598FFF771FA0A212E
:100C780005000498FFF76CFA0A2106000398FFF7AD
:100C880067FA1F4F01002B003200380000944FE72D
:100C98007204002071040020700400206004002009
:100CA800500100201C030020814E0008F80200209B
:100CB800984E0008AD4E0008734E00086E4E0008AE
:100CC800D54E0008080300207E4E0008794E000823
:100CD800140300200C03002010030020794F0008A3
:100CE800A14F000818030020AA5502102003002075
:100CF800F24E00080C4F0008274F00080000204162
:100D08003F4F0008F0B543688BB005910393838982
:100D1800046885680493A36820005B68039908AA9F
:100D2800984700282BDB089E099F280032003B00CB
:100D38000021FFF701FD0023144A0691FFF77CFA12
:100D4800069A134B050007909A421AD832003B00C6
:100D580000210598FFF7F0FC00230C4A0E00FFF76E
:100D68006BFA0B4903008E420BD89D420CD30499B1
:100D7800A2680091166820002A000399B0470BB0BA
:100D8800F0BD86204042FAE71620FBE700CA9A3BEE
:100D9800FFC99A3B0A00F8B504000B000D00643245
:100DA80027DA64256D42164AE10088585218012155
:100DB8001279DB439140134ADB0F165D02697340D9
:100DC80012680A40571EBA419A4216D08368DB68F7
:100DD80098470D4A2401EB171419ED18A0685D40D7
:100DE80068436421FFF76EF901002000FFF78AFFCE
:100DF800F8BD6429D7DD6425D5E783681B69E7E773
:100E0800D04A000845520008F04A0008F0B500260C
:100E18000127254D254C85B0286803F0D5FA002810
:100E280003D11320404205B0F0BD206803F0CCFA8E
:100E38000028F6D023792068E288009383689C46CE
:100E480003690193D0235B0353403A4202D1B02394
:100E58005B031343164A00991A400392019A1268D9
:100E680002923A008A401100029A8A433B4203D018
:100E78000B00029A13431A001300019A0099136099
:100E88006346039A1B6898470028CCDB002128009A
:100E9800FFF738FF0028C6DB013610350834042E6A
:100EA800BAD10020BFE7C046F04A0008D04A00087F
:100EB800FFFFEFFF10B50024044B20010021C018EC
:100EC8000134FFF71FFF042CF6D110BDF04A0008CB
:100ED80010B5054803F078FA002801D0002010BDAD
:100EE80013204042FBE7C04618490008F0B504004B
:100EF80087B020480121836804AA5B6898470028C6
:100F080031DB049E059F00231B4A30003900FFF7A0
:100F180013FC0023194A0D00FFF78EF9184B0290B5
:100F280003909D421FD81E2C1FDD1E240025154846
:100F3800154B60433200C01829003B00FFF7FCFB4B
:100F480000230E4A0C00FFF777F90D4903008C4285
:100F580009D80399994206D3064800958268012169
:100F68001468029AA04707B0F0BD0A2CDEDA0A24FA
:100F7800DCE7C04618490008002D310100CA9A3B39
:100F8800FFC99A3B204E000020A10700F7B58368EF
:100F98009C460369D40207D5C0252D032A4203D0F5
:100FA800D407E4172C40624001273D00084C1E6816
:100FB80014408D4001943400AC433A4201D03400CF
:100FC8002C431C6063461B68019A9847FEBDC046C7
:100FD800FFFFEFFF10B5114C200003F0F5F90028D2
:100FE80002D11320404210BD200003F0EDF9002883
:100FF800F7D0B022082120005203FFF7C7FF0028CE
:10100800F1DBB022092120005203FFF7BFFF0028BF
:10101800E9DB0020024B1870E5E7C04638480008B5
:101028008704002010B50121074802F06BFD00215C
:10103800064802F067FD02F05DFD0122044B1860CE
:10104800044B1A7010BDC046384B0008304B0008DE
:10105800240300208704002010B50021074802F06F
:1010680051FD0121064802F04DFD02F043FD012229
:10107800044B1860044B1A7010BDC046384B00086A
:10108800304B0008240300208704002010B50021FD
:10109800054802F037FD0021044802F033FD002224
:1010A800034B1A7010BDC046384B0008304B00087F
:1010B8008704002010B5074B1B78002B09D002F0DD
:1010C80019FD054B1B68C01A044B984201D9FFF75C
:1010D800DDFF10BD8704002024030020B70B0000AB
:1010E80013B5040083685B6C002B14D09847002864
:1010F80011D113BDA3689B69002B0CD0694601224E
:101108002000073198470200012804D16B460648A1
:10111800D91D02F0D7FDA3685B6B002BEAD0200035
:1011280098470028E6D1E4E7B800002070B505002C
:1011380003F00DFA0A220023FFF77EF804000122CB
:1011480029000B4802F0DEFD01280ED0642003F0D0
:1011580014F903F0FCF90A220023FFF76DF8001BCD
:101168003128ECD97420404270BD0020FCE7C0460D
:10117800B800002070B50F4C200003F025F90028B6
:1011880014D0A568EB6A002B01D020009847AB6CFF
:10119800002B03D00022200007499847A3689B6AC8
:1011A800002B01D020009847002070BD132040423A
:1011B800FBE7C0468C480008E910000870B51C0021
:1011C80086B01C4B02AE3380E31CF37033003171E0
:1011D800B070111901338A4228D102230022611DFF
:1011E800C9B2F05C01331218D8B292B28842F8D36F
:1011F800D243002533195A710F4B0634E4B25D60AF
:101208009D60DD60715D0D48013583685B689847B6
:10121800EBB2A342F6D300256B460135D81DEDB2DB
:10122800FFF784FFAC42F7D806B070BD10780132E2
:101238001871CFE755550000B80000208C48000809
:1012480073B50400081C09491600FFF7F7F80849A8
:10125800FFF712F8FFF7EAF901AD28802A00042306
:10126800012120006E80FFF7A9FF73BD00007A44BA
:101278000000704310B5024B1B68984710BDC0466C
:10128800CC000020014B18607047C046CC000020FD
:101298007FB505000E0010220021684603F077F99B
:1012A8006C460223A370044B320029006846019360
:1012B80002F0C8F97FBDC0467D12000880210220D7
:1012C8000A4BC9039A6982B00A439A619A690A402B
:1012D80007490192019A4A68824300204A609A6944
:1012E80004490A409A6102B07047C04600100240A3
:1012F80000580140FFFFBFFF10B5416807480C3197
:1013080083681B68002B03D09847002803DC10BDB6
:1013180058204042FBE70020F9E7C0469047000804
:1013280010B5192802D90024200010BD044B8000F4
:10133800C458200003F048F80028F5D1F3E7C04668
:10134800B84B000810B5EFF3108472B60A4B1A6850
:10135800002A08D18020094A400011680143116021
:1013680011680142FCD01A6801321A60002C02D1BF
:1013780062B6BFF36F8F10BD8C0300200070004071
:1013880010B5EFF3108472B60C4B1968002909D117
:1013980001220B4803F0DFF8002C02D162B6BFF33C
:1013A8006F8F10BD012904D1064907480A68024019
:1013B8000A601A68013A1A60EEE7C0468C030020FA
:1013C8008803002000700040FFFEFFFF0649074A1F
:1013D80010B5521A064803F0D1F80323054A1168DC
:1013E8000B43136010BDC04600000008B800000899
:1013F80000000020000001401023044A11680B433C
:101408001360034B034A1A607047C046002002402D
:101418004001002000127A00F7B504000D001E00FC
:10142800019201F095FE030000F038FA054F3200F2
:101438003B5001992800A04700F030FA385800F0D6
:10144800B1F9C0460800000010B5034A034800215E
:10145800121A02F0CBFC10BD8C0400208801002079
:101468000648074A10B5121A064902F0C3FC064A94
:1014780006480749121A02F0BDFC10BDB80000204A
:10148800840100209C520008B8000020B800002009
:101498009C52000870B505000C1E13D08B684A6872
:1014A8000F48096802F0B3FB0E4863692269E168D6
:1014B80002F0ADFB0C48E16902F0A9FB0B48A169F9
:1014C80002F0A5FB012D05D1EFF30581084810397D
:1014D80002F09DFB2800210001F056FB70BDC046BC
:1014E800315000086150000891500008A1500008D0
:1014F800D050000830BFFDE7F7B50A4B0A4D06008B
:10150800EF18CC1B2A0020000849019303F036F895
:1015180060190021019A03F03AF83800083C746613
:101528000830FEBD0400000000000000C84A0008A2
:10153800F0B5314B04005F6889B0FD05ED0D62B66A
:10154800BFF36F8F130EFF2B06D1F33B1340082B0D
:101558003BD12A4802F05BFB00263400032D3AD128
:10156800274802F054FBA369264A934202D3264A2D
:10157800934205D3254A934238D3254A934235D21C
:10158800023B1B88FF221800DF2190430902884292
:101598002CD11340022B29D11E48216802F037FBB9
:1015A800276820222100684602F0E8FF6D46079B65
:1015B800002E1DD0DA0502D1174A1343EB6129002A
:1015C8003800FFF767FF09B0F0BD01261207C5D53F
:1015D8000C000026C2E7F8235B0010491F4200D127
:1015E8000F492A000F48103A02F011FB0027D8E7EC
:1015F8005B0A5B02E2E7C04600ED00E0125100081A
:101608003E510008B8000008E8460008B80000206D
:10161800B800002056510008FF010000F9500008EA
:10162800E4500008735100080821024A53698B43AB
:101638005361704700ED00E0EFF30880EFF3098194
:1016480001B57246FFF774FF01BDC046094880F333
:10165800088872B608480949401880F30988EFF3EA
:1016680014800221084380F31488BFF36F8F02F0BF
:10167800D7FB000090110020900400200008000013
:1016880004207146014202D0EFF3098001D1EFF343
:1016980008808169023909780229FFD001B57246AC
:1016A80002F0ACFB01BDC04643B2000605D41F22C0
:1016B8001A4001239340014A1360704700E100E09B
:1016C80030B5FF2503220B00290040B20240D200AA
:1016D80091409B012B40C943934000280ADBC0245A
:1016E8000A4A800880008018A40002590A4013435F
:1016F800035130BD0F2210400838054A8008800089
:101708008018C26911401943C161F2E700E100E0A5
:1017180000ED00E010B5203A1360029B01245360ED
:10172800039B06499360049BA143D36080235B0419
:10173800D361002391610265836610BD21140008FE
:1017480070B50B4B15009860426E0A4B0E001A607C
:101758002C1C86F309880020034B9847201C002185
:1017680000220023014C2047453E000821140008B0
:1017780034040020900300201022014B1A617047A6
:1017880000ED00E0054B5A699B689A4205D080231A
:10179800034A5B0551680B435360704734040020CB
:1017A80000ED00E010B50A4B9B6883420DD1EFF3C2
:1017B8000583002B09D08022064B520559680A433D
:1017C8005A605A6A04490A405A6201F0C7FC10BDBF
:1017D8003404002000ED00E0FF7FFFFF15498A6810
:1017E80015481044EFF3098CF0C043464C46554663
:1017F8005E466746F8C072B6104F114E4A698A6055
:101808003E60104C141920680F4C2060906E002325
:101818009366002800D162B6074C10191030F8C83A
:101828009846A146AA46B346BC462438F0C88CF36D
:1018380009887047340400203000000004ED00E0FF
:10184800000000086400000090030020F0B5C024E8
:1018580000220326FF25A40010002F003040C000FE
:101868008740054993089B005B1819590132B94311
:1018780019511E2AF0D1F0BD00E100E010B5EFF3D8
:101888000583054A103BDB00D118496898588847FA
:10189800FFF778FF10BDC0463449000801480068CA
:1018A800704700009003002010B5024B1B68984752
:1018B800002010BD94030020034B044A1860022343
:1018C80091780B439370704794030020D000002058
:1018D800072310B50449054A99430548521A02F0EE
:1018E80054F9002010BDC046D71100200040002048
:1018F8009803002013B56A46064B694611CB11C2FE
:10190800054883681B68002B01D0984716BD5820EE
:101918004042FBE7C84A0008904700080200002040
:101928001F2A08D801239340034A50691840C01A57
:1019380043425841C0B27047000401401F220123AE
:10194800024093401F2803D80020034A5361704780
:1019580016204042FBE7C04600040140F8B50600E7
:10196800002501277378AB4200D8F8BD3478641994
:101978002000FFF7D3FF00280ED02000FFF7DEFF7E
:10198800074AE1008B58002B06D052181F21380057
:101998000C40A040516898470135EDB2E2E7C046D7
:1019A800A40300200022052010B50C4C1100207063
:1019B8006070FFF785FE002206201100A070E0701D
:1019C800FFF77EFE0C220721054802F0E0FD002209
:1019D80007201100FFF774FE002010BD5101002000
:1019E8005501002010B50400FF20002C05D0200070
:1019F800FEF704FC1F23181AC0B2044B1856044BF8
:101A08001A6814431C60FFF74FFE10BD51010020F7
:101A180000040140024A1368834313607047C046BC
:101A280000040140020000B5080003290AD80E4B43
:101A3800FEF73EFB02090C13996891439960D96837
:101A48009143D96000BD99681143F7E7D9681143FC
:101A5800D960996891439960F4E79968114399604E
:101A6800D9680A43DA60EDE70004014070B5FF2346
:101A78000D001400002804D0FEF7C0FB1F231B1A1A
:101A8800DBB2094AD8008358AB4203D11118496820
:101A9800A14204D0002B04D1155012185460002024
:101AA80070BD10204042FBE7A4030020FF2310B5BF
:101AB800002804D0FEF7A2FB1F231B1ADBB200216B
:101AC800024ADB009950D218516010BDA4030020CF
:101AD800032310B50F2403409B009C409940044AFF
:101AE8008008800080188268A2430A43826010BD83
:101AF80000000140032303408008054A02308000AB
:101B080080580F229B009A401040D8407047C0462A
:101B1800000001400B8813B50C481B051A0D1B1853
:101B28001B0D082B0ED80A4C486813191A68024373
:101B380000201A600B881B051B0D1B191B680193DD
:101B4800019B16BD86204042FBE7C0460000C0FE50
:101B5800001002400B8809481B051A0D1B181B0DA5
:101B6800082B07D80020064B4968D3181A688A43FF
:101B78001A60704786204042FBE7C0460000C0FE5E
:101B88000010024070B51E4B0D0018680B88140039
:101B98001B051B0D1C2B09D8062B0AD8042B05D8AE
:101BA800022B20D8012B16D0022B1ED086204042B3
:101BB80018E001229A4013490A420BD112490A42FD
:101BC80009D1092BF2D100F001F9002816D000F054
:101BD800FDF800E040088023206029685B019942F5
:101BE80006D2002070BD0020F5E780200002F2E751
:101BF800090B0131FEF766FA2060F2E70520D6E707
:101C080040010020800000110001100070B5088814
:101C18004C680005E502000DA6B2ED0E02F025F9AC
:101C2800002812D1FF2C0FD0094BF21801236602AD
:101C3800B60F0136B340013BAB401168240E9943FF
:101C48000B00AC402343136070BD86204042FBE785
:101C5800001002400B880A4A1B05180D9B1810B586
:101C68001B0D082B08D8074BC01803684868984311
:101C780043425841013010BD02F0F7F8F8E7C0467A
:101C88000000C0FE00100240F7B5414E00F0A2F877
:101C9800300002F0F9F800F025FF3E4C3E4A636838
:101CA80035001B061B0FD35CD840137801901D41EB
:101CB800A84202D2280000F04BFF80232268DB02F2
:101CC80013432360802322685B021343236080232D
:101CD8009B0222681A42FCD0FFF734FB012302273B
:101CE800226A13432362236A3B42FCD0FFF748FB76
:101CF8000C2263681340082B16D123683B4207D196
:101D08000123226813432360022322681A42FCD06D
:101D180003226368934363600C2362681A42FCD110
:101D2800F022636893436360802723681B4ABF04DB
:101D38001340236023683B42FCD100F035F8802330
:101D480022685B041343236023683B42FCD0F022E3
:101D5800636893436360032362689A43013B1343B8
:101D68000C22636063681340082BFBD1019BAB42D4
:101D780002D3280000F0ECFE094B00201E606268C8
:101D8800084B1A408023DB0013436360FEBDC04646
:101D9800006CDC02001002406B520008FFFFFFFEDF
:101DA80040010020FFF8FFFF064B074A5968114021
:101DB800882252030A430F215A60DA6A8A43DA6298
:101DC8007047C04600100240FF7FC2FF00487047BE
:101DD800006CDC0280210A4B4905DA6982B00A43AB
:101DE800DA61DA690A4001210192019A9A690A4383
:101DF8009A619B690B400093009B02B07047C046F4
:101E08000010024010B5084802F0DEFA002808D099
:101E1800064C2000FFF750FD2000FFF733FA0020A2
:101E280010BD13204042FBE7A8480008391E0008EF
:101E380070B50400074D0A2804D1AB680D212800AD
:101E48005B689847AB6828005B68E1B29847200058
:101E580070BDC046A8480008F7B547680600B868CE
:101E68001D0001920C0001F0FBFF8023019A0090F5
:101E78009B039A4215D12000BD68FFF73BFE8542BF
:101E88000DD12100280001F0EBFF0400FFF7C2FD8F
:101E98002000FFF70BFE00212000FFF7C3FD002004
:101EA800FEBD8023019ADB039A4223D08023DB0402
:101EB8009D421BD0C023DB049D4219D080239B0484
:101EC8009D421AD1022532000E490098FFF7CEFD37
:101ED800002814D12000B968FFF7FAFD00982900FE
:101EE800FFF7A0FD0098FFF77DFDD8E70125EAE799
:101EF8000325E8E786204042D2E71620FBE71020BA
:101F0800F9E7C0461B400008F7B5040008001900AF
:101F180008AB1B881700019363689C461E68431E24
:101F2800032B16D88024E405A64204D0802464023A
:101F3800A24200D9DEE0704C9B001D59009300249A
:101F4800042801D06D481C58019BD80504D5002CE5
:101F580003D11620404206E02C00002F04D1336A3A
:101F6800A34333620020FEBD63469868002800D072
:101F780085E0013F0120019A0240530001930322AA
:101F8800402C0BD000D98AE00200042C06D002189D
:101F9800102C03D00432844200D10022584B306AFE
:101FA8009A5C022393409843019B9340554A1843F7
:101FB800009B3062D35830009847F762336A234059
:101FC8009C42CFD00323402D0AD074D8023B042D65
:101FD80006D00133102D03D00433012D00D1002386
:101FE8003000494F1830FA5C0090121847481168C1
:101FF800C35C01909C4673236046834099430B0061
:10200800602181400B4313600323402C0AD05DD824
:10201800023B042C06D00133102C03D00433012CCE
:1020280000D100233A4A7168D35C80225200100024
:10203800984081437160336A1C438023346231685D
:102048000B4333600323402D0AD04AD8023B042DAA
:1020580006D00133102D03D00433012D00D1002305
:102068000198FA5CC05C08238340009952181168F3
:102078000B431360012372691343736172E71028DD
:1020880001D1013975E740239C460300624693431A
:10209800202B01D060452DD149087F086AE78020B0
:1020A80004224000844200D178E71A4BE218501EFF
:1020B8008241053272E780220423520095428FD074
:1020C800144BEB185A1E9341053389E780220423E9
:1020D80052009442A6D00F4BE3185A1E9341053381
:1020E800A0E704239542BBD00A4BED186B1E9D4117
:1020F8006B1DB5E786202DE7244D0008184D000814
:1021080056520008084D0008645200085D52000845
:102118004F52000800FCFFFFF0B55C4B85B0009300
:102128009B68466801931B68076934687169002BCE
:1021380002D158256D42A1E000989847051E00DAA3
:102148009CE0B369012B00D89BE0019B71699B69F6
:102158000831002BEDD0002200989847051E00D0CA
:102168008CE0019B7169DB680831002BE1D0009895
:1021780002AA984700280FDB029B7868B9683B6081
:102188008368DB68002B00D098470021F06903AA18
:1021980001F058FF002801DA05006FE0039B0022D8
:1021A8001979186801F061FF0028F5DB7368384A6F
:1021B800A3620023E362944212D08023DB059C4291
:1021C8000ED0344B9C420BD0334B9C420FD123682A
:1021D80032490B402360944219D10023236336E02F
:1021E800702123688B43B1680B432360EFE72C4BC6
:1021F8009C42ECD02B4B9C42E9D02B4B9C42E6D026
:102208002A4B9C4223D02A4B9C4220D007E0244BE7
:102218009C42E2D0234B9C420FD1002323633369B5
:10222800002B08D11F4B9C4219D01F4B9C4216D043
:10223800F368002B1ED086257CE71B4B9C42ECD014
:102248008023DB059C4202D0124B9C42D8D17021DE
:1022580063688B4331690B436360944213D1FF2257
:10226800636C9343F268134363648023626C1B02BC
:10227800134363640123226813432360280005B0D5
:10228800F0BD162556E7064BD0E7C0469047000834
:10229800002C01400004004000200040FFFCFFFF2C
:1022A8000040014000440140004801400010004047
:1022B8000014004043681B68EFF31081012282F389
:1022C8001088986802439A6081F310880A4A9342FA
:1022D80002D00A4A934203D1402259680A435A60FD
:1022E800EFF31081012282F310881868FF3202434D
:1022F8001A6081F31088704700380140004400409C
:1023080043681B68EFF31080012181F310889A68F5
:102318008A439A6080F310880A4A934202D00A4A94
:10232800934203D140215A688A435A60EFF31081DF
:10233800012282F3108805481A6802401A6081F366
:10234800108870470038014000440040FFFEFFFF3E
:1023580037B503000D1E046802D11620404218E06C
:10236800406819698368DB68002B13D001AA984775
:1023780000280EDB2368084A680813402360019B85
:102388002900C018FDF79EFE0F28E6D980B2E0604C
:1023980000203EBD5820E1E7FF7FFFFFF7B50200B0
:1023A80013690C001D680B794068012B13D0991E26
:1023B8004E427141890200916679022E0ED84A4F29
:1023C8007600F75BA679022E0BD0042E2ED05E1E67
:1023D800B3411B0308E0C021C900ECE78027BF0117
:1023E800F0E75E4273411B07E6790196012E20D083
:1023F8000026B4460068A5421ED104683B4E0099E9
:10240800344021430B430360436839490B403B4345
:1024180043605368374819688B6803406046034334
:102428008B6029685068FFF793FFFEBD80235B012E
:10243800DAE7C026B600DCE7C0210668C9000E400E
:102448000099B14205D006682B490E4000990E4309
:102458000660C0265168B6010868416831408F425D
:1024680004D04168224E3140394341605168234EBF
:102478000868016831408B4204D00168204E314021
:102488000B430360C0205368800019688B680340C1
:102498009C4505D08B6817480340604603438B6012
:1024A800019853680338464270411B68996849048B
:1024B800C90F884207D00199032911D18021986852
:1024C800C9010143996021682B6800209942ACD06A
:1024D8005068FFF73DFF0028A7D123682B60A4E7C9
:1024E800996808480140EDE74C4E0008FFE9FFEF06
:1024F800FFCFFFFFFFFCFFFFFFF9FFFF00100010F9
:10250800FFEFFFEFFFBFFFFFF0B543680700586814
:1025180085B01969019383681B68002B00D19EE080
:102528009847051E00DA97E0019B0021586A03AA24
:1025380001F088FD051E00DA8EE0039B0022197960
:10254800186801F092FD051E00DA85E001227E6818
:102558003B6934681D68236893432360B06801F0C1
:1025680033FF002800D17CE0B068F1688368DB683D
:10257800002B00D09847EFF31082012383F31088D3
:1025880021680B330B43236082F31088290038003D
:10259800FFF704FF051E02D016256D425CE0337E6E
:1025A800002B03D00823A2681343A360737E002B7B
:1025B80004D0802362681B0213436360B37E002B40
:1025C80004D0802362685B0213436360F37E002BB0
:1025D80004D0802362689B0213436360337F002B1F
:1025E80028D0214B9C4208D0204B9C4205D0204B40
:1025F8009C4202D01F4B9C42CED17B681A68802334
:102608009168DB010B4393602268737F1A495B056D
:102618000A40134323602268B37F18491B040A4009
:1026280013432360F37F002B04D08023A2681B028E
:102638001343A360012322681343236080239B0371
:10264800E2691A42FCD08023DB03E2691A42FCD01B
:10265800019B38009B6A9847280005B0F0BD5825B3
:102668009BE7132599E7C046003801400044004025
:1026780000480040004C0040FFFF1FFCFFFFE0FF48
:10268800F0B5436885B01C68036906001B680D0037
:1026980003930B79012B1DD09A1E51424A41920295
:1026A80002926A790192022A17D80199304A4800A1
:1026B800825AAF79022F13D0042F02D00020834210
:1026C80018D080204001D91E01290FD88620404209
:1026D80005B0F0BDC022D200E2E780229201E8E70F
:1026E8000020002BEFD18020400503E0002B01D013
:1026F800042FEBD080235B019C460023624509D060
:10270800C0239B019C460223624503D0013B002A5B
:1027180000D00233019A9A42D8D1029901F032FDD1
:102728008742D3D1EB79002B0DD0012B1CD1114B53
:102738009C4208D0104B9C4205D0104B9C4202D0C2
:102748000F4B9C42C2D1012723682900BB433000AC
:102758002360FFF723FE0028B8D123681F43039B9B
:10276800276006CD06C3B3E7032BE0D0AEE7C0462B
:102778004C4E00080038014000440040004800402A
:10278800004C004070B50369C0221B680C001B6830
:10279800D2000B608021436805001B68C9001B68D4
:1027A800134002228B4204D01C4A9B185A425341C0
:1027B800DAB2C021802022716B6889011B6800226F
:1027C8005B6840010B40834206D002328B4203D043
:1027D800013A002B00D0023262716B681B681868DE
:1027E8001968C023DB0019400D4B184001F0CAFCE2
:1027F800C022A0716B6892001B689B681340094A4D
:102808009B185A425341DBB2E3716A6812689268B6
:10281800520400D503230020E37170BD00FAFFFFC6
:102828000010001000FDFFFF70B543680D001C6824
:10283800C02320682168DB001940114B160018409E
:1028480001F0A0FC042817D08023E26900201A4276
:1028580011D0EFF3108272B6311A002906DDE16952
:10286800194203D0295C01302185F5E7002A02D1FD
:1028780062B6BFF36F8F70BD86204042FBE7C0464B
:102888000010001070B543680D001C68C023206854
:102898002168DB0019400D4B1600184001F072FC4E
:1028A800042810D0002020220823311A00290CDD2A
:1028B800E169114209D0A18C2954E169013019421A
:1028C800F3D02362F1E78620404270BD001000106B
:1028D80030B50C490C4A8C6812680D688B68002C5E
:1028E80000D11400002B00D113000848ED0301D4D7
:1028F8009C4203D20468A418046009680068801820
:10290800C01A30BD10E000E030040020240400208C
:10291800094A0020136A1B021B0A13629622074BFE
:1029280052011A60064B074A1860074B5A60072283
:1029380098601A607047C04600ED00E0300400203F
:1029480024040020BF12000010E000E070B5FFF77B
:10295800BFFF0E4B0E4A186811680E4C40181060E5
:102968009621002225681A60401B4901FDF7AAFB41
:1029780096235B0143435B192360EFF3108172B622
:1029880000F0D8FDFEF7FEFE70BDC046240400200E
:102998002C04002028040020F0B5334D334E85B0B8
:1029A800002953D0431C08D101222B6893432B6084
:1029B800FF231B06336005B0F0BD33680193002781
:1029C800012848DCEFF31083039372B6FFF780FF0A
:1029D8000022AB680293264B1C68264B04191A6028
:1029E800254B1B680093E01A90423ADB96235B0163
:1029F8005F43224AC01919008018FDF763FB96232C
:102A08005B015843009B1B1B18188023DB0098426E
:102A180000D218001A4B984200D9180000233060E1
:102A28000138A9686860AB60029B02985A1AA3181B
:102A3800884202D2019B9B181B190D4A1360039B05
:102A4800002BB8D162B6BFF36F8FB4E73368019338
:102A5800431CB4D10B480C4B984200DD1800471EAC
:102A6800B0E78020C000D9E710E000E03004002083
:102A78002C0400202404002028040020BF12000099
:102A880080E8FF00A60D0000A70D000070B5EFF369
:102A9800108572B6084A094B14681B68E41AFFF7D8
:102AA80017FF0019002D02D162B6BFF36F8F962170
:102AB8004901FDF707FB70BD2C0400202804002005
:102AC80070B5EFF3108572B6054B1C68FFF700FF71
:102AD8002018002D02D162B6BFF36F8F70BDC046BB
:102AE8002C0400200C2070B5134D6B681840082882
:102AF80008D00C3843425841104B40421840104B04
:102B0800C01870BD0F200F499A0C02408C5CEA6A0D
:102B18000D490240895CC0228020520213404002C5
:102B2800834201D1064802E09342FBD10748FDF7F2
:102B3800C9FA6043E5E7C04600100240005A620245
:102B480000127A008B5200087B520008006CDC02ED
:102B580002000120002A0FD0094B0A4993429B41E9
:102B68000A685B4282431A430A600A6802409A4232
:102B780003D00A681040584070470020FCE7C04660
:102B880000366E010020024070B5EFF3108572B672
:102B9800064B9C6801F028FC002D02D162B6BFF3F9
:102BA8006F8F2000FEF7FEFD70BDC0463404002084
:102BB800F8B501270A4E83009D5901308400335926
:102BC800AB4200D8F8BD6868002806D0037E3B42B7
:102BD80001D101F0E0FB0835F1E72B689847FAE7E7
:102BE800344E0008012270B5234B86B003201A70BA
:102BF800FFF7DEFF00F01EFD0420FFF7D9FF1F4C92
:102C080026001F4DAC420ED300F0E6F9AE4220D3A9
:102C180000F0F2F9FDF728FE01211A4A93898B4347
:102C2800938106B070BD636A0593236A0493E369D0
:102C38000393A36902936369019323690093E3688B
:102C4800A2686168206800F0ADF823685C653034DC
:102C5800D7E7B26AF36A511C01D1591C05D011009B
:102C68003068194303D101F01EFC3036CEE706491F
:102C7800183000F0CFFBF8E788040020244A000849
:102C8800244A0008F80100206944000870B570263D
:102C9800012504004643010211488022091800203A
:102CA80086B004950E350395053565430D4B0590A3
:102CB800029001900C48F6182D180C4B3000009526
:102CC800520000F06FF80422337C2C749343337461
:102CD8000134074BE402E418EE606C6006B070BD86
:102CE800900C00208801002034040020F7430008DD
:102CF80090040020F0B5002087B0FFF759FF204B63
:102D080083F308881F49204B0A6A00251A40C0230C
:102D18001B0413430B62FEF787FCFEF72DFD1B48CF
:102D280000F07AF8FEF768FB0120FFF741FF022068
:102D3800FFF73EFF00F088F9154C164B80225C61C6
:102D4800154B164E0593012315490493D200330001
:102D58002000039502950195009500F023F80422C0
:102D68000700237C20009343237401F05AFB2800BA
:102D7800FFF78CFF320039002000FEF7E1FCC04667
:102D8800900C002000ED00E0FFFF00FF680200202B
:102D9800F801002034040020F7510008ED2B00084A
:102DA800900D0020F0B587B0059303005833836574
:102DB800C365109B07278381042300250732BA4384
:102DC8000374D2190F9BBA4383738B180E00856066
:102DD8001900C5738561C56104000493FEF78CFB77
:102DE800049BC019B8431F1A0E9B3A0002930D9B0F
:102DF800310001930C9B20000093059BFEF78AFC91
:102E0800044B65659B68AB4200D01B6E3800236697
:102E180007B0F0BD3404002001230374838100232C
:102E28000366014B98607047340400200B21084A60
:102E380049429368D9669866802306495B054868C5
:102E480003434B6062B6BFF36F8F9368D86E7047C9
:102E58003404002000ED00E0102370B5C356027C56
:102E6800002B31DBD3062FD180235B4213431A4C4E
:102E78000374A3691949E2698B4207D10160426072
:102E88001060E0610FE09A42F8D01B68002BF5D083
:102E98000E260E259E574557AE42F4DD5A6803604C
:102EA800426010605860A5698D4201D0002D00D1A4
:102EB800E568A3681A7CD20607D1DA897F2A04D983
:102EC800AA69002A01D1636170BDAB4202D0280013
:102ED80000F008FA6561F7E7340400204C0400208C
:102EE800102270B582560500037C002A04DA7F227E
:102EF8001340037401F082FA0D4E0E4AB469B368A8
:102F0800944201D0002C00D1F468AB4208D01A7C5E
:102F1800D20605D1DA897F2A02D9A269002A05D00A
:102F2800A34202D0200000F0DDF92300736170BDD8
:102F3800340400204C04002010B500280AD1EFF317
:102F48000580002807D1064B5A699B689A4202D02F
:102F5800FFF76CFF10BD62B6BFF36F8FFAE7C0468C
:102F68003404002070B51A4CA168E3690A68CB1ACA
:102F7800581E834149685B420A6051601340E16909
:102F8800A268002B05D1134B516013600A60E261FF
:102F98000AE00E250E205D571056854213DD59684C
:102FA800136051600A605A60A5690A4B9D4201D0BE
:102FB800002D00D1E568A3689D4202D0280000F0EA
:102FC80091F9656170BD8B42DDD01B68D9E7C046B9
:102FD800340400204C040020EFF3108172B6054B36
:102FE8009A68D37B013BD373002902D162B6BFF341
:102FF8006F8F70473404002070B5EFF3108672B6F7
:103008000F4DAB68DA7B0132DA73AC690D4A944232
:1030180001D0002C00D1EC681A7CD20605D1DA89DF
:103028007F2A02D9A269002A05D09C4202D020003A
:1030380000F058F9230030006B61FFF77DFF70BD89
:10304800340400204C040020024B034A9A61DA61E0
:103058007047C046340400204C04002070B5EFF3DC
:10306800108572B61B4CA168E3690A68CB1A581E12
:10307800834149685B420A6051601340E169A26874
:10308800002B05D1144B516013600A60E2610AE01D
:103098000E260E209E571056864216DD596813607C
:1030A80051600A605A60A6690B4B9E4201D0002EFF
:1030B80000D1E668A3689E4202D0300000F012F901
:1030C80028006661FFF7B2FE70BD8B42DAD01B683C
:1030D800D6E7C046340400204C040020F8B50300AD
:1030E80007000C000B4303D1FFF7B8FF0020F8BD21
:1030F800EFF3108672B6134D134BA8681860FFF7EC
:10310800EFFEA86823003A001049183000F082F951
:103118000423AA680400117C30000B431374FFF7E2
:1031280085FEAB689A6A002AE0D18022DB6A120623
:103138009342DBD101F007FA201AC343DB1718408A
:10314800D5E7C04634040020540400206944000830
:10315800014B98687047C04634040020F7B583894E
:1031680004000193EFF31083009372B60823027CE6
:103178001A4206D0009B002B02D162B6BFF36F8FB4
:10318800F7BD1900114348B2002857DB2174A36822
:10319800002B02D0200001F039F920002600183059
:1031A80001F09DF95836A56DAE4201D0002D4DD1E4
:1031B800304F0025BB689C4204D1EFF305856A1E99
:1031C8009541EDB2BE692C4A964201D0002E00D13D
:1031D800FE68B34202D0300000F084F820007E611F
:1031E80000F029FE002D02D02448FFF715FEBB6829
:1031F8009C4238D1EFF30583002B34D1A389DB0738
:103208000FD5009B002B02D162B6BFF36F8F62B659
:10321800BFF36F8F0423181C02DFEFF310830093B2
:1032280072B60098FFF702FE019BDB07A8D562B6CD
:10323800BFF36F8F0423181C02DFA1E77F210A4028
:1032480013432000237401F0D9F8A0E7280001F007
:10325800DDF82800183001F042F900232800EB6659
:10326800FFF7FAFD9FE7009B002BDDD162B6BFF3A5
:103278006F8FD9E7340400204C0400206802002036
:1032880010B5047C1F21220003000A4000200C42D4
:1032980011D1094910008B420DD00849086800284F
:1032A80009D0D9897F2905D80E215956044B1B68A6
:1032B800994200DA100010BD880100204401002066
:1032C800580400200121044B044AC01A044BC010C2
:1032D8004343D1547047C046D802002089040020D7
:1032E800ABAAAAAA70B518250B4B1E7CFFF7C8FF1E
:1032F80075430A4B0400ED18280001F0F0F800228D
:10330800074B9A55944205D0621E28000549D317E9
:1033180000F080F870BDC04634040020D8020020B8
:1033280089040020CD32000870B5EFF3108572B61D
:10333800104A114B94681868A04207D1FFF7D2FFD2
:10334800002D02D162B6BFF36F8F70BD00211960E6
:10335800127C0A4B9B5C8B42F2D02000FFF790FF57
:103368000028EDD0237CDB0601D1FFF7FBFD200010
:10337800E4E7C046340400205404002089040020F7
:10338800024B1868984200D100207047480100207D
:1033980070B50600FFF7F4FF00280ED002694369F4
:1033A8003400F517121BAB41002B06DC01D1002AB3
:1033B80003DBD843C017104070BD0148FCE7C04686
:1033C800FFFFFF7F002010B5034B1B68834201D12C
:1033D800FFF75CFB10BDC0465C04002030B5002838
:1033E8000ED00B4B5B6898420AD00168002907D0C1
:1033F8000A694B690469456912196B410A614B6195
:103408000368426813605A6000230360436030BD5C
:1034180048010020F0B5040015001E0085B0531CBB
:1034280002D1731C00D17CE0A160EFF310830393F9
:1034380072B6002E26DBFFF7C5FF002100900120A1
:1034480040197141009AD31712184B41364922612D
:1034580063610868496812184B411E001500012372
:103468000293FFF78DFF0700304B9C465B68019382
:10347800002F1DD163462360019B63601C60634677
:103488005C6027E0284B1868596802225242D3171B
:10349800121A8B41521BB3411100002B04DC01D1DD
:1034A800002A01D101210023636121610023D7E7AC
:1034B8003869796922696369994202DC28D19042A6
:1034C80026D9801A99417B683861796163602760E1
:1034D8001C607C60FFF754FF84420FD1144B1B68BB
:1034E800002B0BD1029B002B02D1FFF76BFF009042
:1034F8000098FFF74DFF0021FFF74EFA039B002BC2
:1035080002D162B6BFF36F8F2800310005B0F0BD5D
:10351800121A8B4122616361019B9F42AAD03F68C6
:10352800A6E700250026EFE7F0020020480100206A
:103538005C040020F0B5050089B0314B03911D6093
:10354800FFF71EFF2F4904000A684B68E81704922A
:103558000593002C10D02669676900950190874271
:1035680002DC24D1AE4222D932003B00009E019FEA
:10357800921BBB41226163612A00049C059D0300E4
:1035880012196B4100240A604B601D4B20001C601F
:10359800FFF7FEFE2100FFF7FFF9039BA34202D1CC
:1035A80062B6BFF36F8FFFF7BFFE09B0F0BDF31728
:1035B80006960793069A079B04980599801859411F
:1035C800002200230F4D226163612860696020009A
:1035D800FFF704FF802301221B0622616361039B1E
:1035E800002B02D162B6BFF36F8F2000A368984703
:1035F800EFF3108372B60393014B1D68AD1B9EE772
:103608005C040020F002002010B5EFF3108472B6BD
:10361800FFF7D8FE02000649C317086849688018F2
:103628005941002C02D162B6BFF36F8F10BDC0465E
:10363800F002002010B5024800F0E9FA10BDC046BB
:10364800FC510008F0B5436891B001900693837867
:10365800170000269B0700D524E20126764257E092
:103668004D788B1C0993252D00D124E200220421DA
:10367800099B1400009205920A3209931F2C1FD847
:103688002800203810281DD8FCF712FD0E1C1C1825
:103698001C1C1C0F1C1C1C0C1C161C1C09000120CB
:1036A800044302E0022004430C43099801330578DF
:1036B800002DE2D1099337E00820F1E71020EFE769
:1036C8007F2C28D82800303809280DD840252C42CE
:1036D80004D0009D554328180090E6E7059D554302
:1036E800281805902020DBE72A2D0CD101CF65068C
:1036F800F2D4002803DB202505902C43D5E740426F
:1037080005902820CCE72E2D05D140200442C7D0B3
:10371800300011B0F0BD6C2D2CD026D8682D31D0DA
:103728006A2D32D04C2D30D0009B002B03DA402379
:103738009C430023009320232B431A00653A022A56
:1037480001D9612B24D10722FB1D934308331F00A5
:10375800B84B00920493240752D53400009B9D195E
:10376800AC424FD1059B009A61E1742D9DD07A2D12
:103778009BD0D9E78020044200D191E78025AD0095
:103788002C438DE780204000F5E7A020800087E7E4
:1037980028006338122800D9E2E0FCF789FC0A43C4
:1037A800E1E1E1E143E1E1E1E1E1F2DCE1E111E163
:1037B800A300012302CF0AAA117000930492CAE75A
:1037C80008CF0493002B01D19B4B0493630602D4CA
:1037D80001235B4200930099049800F0EEFE0090EC
:1037E800B9E720200199069B9847002813DB013C84
:1037F800009BA342F5D3059B05949E19361BACE7A5
:10380800059CF5E7049B01999B1B185D069B98474F
:1038180001340028A4DA019B9A7804231343019AFF
:1038280093701AE723063FD5A30538D50722073733
:1038380097430CCF02920393102322009A43039BD1
:103848000892002B39DA0299039A00244B429441DA
:10385800029303948023089ADB0013439BB20893D6
:103868000AAC0A2302980399220000F0B1FE031B58
:103878000793079B089C049323005B0600D4A1E0F0
:103888000123079A9C43009B934200DC9AE0002D99
:1038980000D095E01123089C9C43009B1AE008CFB8
:1038A8000293DB170393C7E708CFE205F8D5A20513
:1038B80001D55BB2F4E71BB2F2E7029B039A13430C
:1038C800CED16306CCD5009B002BC9D111339C43C4
:1038D800009B07930493594B23405A1E9341049A23
:1038E800D31825E010239C43063B9C4680232200E6
:1038F8001A4004921C424AD021008133FF331940F8
:103908001C4242D00722FB1D93431F0003CB0837FC
:1039180003000B434DD1220016339A4308926306E5
:103928004AD5009B002B47D117339C43009B079334
:103938000493230761D4E3070BD5079B049A0093EC
:10394800059B934205DD9B1A079A9B180093059BDC
:103958000493049B48E0102378259C461C43C5E744
:10396800782B04D110225B1B1A439446BEE725200E
:103978000199069B9847002800DA4CE70236E8B21E
:103988009AE0082300259C46B0E701CFC0E78022D3
:10399800210008CF5200180011401442B8D08022EC
:1039A80021009200114098B21442B1D00499D8B2C3
:1039B800AEE706239C4308940AAC6346220054E70A
:1039C800009B0493E30686D52B005A1E9341049A64
:1039D8009B180133ACE720200199069B98470028E3
:1039E80000DA18E7089B01330893089A059B93426D
:1039F800F1DC049B0492F61AB618E30628D53020A9
:103A08000199069B9847002800DA04E7002D17D192
:103A180001363400009B079AF3181B1B9A4223DBDC
:103A28001500002D28D1079B049A1C19059B260018
:103A38009D1A32E03D520008365200080604000084
:103A48000236E8B20199069B98470028E1DAE2E6D7
:103A58001C4B1C42DDD02B20A30700D40B38640577
:103A680000D52D200136EDE730200199069B013461
:103A780098470028CEDACEE60AAB013DE85C01990A
:103A8800069B98470028CCDAC5E620200199069BBA
:103A980001369847002800DABDE663199B1B002B06
:103AA800F3DC09990878002800D131E6252800D1EF
:103AB800D6E54B1C099301360199069B98470028C7
:103AC800EFDAA8E606040000704770B50E0015008E
:103AD8001C0001000020FDF75DF931000120FDF711
:103AE80059F929000220FDF755F921000320FDF7B7
:103AF80051F970BD10B500F02AFD0A220023FCF729
:103B08009BFB10BD020010B50B00117901221400B7
:103B18008C4021000068046924680C4200D053409E
:103B2800002B03D08368DB68984710BD83681B6946
:103B3800FAE7C9004018408840087047F8B50D00FA
:103B48000400FFF7F6FFFCF759FB1F21091A8A004A
:103B5800A218EB0010691F1D0633E719E318AEB26F
:103B6800002808D101308840E1680143E16015610F
:103B78003E801E80F8BDC1000431625A3A80D200EE
:103B8800A2181880D6806652F4E70723F7B50027F5
:103B9800043ACC1D89189C4399430E1BF60804600F
:103BA800A660E760300000912425FCF727FB20225F
:103BB8002D1A121A200039009200103000F0E7FC8C
:103BC8000122AD000735ED08A9B24B00134363800D
:103BD800731BEA009BB20193A01803000198278089
:103BE80040008446180063464380A1520122009B8E
:103BF8000199F6005F801980A6197388290013437C
:103C080073802000FFF79AFFF7BD002070470FB4BC
:103C180007B504A901C90191FDF73AFB03B008BC37
:103C280004B0184770B506000C888888241A3069D3
:103C3800A4B285B2844201D3641BA4B22D1BA8B2DE
:103C4800984200D9180033681B1913600B881B1899
:103C58000B8070BD70B5838984880D00E41A0369F0
:103C6800A4B21B1B934200D913002A00011DFFF7C1
:103C7800D9FF70BD10B50C00C38841895B1A9BB28F
:103C8800934200D91300010022000A31FFF7CAFF4E
:103C980010BD10B54B880C88E41AA4B294420ED318
:103CA8009A1892B28B884A800A800069D21A92B216
:103CB800824201D2002010BD1B188B80FAE7162023
:103CC8004042F8E7F0B50E001500002785B00190D6
:103CD8002A00019803A9FFF7BDFF041E09D031008F
:103CE8002200039800F04AFC3F192D1B3619002DBD
:103CF800EED1019B3A001800191DFFF7CAFF3800E2
:103D080005B0F0BDF0B50D001600002785B0019094
:103D18003200019803A9FFF7ADFF041E0AD0002D59
:103D280005D002000399280000F028FC2D193F193E
:103D3800361BEDD101993A0001980A31FFF7A9FF26
:103D4800380005B0F0BD7047F0B5012685B03024C5
:103D580002934368144058683300019494098B40D7
:103D680034408C40456802369D432C434460846847
:103D78000327A4461C008C406643F5430395D509E8
:103D88003D4065432F006546B5432F4387600327B1
:103D9800520A3A406243C568B5432A43C260019A51
:103DA800202A0CD1072915D823008B408B400F21DE
:103DB8005943026A8A4302994B4313430362019BA6
:103DC80002681B095C43039B1A40144304600020EB
:103DD80005B0F0BD0F211B0A5B435B435943426AA0
:103DE8008A4302994B431A434262E8E710B500F050
:103DF800CEFB10BD10B500F0C1FB10BD10B5010021
:103E08000068FDF747FB10BD10B5FDF773FBFDF724
:103E1800B9FC10BD10B500210120FDF73BFB10BD1A
:103E280010B5FDF7D3FAFDF70FFBFDF719FBFDF70A
:103E38000DFDFEF75FFF862040427047002802D143
:103E480062B6BFF36F8F7047BFF34F8F30BF62B654
:103E5800BFF36F8F704710B5FDF726FD002010BD2A
:103E68001F230120194088407047022803D80028E2
:103E780007D000207047C31F0020022BFAD98638CC
:103E8800F8E786204042F5E77047436800205B6802
:103E98001B690B60704743685B6858694240114072
:103EA8004140596100207047436800205B68996170
:103EB8007047436800205B68996270474368002038
:103EC8005B685A6951405961704730B503690024ED
:103ED800986800280FD1002A1BD11620404230BD17
:103EE8002060D868814210D1DC600EE005680400CB
:103EF800002DF0D028008842F8D10868002CEFD1B6
:103F0800DC689860A14200D1D86000200860824235
:103F180006D09A680A60DA689960002A00D1D960E8
:103F28000020DCE71300F7B580221F00920217403B
:103F38000C00019713424DD09A0744D55A0765D50E
:103F48005022D90641D5802189000A43C02519008D
:103F58008026ED002940F600B1424BD0A94245D059
:103F68008025AD00A94247D0C0211E0089020E401D
:103F7800056900960B4214D06E683100E1408C460A
:103F8800012167460F4202D1A1403143696001997E
:103F9800002906D0190331D50123A3404168496897
:103FA8008B6100232100FFF7CFFE009B002B08D177
:103FB8006B6801221900E140114202D0A2409343EC
:103FC8006B600020FEBD1022BBE79906BED580219C
:103FD800C900BAE73022D903B8D5DA0603D49A065D
:103FE800D20F9202B2E780229200AFE7C0214900C7
:103FF8000A43B9E78021FAE78021F9E75B03D0D5C6
:104008000123A340416849688B62CAE78620404281
:10401800D8E770B50B690E0099680500002902D031
:104028000C68002900D170BD8B681A002A402B4209
:1040380002D030004B689847231E00D02368210027
:104048001C00EEE730B50368136005790468ED00DD
:104058006419A34202D30220404230BD0833DC1E5B
:1040680024788C42F0D10020F7E7F7B5040000254A
:10407800C90043180193019B9C4201D10020FEBD59
:10408800102327681F4222D1202563681D431F2360
:10409800780A1840FDF744F9061E24D0FB051A0FCC
:1040A8001F231F406B46009219782A003B00FFF738
:1040B8004BFE0028E3DB112F07D1736800995A687B
:1040C80001238B4029050CD593610834D3E71F23BE
:1040D8003B40102B03D0112BD9D16568D7E7302589
:1040E800D5E79362F1E713204042C8E74163704780
:1040F80081637047C16370470164704710B514004D
:1041080042680369516818680131FBF7DBFF2060DA
:104118000020606010BD4068CB0300681B0D1B18B1
:104128001F2001401E3888401B680340591E8B41E0
:104138000020137070474268CB0312681B0D9B1850
:104148001F2211401E3A8A40186802431A60002054
:10415800704742681F20CB0301401E388840126810
:104168001B0D9B181A6882431A600020704770B5AF
:104178000D000400FFF7DFFF29002000FFF7E9FF2B
:10418800002070BD8022030052010800934207D02E
:1041980080225205934207D143425841013070476B
:1041A800434258410330FAE7434258410230F6E7A8
:1041B800012143681A68D069D36900070B408B4016
:1041C800D169C00F18430423890700D51843D16962
:1041D800194201D0202318438023D1695B0019427A
:1041E80002D0082113620843C30701D508231362CC
:1041F800830701D501231362430701D50223136204
:10420800830601D504231362704743681A68EFF3E5
:104218001081012383F3108810683F330343136030
:1042280081F31088704743681A68EFF310810123FF
:1042380083F31088402013688343136081F3108848
:10424800704743681A68EFF31081012383F31088DD
:1042580010681F330343136081F310887047436865
:104268001A68EFF31081012383F310882020136864
:104278008343136081F31088704743681B68D869CB
:104288008006C00F704701207047036959609A6023
:10429800704710B502695368002B01D091689847A0
:1042A80010BD002210B511001B20FDF709FA1B20D4
:1042B800FDF7FAF910BD002210B511001C20FDF71A
:1042C800FFF91C20FDF7F0F910BD002210B5110010
:1042D8001D20FDF7F5F91D20FDF7E6F910BD43682F
:1042E8001B68D8694006C00F7047436800201B68E8
:1042F800DA69120602D518684006C00F7047802296
:1043080010B543681B68D8691042FCD0EFF31080E1
:1043180072B6DC69144205D10028F4D162B6BFF345
:104328006F8FF0E71985002800D010BD62B6BFF383
:104338006F8FFAE7202243681B68D969114203D0BE
:1043480019680120114206D1DA690020520602D507
:1043580018684006C00F7047082243681B68D86970
:10436800104200D01A62DA69920603D500209B8CAD
:104378000B70704701204042FBE770B5041E09D05E
:10438800FEF79EFB302305005C43FEF799FB401BBC
:10439800A042FAD370BD10B543690400002B07D1C1
:1043A80000230122E168487802434A70584210BD50
:1043B80098470028F4D0C1174318E2684B40FF2BF8
:1043C80000DDFF231370ECE7002808D0C368002045
:1043D8005A78D20703D5187843425841C0B270477B
:1043E800EFF3108372B6FEE710B5FFF7F9FF10B5CB
:1043F800EFF3108372B6FFF727FDF9E70368426809
:1044080013605A60002303604360704710B50400CE
:10441800FFF7F4FF0222237C934323740023A36055
:1044280010BD10B5EFF3108472B6FEF715FD002C21
:1044380002D162B6BFF36F8F10BD282310B5027C7E
:1044480004001A420BD18368002B01D0FFF7DEFF6E
:104458000422237C200093432374FEF7FDFC10BD47
:1044680010B5EFF3108472B61838FFF7E6FF002C8A
:1044780002D162B6BFF36F8F10BD70B505000C0096
:10448800FEF72CFE013501D1631C0AD00200C317C8
:1044980000210920801859410A220023FBF7CCFE8D
:1044A80070BD2000FCE770B50400EFF3108572B60C
:1044B8000426037C33420CD0183000F010F8237C1B
:1044C8002000B3432374FEF7C7FC2800FEF734FD31
:1044D80070BD002DFCD162B6BFF36F8FF8E770B5E1
:1044E8000400EFF3108572B60368002B1BD0FEF7AB
:1044F80047FF06002000FEF771FF802300221B06FD
:1045080022616361A64206D00020002D02D162B666
:10451800BFF36F8F70BDFEF755FFFEF739FF00211F
:10452800FEF73AFAF0E70369012B09D180234269C3
:104538001B069A4204D1802300221B0602614361B4
:1045480016204042E1E710B5FFF75EF810BD10B540
:10455800FFF75AF810BD030070B5EFF3108572B677
:104568000668012400208E4201D120001A60002D27
:1045780002D162B6BFF36F8F204070BD002310B523
:104588009A4200D110BDCC5CC4540133F8E7030053
:104598008218934200D1704719700133F9E730B59A
:1045A80000240139A24201D1002005E0035D013455
:1045B8000D5DAB42F6D0581B30BD030041188B424D
:1045C80002D01A78002A01D1181A70470133F6E789
:1045D800F0B50D003721C91A8FB0C9B20D911F214E
:1045E80004000B400C930C99E3B2082955D010290C
:1045F80000D164E0E907600808436908069007915C
:10460800A008A9070843A90808900991089E099FCE
:1046180006980799801979410E07B446060900964D
:104628006646009F37430E0900970196009E019F3A
:10463800801979410E06B4466746060A3E4302963B
:104648000E0A0396029E039F801979410E04B44610
:104658006746060C3E4304960E0C0596049E059F7D
:104668008019794100260A910B960A9E0B9F8019A2
:1046780079414E07CD080521C408344361434900F8
:104688005B1ADBB2092B12D9012000210A3B24183E
:104698004D41DBB21DE00200A5E707210B40690789
:1046A8008C466646E008E908064334000D003033BE
:1046B80013702300501C2B43EDD10FB0F0BD0F2118
:1046C8000B4029078C466646200929090643340011
:1046D8000D00092BEBD90D99CB18DBB2E7E70000E9
:0846E8009CC0FF7F01000000EF
:1046F0000000000090470008C512000800000000FC
:1047000000000000AC470008000000003848000826
:10471000000000001C480008000000005448000889
:104720000000000070480008000000000048000879
:1047300000000000E447000800000000C84700082F
:10474000AD1900080000000000000000A8480008A3
:10475000000000008C48000800000000C448000869
:104760000D1E0008000000001929000800000000CC
:10477000D9180008000000000000000018490008D7
:1047800000000000E048000800000000FC480008AD
:10479000A551000800000000604A000872010020D6
:1047A00000000000911C000800000000B651000845
:1047B000344D0008504A00087A0100200000000033
:1047C0000000000000000000DD4F0008404B000822
:1047D000244A000864010020280300200113000877
:1047E00000000000EB4F0008544B0008244A00086A
:1047F00066010020380300200113000800000000BB
:10480000F94F0008684B0008244A0008680100209E
:1048100048030020011300080000000007500008B2
:104820007C4B0008244A00086A010020580300203D
:10483000011300080000000015500008904B00080C
:10484000244A00086C0100206803002001130008BE
:104850000000000023500008A44B0008244A000870
:104860006E01002078030020011300080000000002
:1048700087510008000000000000000070010020C7
:1048800000000000FD18000800000000C7510008EB
:10489000384D00087C4A00087C01002004010020FB
:1048A0001125000800000000D75100088C4D0008B9
:1048B0007C4A00087E010020180100201125000814
:1048C00000000000E7510008E04D00087C4A0008A5
:1048D000800100202C0100201125000800000000AC
:1048E000B2510008204C0008484A0008740100201A
:1048F000E00000202121000800000000B251000863
:10490000704C0008484A000876010020EC000020A6
:104910002121000800000000B2510008C04C00082E
:10492000484A000878010020F800002021210008F2
:044930000000000083
:10493400000000001D3E0008000000001D3E0008AD
:10494400000000001D3E0008000000001D3E00089D
:10495400000000001D3E00084D52000865190008C3
:104964004B520008651900084952000865190008EF
:10497400000000001D3E0008000000001D3E00086D
:10498400000000001D3E0008000000001D3E00085D
:10499400000000001D3E0008000000001D3E00084D
:1049A400000000001D3E0008000000001D3E00083D
:1049B400000000001D3E0008000000001D3E00082D
:1049C400000000001D3E0008000000001D3E00081D
:1049D400000000001D3E0008000000001D3E00080D
:1049E400000000001D3E0008000000001D3E0008FD
:1049F400000000001D3E0008000000001D3E0008ED
:104A0400000000001D3E0008C44800089B42000846
:104A1400A84800089B4200088C4800089B420008F4
:104A24002D3F0008933E00089F3E0008B13E000859
:104A3400BB3E0008C53E0008611E0008D33E0008C6
:044A4400000000006E
:084A4800111F000805410008E0
:104A50001F4100083F4100085B4100087741000802
:104A60001D1B00085D1B0008000000008D1B0008D6
:0C4A70005D1C000800000000151C000880
:104A7C006143000807430008B94100088926000873
:104A8C008D270008312800088D28000813420008E3
:104A9C002F420008F34200084B420008674200080E
:104AAC00E742000883420008BD22000809230008E1
:0C4ABC003D4300088F42000893420008B0
:104AC80018000000010000001C4800080000000059
:104AD8001C480008010000001C48000802000000F3
:104AE8001C48000803000000E0480008010000001E
:104AF80050C3000000000000E04800080200000069
:104B080050C3000000000000FC480008030000003B
:104B180050C3000000000000FC480008040000002A
:104B280050C30000000000003848000809000000D9
:104B38003848000808000000FFFF00000014004883
:104B4800050000001400000000004000FFFF000006
:104B580000100048040000001400000000002000BD
:104B6800FFFF0000000C00480300000014000000D4
:104B780000001000FFFF00000008004802000000CD
:104B88001400000000000800FFFF000000040048B7
:104B9800010000001400000000000400FFFF0000F6
:104BA800000000480000000014000000000002009F
:104BB80054480008384800081C4800080048000805
:104BC800E4470008C8470008000000000000000093
:104BD80000000000000000000000000000000000CD
:104BE80000000000000000000000000000000000BD
:104BF80000000000000000000000000000000000AD
:104C0800000000000000000000000000000000009C
:104C1800000000000000000000000040000000004C
:104C2800000000000000000000000000404C0008E8
:104C380002000000504C00081C00000001000000A9
:104C480008000000FF000000584C000801000000A8
:104C5800604C000802000000020000000000000094
:104C680022000000000000000004004000000000D6
:104C7800000000000000000000000000904C000848
:104C880002000000A04C00081C0000000200000008
:104C980008000000FF000000A84C00080100000008
:104CA800B04C0008020000000102000000000000F3
:104CB8002102000000000000002C01402F0000002D
:104CC800000000000000000000000000E04C0008A8
:104CD80002000000F04C0008180000000008000066
:104CE80008000000FF000000F84C00080100000068
:104CF800004D000801000000020100000000000053
:104D0800F5400008F9400008FD400008014100088E
:104D18000400000040000000000400000100000042
:104D28001000000000010000001000000010024008
:104D38000048004090470008AC47000812020000F5
:104D4800644D0008010000000000000000000000A1
:104D5800000000006C4D0008D34200081C00000051
:104D680000000400744D0008010000007C4D00089C
:104D78000200000044030000000200006403000079
:104D8800000000000044004090470008AC470008BD
:104D980011020000B84D00080100000000000000EA
:104DA8000000000000000000C04D0008BF420008DD
:104DB8001C00000000000200C84D000801000000AF
:104DC800D04D000802000000410000000002000071
:104DD8006100000000000000003801409047000812
:104DE800AC4700088E0100000C4E000801000000CE
:104DF800000000000000000000000000144E000841
:104E0800AB42000818000000004000001C4E0008DB
:104E180001000000244E00080200000021010000EB
:104E2800000200004101000000000000F0460008F8
:104E3800F0460008684700087047000890470008D7
:104E4800904700080010000000300A3D3D3D2075E5
:104E580061727420636F6D6D616E64206D6F64653F
:104E6800203D3D3D0A006F70656E00636C6F736591
:104E78000049444C45006F6B005B636F6D6D735D5B
:104E8800206472697665206C696E6B2075700A0003
:104E98005B636F6D6D735D20647269766520207346
:104EA800746F700A005B636F6D6D735D2064726967
:104EB80076652020464C3D25642046523D256420D9
:104EC800524C3D25642052523D25640A005B636FB5
:104ED8006D6D735D2067726970706572202D3E205C
:104EE80025752020282573290A005B636F6D6D7373
:104EF8005D20686F70706572202D3E20657874653E
:104F08006E640A005B636F6D6D735D20686F70700F
:104F18006572202D3E20726574726163740A005BAD
:104F2800636F6D6D735D20686F70706572202D3EC4
:104F38002073746F700A005B636F6D6D735D206121
:104F4800726D202D3E2073686F756C6465723D2507
:104F58006420656C626F773D25642077726973748D
:104F68003D25642064656720202825756D73290A0E
:104F7800005B636F6D6D735D206C696E6B202573CC
:104F8800202072783D25754220706B74733D25751D
:104F9800206261643D25750A005B636F6D6D735D0A
:104FA800206472697665207761746368646F673A14
:104FB800206E6F20636F6D6D616E64203530306DCB
:104FC80073202D3E206D6F746F72732073746F7031
:104FD8007065640A006770696F4034383030313466
:104FE8003030006770696F403438303031303030DD
:104FF800006770696F403438303030633030006794
:1050080070696F403438303030383030006770693C
:105018006F403438303030343030006770696F405A
:1050280034383030303030300072302F61313A202F
:1050380020307825303878202072312F61323A209C
:1050480020307825303878202072322F61333A208A
:10505800203078253038780A0072332F61343A20AE
:1050680020307825303878207231322F69703A2014
:1050780020307825303878207231342F6C723A20FD
:10508800203078253038780A0020787073723A20FA
:10509800203078253038780A004661756C74696E5E
:1050A8006720696E737472756374696F6E206164CA
:1050B800647265737320287231352F7063293A2022
:1050C8003078253038780A00556E68616E646C65F2
:1050D80064204952516E3A2025640A00526573656E
:1050E8007276656420457863657074696F6E2028F0
:1050F8000053707572696F757320696E746572728A
:1051080075707420284952512000535053454C2043
:10511800696E20746872656164206D6F64652064CF
:105128006F6573206E6F7420696E6469636174655E
:10513800205053500A002A2A2A2A2A204841524439
:10514800204641554C54202A2A2A2A2A0A0041522C
:1051580043485F4558434550542077697468207226
:105168006561736F6E2025780A0A002A2A2A2A2A7E
:1051780020257320256429202A2A2A2A2A0A006938
:105188006E746572727570742D636F6E74726F6C65
:105198006C657240343030313034303000726363C3
:1051A8004034303032313030300070776D00726505
:1051B8007365742D636F6E74726F6C6C65720073B7
:1051C800657269616C403430303034383030007387
:1051D800657269616C40343030303434303000737B
:1051E800657269616C403430303133383030006D6D
:1051F80061696E002A2A2A20426F6F74696E6720DF
:105208005A6570687972204F53206275696C642002
:1052180076342E342E302D3732322D67353964638B
:105228003930356538306137202A2A2A0A00286E35
:10523800756C6C29002A666C6F61742A0001000184
:1052480000040C0202000200010203040506000229
:105258000406080A0C00000800000008000000000E
:10526800040404000000000000000001020304061A
:105278000708090102030405060708090A0B0C0DB3
:105288000E0F1002030405060708090A0B0C0D0E81
:045298000F101000E3
:10529C009011002000000000000000000000000041
:1052AC0040000000133C0008000000005F3E0008B6
:1052BC00000000000000000000000000AC470008E7
:1052CC000002000000000000AC47000801020000D2
:1052DC0000000000AC4700088B010000100100200A
:1052EC00000000000000000000C2010000010300EB
:1052FC0024010020000000000000000000C201009A
:10530C000001030038010020000000000000000034
:10531C0000C201000001030000127A00C800000066
:10532C00480100204801002001FFFFFFFFFFFFFFA5
:09533C00FFFFFFFFFFFFFFFFFF71
:105345000000000000000000000000000000000058
:105355000000000000000000000000000000000048
:0353650000000045
:0453680015E015E057
:040000050800165584
:00000001FF
