:020000040800F2
:10000000001100200D080008A32C0008F9070008C3
:1000100000000000000000000000000000000000E0
:10002000000000000000000000000000410800087F
:1000300000000000000000009D0900080D1B0008E2
:100040003D0A00083D0A00083D0A00083D0A000874
:100050003D0A00083D0A00083D0A00083D0A000864
:100060003D0A00083D0A00083D0A00083D0A000854
:100070003D0A00083D0A00083D0A00083D0A000844
:100080003D0A00083D0A00083D0A00083D0A000834
:100090003D0A00083D0A00083D0A00083D0A000824
:1000A0003D0A00083D0A00083D0A00083D0A000814
:0400B0003D0A0008FD
:1000B40002B4714649084900095C49008E4402BCF7
:1000C4007047C046002934D00123002210B488426E
:1000D4002CD301242407A14204D2814202D2090173
:1000E4001B01F8E7E400A14204D2814202D2490094
:1000F4005B00F8E7884201D3401A1A434C08A04237
:1001040002D3001B5C0822438C08A04202D3001BCC
:100114009C082243CC08A04202D3001BDC082243E3
:10012400002803D01B0901D00909E3E7100010BC23
:10013400704701B5002000F00BF802BD0029F8D08B
:1001440003B5FFF7C1FF0EBC4243891A1847C046E6
:100154007047C0461C2101231B04984201D3000CA4
:1001640010391B0A984201D3000A08391B09984226
:1001740001D30009043902A2105C40187047C0463C
:10018400040302020101010100000000000000005C
:10019400002B11D1002A0FD1002900D1002802D050
:1001A4000021C943080007B4024802A14018029084
:1001B40003BDC0469DFFFFFF03B4684601B5029826
:1001C40000F04CF8019B9E4602B00CBC7047C04640
:1001D400D0400B00D1409C46203AD34018435242B1
:1001E40063469340184370479140030090409C46F7
:1001F400203A9340194352426346D340194370470F
:1002040010B5002903D1FFF7A5FF203002E0080054
:10021400FFF7A0FF10BDC046F7B5040C0D0091B266
:100224000F0061438C460600019383B2100C5F43B8
:10023400444358433B0C60441B18994202D9802123
:1002440049026418019955437143180C04191B049D
:10025400BFB24919D819091903B0F0BDF0B587B078
:1002640006000F00059204938B4200D966E001D189
:10027400824263D804990598FFF7C2FF39000190C0
:100284003000FFF7BDFF019B04991B1A1A00059863
:100294000193FFF7A9FF04000D00B94246D801D12C
:1002A400B04243D801200021019AFFF79DFF361B7D
:1002B400AF4102900391019B002B2ED0E907620805
:1002C4000A4301996B088C4601240025BB4232D8AD
:1002D40001D1B2422FD830003900801A9941001858
:1002E40049410019694106000F00012149428C442B
:1002F40061460029EAD1029C039D30003900019A2D
:10030400FFF766FF019AA4197D4106000F00FFF76D
:100314006BFF241A8D41029403950C9B002B01D092
:100324001E605F600298039907B0F0BD00220023AD
:1003340002920393BFE7B6197F41D6E70023002456
:1003440002930394E9E7000010B500F013F80028C5
:1003540004D0064802F037FC002010BD0A2000F04B
:1003640017F80A21024802F02EFCF5E76A3B000860
:100374007F3B000810B5054802F059FF002801D062
:10038400002010BD13204042FBE7C046FC360008A5
:10039400F0B5040087B020480121836804AA5B6893
:1003A4009847002831DB049E059F00231B4A300038
:1003B4003900FFF731FF0023194A0D00FFF7E8FE6B
:1003C400184B029003909D421FD83C2C1FDD3C2407
:1003D40000251548154B60433200C01829003B0026
:1003E400FFF71AFF00230E4A0C00FFF7D1FE0D4958
:1003F40003008C4209D80399994206D30648009514
:10040400826801211468029AA04707B0F0BD0A2C43
:10041400DEDA0A24DCE7C046FC360008002D310190
:1004240000CA9A3BFFC99A3B204E000020A1070056
:1004340010B5024B1B68984710BDC046B40000209D
:10044400014B18607047C046B40000207FB505001A
:100454000E0010220021684602F0AEFF6C46022313
:10046400A370044B320029006846019302F0FAF8A5
:100474007FBDC04635040008802102200A4BC90311
:100484009A6982B00A439A619A690A4007490192BB
:10049400019A4A68824300204A609A6904490A40E2
:1004A4009A6102B07047C0460010024000580140F3
:1004B400FFFFBFFF10B5416807480C3183681B6814
:1004C400002B03D09847002803DC10BD582040427D
:1004D400FBE70020F9E7C0469035000810B519285D
:1004E40002D90024200010BD044B8000C458200011
:1004F40002F09DFE0028F5D1F3E7C0462439000838
:1005040010B5EFF3108472B60A4B1A68002A08D1AA
:100514008020094A400011680143116011680142BA
:10052400FCD01A6801321A60002C02D162B6BFF303
:100534006F8F10BD240300200070004010B5EFF34E
:10054400108472B60C4B1968002909D101220B489A
:1005540002F016FF002C02D162B6BFF36F8F10BDFC
:10056400012904D1064907480A6802400A601A684A
:10057400013A1A60EEE7C04624030020200300205D
:1005840000700040FFFEFFFF0649074A10B5521AEB
:10059400064802F008FF0323054A11680B43136061
:1005A40010BDC04600000008B40000080000002090
:1005B400000001401023044A11680B431360034BED
:1005C400034A1A607047C04600200240140100200C
:1005D40000127A00F7B504000D001E00019201F02C
:1005E400DDFD030000F038FA054F32003B5001995D
:1005F4002800A04700F030FA385800F0B1F9C0469E
:100604000800000010B5034A03480021121A02F042
:1006140038FB10BDFC030020500100200648074AA7
:1006240010B5121A064902F030FB064A064807497B
:10063400121A02F02AFB10BDB40000205001002061
:10064400403E0008B4000020B4000020403E0008F2
:1006540070B505000C1E13D08B684A680F480968F2
:1006640002F0B1FA0E4863692269E16802F0ABFA5C
:100674000C48E16902F0A7FA0B48A16902F0A3FA59
:10068400012D05D1EFF305810848103902F09BFADA
:100694002800210001F044FB70BDC046E73B000880
:1006A400173C0008473C0008573C0008863C0008FB
:1006B40030BFFDE7F7B50A4B0A4D0600EF18CC1B17
:1006C4002A0020000849019302F06DFE6019002100
:1006D400019A02F071FE3800083C74660830FEBDD1
:1006E4000400000000000000A4380008F0B5314BFD
:1006F40004005F6889B0FD05ED0D62B6BFF36F8F2E
:10070400130EFF2B06D1F33B1340082B3BD12A4891
:1007140002F059FA00263400032D3AD1274802F09A
:1007240052FAA369264A934202D3264A934205D336
:10073400254A934238D3254A934235D2023B1B883B
:10074400FF221800DF219043090288422CD1134074
:10075400022B29D11E48216802F035FA276820228D
:100764002100684602F01FFE6D46079B002E1DD037
:10077400DA0502D1174A1343EB6129003800FFF769
:1007840067FF09B0F0BD01261207C5D50C0000268D
:10079400C2E7F8235B0010491F4200D10F492A0029
:1007A4000F48103A02F00FFA0027D8E75B0A5B0201
:1007B400E2E7C04600ED00E0C83C0008F43C000855
:1007C400B4000008F0340008B4000020B400002095
:1007D4000C3D0008FF010000AF3C00089A3C0008F3
:1007E400293D00080821024A53698B43536170472D
:1007F40000ED00E0EFF30880EFF3098101B57246E4
:10080400FFF774FF01BDC046094880F3088872B63B
:1008140008480949401880F30988EFF3148002213D
:10082400084380F31488BFF36F8F02F044FA00008A
:10083400001100200004002000080000042071467C
:10084400014202D0EFF3098001D1EFF308808169FE
:10085400023909780229FFD001B5724602F019FA6B
:1008640001BDC04643B2000605D41F221A4001232D
:100874009340014A1360704700E100E030B5FF2562
:1008840003220B00290040B20240D20091409B0198
:100894002B40C943934000280ADBC0240A4A80083D
:1008A40080008018A40002590A401343035130BD4C
:1008B4000F2210400838054A800880008018C26959
:1008C40011401943C161F2E700E100E000ED00E0EE
:1008D40010B5203A1360029B01245360039B064920
:1008E4009360049BA143D36080235B04D361002302
:1008F40091610265836610BDD905000870B50B4B84
:1009040015009860426E0A4B0E001A602C1C86F388
:1009140009880020034B9847201C00210022002353
:10092400014C2047D72C0008D9050008CC0300202F
:10093400280300201022014B1A61704700ED00E0EB
:10094400054B5A699B689A4205D08023034A5B058C
:1009540051680B4353607047CC03002000ED00E066
:1009640010B50A4B9B6883420DD1EFF30583002B2E
:1009740009D08022064B520559680A435A605A6AC4
:1009840004490A405A6201F00FFC10BDCC03002058
:1009940000ED00E0FF7FFFFF15498A681548104409
:1009A400EFF3098CF0C043464C4655465E46674615
:1009B400F8C072B6104F114E4A698A603E60104CFE
:1009C400141920680F4C2060906E00239366002851
:1009D40000D162B6074C10191030F8C89846A146E9
:1009E400AA46B346BC462438F0C88CF3098870473D
:1009F400CC0300203000000004ED00E000000008FB
:100A04006400000028030020F0B5C024002203265F
:100A1400FF25A40010002F003040C0008740054986
:100A240093089B005B1819590132B94319511D2AC7
:100A3400F0D1F0BD00E100E010B5EFF30583054A05
:100A4400103BDB00D118496898588847FFF778FFB6
:100A540010BDC04618370008014800687047000000
:100A64002803002010B5024B1B689847002010BDD6
:100A74002C030020034B044A1860022391780B4393
:100A8400937070472C030020B8000020072310B592
:100A94000449054A99430548521A02F052F80020C5
:100AA40010BDC04607110020004000203003002084
:100AB40013B56A46064B694611CB11C205488368D3
:100AC4001B68002B01D0984716BD58204042FBE715
:100AD400A438000890350008020000201F2A08D816
:100AE40001239340034A50691840C01A43425841B5
:100AF400C0B27047000401401F220123024093400A
:100B04001F2803D80020034A53617047162040422F
:100B1400FBE7C04600040140F8B5060000250127A4
:100B24007378AB4200D8F8BD347864192000FFF71D
:100B3400D3FF00280ED02000FFF7DEFF074AE100B4
:100B44008B58002B06D052181F2138000C40A040AF
:100B5400516898470135EDB2E2E7C0463C030020F6
:100B64000022052010B50C4C110020706070FFF7B6
:100B740085FE002206201100A070E070FFF77EFEC3
:100B84000C220721054802F017FC0022072011005F
:100B9400FFF774FE002010BD24010020280100206E
:100BA40010B50400FF20002C05D02000FFF7D2FA76
:100BB4001F23181AC0B2044B1856044B1A68144366
:100BC4001C60FFF74FFE10BD24010020000401400B
:100BD400024A1368834313607047C046000401400F
:100BE400020000B5080003290AD80E4BFFF760FA8B
:100BF40002090C13996891439960D9689143D960AB
:100C040000BD99681143F7E7D9681143D960996821
:100C140091439960F4E7996811439960D9680A434C
:100C2400DA60EDE70004014070B5FF230D00140005
:100C3400002804D0FFF78EFA1F231B1ADBB2094ADF
:100C4400D8008358AB4203D111184968A14204D09B
:100C5400002B04D1155012185460002070BD1020D0
:100C64004042FBE73C030020FF2310B5002804D0DA
:100C7400FFF770FA1F231B1ADBB20021024ADB00C4
:100C84009950D218516010BD3C030020032310B5C5
:100C94000F2403409B009C409940044A8008800034
:100CA40080188268A2430A43826010BD000001409C
:100CB400032303408008054A0230800080580F2235
:100CC4009B009A401040D8407047C0460000014045
:100CD4000B8813B50C481B051A0D1B181B0D082B8C
:100CE4000ED80A4C486813191A68024300201A6087
:100CF4000B881B051B0D1B191B680193019B16BD5B
:100D040086204042FBE7C0460000C0FE00100240BF
:100D14000B8809481B051A0D1B181B0D082B07D837
:100D24000020064B4968D3181A688A431A60704732
:100D340086204042FBE7C0460000C0FE001002408F
:100D440070B51E4B0D0018680B8814001B051B0D95
:100D54001C2B09D8062B0AD8042B05D8022B20D823
:100D6400012B16D0022B1ED08620404218E001220F
:100D74009A4013490A420BD112490A4209D1092B5C
:100D8400F2D100F001F9002816D000F0FDF800E0DF
:100D940040088023206029685B01994206D2002024
:100DA40070BD0020F5E780200002F2E7090B013155
:100DB400FFF788F92060F2E70520D6E71401002048
:100DC400800000110001100070B508884C6800050F
:100DD400E502000DA6B2ED0E01F092FF002812D13B
:100DE400FF2C0FD0094BF21801236602B60F01360F
:100DF400B340013BAB401168240E99430B00AC4057
:100E04002343136070BD86204042FBE7001002407C
:100E14000B880A4A1B05180D9B1810B51B0D082BCF
:100E240008D8074BC01803684868984343425841A0
:100E3400013010BD01F064FFF8E7C0460000C0FEB9
:100E440000100240F7B5414E00F0A2F8300001F066
:100E540066FF00F013FF3E4C3E4A636835001B06F4
:100E64001B0FD35CD840137801901D41A84202D2D5
:100E7400280000F039FF80232268DB02134323603B
:100E8400802322685B021343236080239B02226831
:100E94001A42FCD0FFF734FB01230227226A1343D2
:100EA4002362236A3B42FCD0FFF748FB0C226368B1
:100EB4001340082B16D123683B4207D10123226833
:100EC40013432360022322681A42FCD0032263687E
:100ED400934363600C2362681A42FCD1F022636876
:100EE40093436360802723681B4ABF041340236035
:100EF40023683B42FCD100F035F8802322685B0470
:100F04001343236023683B42FCD0F022636893437D
:100F14006360032362689A43013B13430C226360BA
:100F240063681340082BFBD1019BAB4202D328001A
:100F340000F0DAFE094B00201E606268084B1A407C
:100F44008023DB0013436360FEBDC046006CDC02FB
:100F5400001002400D3E0008FFFFFFFE14010020B8
:100F6400FFF8FFFF064B074A5968114088225203D5
:100F74000A430F215A60DA6A8A43DA627047C0462C
:100F840000100240FF7FC2FF00487047006CDC0283
:100F940080210A4B4905DA6982B00A43DA61DA69C9
:100FA4000A4001210192019A9A690A439A619B6954
:100FB4000B400093009B02B07047C04600100240F3
:100FC40010B5084802F033F9002808D0064C200078
:100FD400FFF750FD2000FFF733FA002010BD132067
:100FE4004042FBE78C360008F10F000870B504009E
:100FF400074D0A2804D1AB680D2128005B68984787
:10100400AB6828005B68E1B29847200070BDC04619
:101014008C360008F7B547680600B8681D000192D1
:101024000C0001F068FE8023019A00909B039A4211
:1010340015D12000BD68FFF73BFE85420DD121008C
:10104400280001F058FE0400FFF7C2FD2000FFF75E
:101054000BFE00212000FFF7C3FD0020FEBD80230E
:10106400019ADB039A4223D08023DB049D421BD0E8
:10107400C023DB049D4219D080239B049D421AD1D6
:10108400022532000E490098FFF7CEFD002814D146
:101094002000B968FFF7FAFD00982900FFF7A0FDCA
:1010A4000098FFF77DFDD8E70125EAE70325E8E787
:1010B40086204042D2E71620FBE71020F9E7C0461D
:1010C400AD2E0008F7B504000800190008AB1B8812
:1010D4001700019363689C461E68431E032B16D8B1
:1010E4008024E405A64204D080246402A24200D9EC
:1010F400DEE0704C9B001D5900930024042801D0AD
:101104006D481C58019BD80504D5002C03D116202A
:10111400404206E02C00002F04D1336AA34333621B
:101124000020FEBD63469868002800D085E0013F9A
:101134000120019A0240530001930322402C0BD05A
:1011440000D98AE00200042C06D00218102C03D027
:101154000432844200D10022584B306A9A5C022344
:1011640093409843019B9340554A1843009B306237
:10117400D35830009847F762336A23409C42CFD05B
:101184000323402D0AD074D8023B042D06D001332A
:10119400102D03D00433012D00D100233000494F1A
:1011A4001830FA5C0090121847481168C35C01902B
:1011B4009C4673236046834099430B006021814021
:1011C4000B4313600323402C0AD05DD8023B042C4C
:1011D40006D00133102C03D00433012C00D100239A
:1011E4003A4A7168D35C80225200100098408143CF
:1011F4007160336A1C438023346231680B4333606B
:101204000323402D0AD04AD8023B042D06D00133D3
:10121400102D03D00433012D00D100230198FA5C72
:10122400C05C082383400099521811680B43136073
:10123400012372691343736172E7102801D10139E4
:1012440075E740239C46030062469343202B01D05C
:1012540060452DD149087F086AE7802004224000B8
:10126400844200D178E71A4BE218501E82410532BD
:1012740072E780220423520095428FD0144BEB185E
:101284005A1E9341053389E7802204235200944275
:10129400A6D00F4BE3185A1E93410533A0E704234D
:1012A4009542BBD00A4BED186B1E9D416B1DB5E7F3
:1012B40086202DE7903A0008843A0008F83D00089B
:1012C400743A0008063E0008FF3D0008F13D00089E
:1012D40000FCFFFFF0B55C4B85B000939B6846684B
:1012E40001931B68076934687169002B02D1582582
:1012F4006D42A1E000989847051E00DA9CE0B369AE
:10130400012B00D89BE0019B71699B690831002B7C
:10131400EDD0002200989847051E00D08CE0019B78
:101324007169DB680831002BE1D0009802AA984764
:1013340000280FDB029B7868B9683B608368DB6830
:10134400002B00D098470021F06903AA01F0C5FDE5
:10135400002801DA05006FE0039B00221979186860
:1013640001F0CEFD0028F5DB7368384AA362002340
:10137400E362944212D08023DB059C420ED0344BAE
:101384009C420BD0334B9C420FD1236832490B4013
:101394002360944219D10023236336E0702123682B
:1013A4008B43B1680B432360EFE72C4B9C42ECD09A
:1013B4002B4B9C42E9D02B4B9C42E6D02A4B9C42BF
:1013C40023D02A4B9C4220D007E0244B9C42E2D0FD
:1013D400234B9C420FD1002323633369002B08D194
:1013E4001F4B9C4219D01F4B9C4216D0F368002B14
:1013F4001ED086257CE71B4B9C42ECD08023DB056A
:101404009C4202D0124B9C42D8D1702163688B431A
:1014140031690B436360944213D1FF22636C93439D
:10142400F268134363648023626C1B021343636496
:101434000123226813432360280005B0F0BD16255C
:1014440056E7064BD0E7C04690350008002C014013
:101454000004004000200040FFFCFFFF004001406A
:1014640000440140004801400010004000140040C6
:1014740043681B68EFF31081012282F31088986897
:1014840002439A6081F310880A4A934202D00A4ABE
:10149400934203D1402259680A435A60EFF3108102
:1014A400012282F310881868FF3202431A6081F324
:1014B40010887047003801400044004043681B68AE
:1014C400EFF31080012181F310889A688A439A60AF
:1014D40080F310880A4A934202D00A4A934203D105
:1014E40040215A688A435A60EFF31081012282F343
:1014F400108805481A6802401A6081F31088704702
:101504000038014000440040FFFEFFFF37B50300F0
:101514000D1E046802D11620404218E04068196983
:101524008368DB68002B13D001AA984700280EDBE0
:101534002368084A680813402360019B2900C018E7
:10154400FEF7C0FD0F28E6D980B2E06000203EBD62
:101554005820E1E7FF7FFFFFF7B5020013690C0095
:101564001D680B794068012B13D0991E4E427141BE
:10157400890200916679022E0ED84A4F7600F75BF5
:10158400A679022E0BD0042E2ED05E1EB3411B036F
:1015940008E0C021C900ECE78027BF01F0E75E4204
:1015A40073411B07E6790196012E20D00026B4462C
:1015B4000068A5421ED104683B4E00993440214383
:1015C4000B430360436839490B403B434360536812
:1015D400374819688B680340604603438B60296869
:1015E4005068FFF793FFFEBD80235B01DAE7C02656
:1015F400B600DCE7C0210668C9000E400099B1427C
:1016040005D006682B490E4000990E430660C0269B
:101614005168B6010868416831408F4204D041687E
:10162400224E3140394341605168234E08680168B5
:1016340031408B4204D00168204E31400B4303609B
:10164400C0205368800019688B6803409C4505D00E
:101654008B6817480340604603438B6001985368C6
:101664000338464270411B6899684904C90F88428F
:1016740007D00199032911D180219868C901014338
:10168400996021682B6800209942ACD05068FFF71C
:101694003DFF0028A7D123682B60A4E79968084878
:1016A4000140EDE7643B0008FFE9FFEFFFCFFFFFD8
:1016B400FFFCFFFFFFF9FFFF00100010FFEFFFEF3B
:1016C400FFBFFFFFF0B543680700586885B019698C
:1016D400019383681B68002B00D19EE09847051E88
:1016E40000DA97E0019B0021586A03AA01F0F5FB98
:1016F400051E00DA8EE0039B00221979186801F0B8
:10170400FFFB051E00DA85E001227E683B69346830
:101714001D68236893432360B06801F088FD0028A6
:1017240000D17CE0B068F1688368DB68002B00D0EE
:101734009847EFF31082012383F3108821680B3359
:101744000B43236082F3108829003800FFF704FF5D
:10175400051E02D016256D425CE0337E002B03D0BB
:101764000823A2681343A360737E002B04D0802354
:1017740062681B0213436360B37E002B04D0802392
:1017840062685B0213436360F37E002B04D0802302
:1017940062689B0213436360337F002B28D0214B84
:1017A4009C4208D0204B9C4205D0204B9C4202D046
:1017B4001F4B9C42CED17B681A6880239168DB0161
:1017C4000B4393602268737F1A495B050A401343F5
:1017D40023602268B37F18491B040A401343236023
:1017E400F37F002B04D08023A2681B021343A36061
:1017F400012322681343236080239B03E2691A4276
:10180400FCD08023DB03E2691A42FCD0019B380040
:101814009B6A9847280005B0F0BD58259BE713251F
:1018240099E7C046003801400044004000480040A9
:10183400004C0040FFFF1FFCFFFFE0FFF0B54368D2
:1018440085B01C68036906001B680D0003930B79BF
:10185400012B1DD09A1E51424A41920202926A798A
:101864000192022A17D80199304A4800825AAF7966
:10187400022F13D0042F02D00020834218D08020DE
:101884004001D91E01290FD88620404205B0F0BD81
:10189400C022D200E2E780229201E8E70020002B78
:1018A400EFD18020400503E0002B01D0042FEBD0C2
:1018B40080235B019C460023624509D0C0239B0121
:1018C4009C460223624503D0013B002A00D0023328
:1018D400019A9A42D8D1029901F09FFB8742D3D151
:1018E400EB79002B0DD0012B1CD1114B9C4208D05D
:1018F400104B9C4205D0104B9C4202D00F4B9C4293
:10190400C2D1012723682900BB4330002360FFF7BD
:1019140023FE0028B8D123681F43039B276006CD0C
:1019240006C3B3E7032BE0D0AEE7C046643B000830
:10193400003801400044004000480040004C004092
:1019440070B50369C0221B680C001B68D2000B60D1
:101954008021436805001B68C9001B6813400222EC
:101964008B4204D01C4A9B185A425341DAB2C0211C
:10197400802022716B6889011B6800225B6840012A
:101984000B40834206D002328B4203D0013A002B33
:1019940000D0023262716B681B6818681968C02332
:1019A400DB0019400D4B184001F037FBC022A07139
:1019B4006B6892001B689B681340094A9B185A4243
:1019C4005341DBB2E3716A6812689268520400D52D
:1019D40003230020E37170BD00FAFFFF0010001024
:1019E40000FDFFFF70B543680D001C68C02320682C
:1019F4002168DB001940114B1600184001F00DFB63
:101A0400042817D08023E26900201A4211D0EFF392
:101A1400108272B6311A002906DDE169194203D039
:101A2400295C01302185F5E7002A02D162B6BFF3B3
:101A34006F8F70BD86204042FBE7C0460010001047
:101A440070B543680D001C68C02320682168DB0062
:101A540019400D4B1600184001F0DFFA042810D08D
:101A6400002020220823311A00290CDDE1691142EB
:101A740009D0A18C2954E16901301942F3D02362C1
:101A8400F1E78620404270BD0010001030B50C49CB
:101A94000C4A8C6812680D688B68002C00D1140005
:101AA400002B00D113000848ED0301D49C4203D25B
:101AB4000468A4180460096800688018C01A30BD5E
:101AC40010E000E0C8030020BC030020094A002005
:101AD400136A1B021B0A13629622074B52011A60F7
:101AE400064B074A1860074B5A60072298601A6031
:101AF4007047C04600ED00E0C8030020BC0300208E
:101B0400BF12000010E000E070B5FFF7BFFF0E4BFE
:101B14000E4A186811680E4C401810609621002275
:101B240025681A60401B4901FEF7CCFA96235B0135
:101B340043435B192360EFF3108172B600F020FD7C
:101B4400FEF7FEFE70BDC046BC030020C4030020A7
:101B5400C0030020F0B5334D334E85B0002953D077
:101B6400431C08D101222B6893432B60FF231B06DF
:101B7400336005B0F0BD336801930027012848DCC9
:101B8400EFF31083039372B6FFF780FF0022AB6874
:101B94000293264B1C68264B04191A60254B1B68BC
:101BA4000093E01A90423ADB96235B015F43224A9A
:101BB400C01919008018FEF785FA96235B01584373
:101BC400009B1B1B18188023DB00984200D21800CE
:101BD4001A4B984200D91800002330600138A968D4
:101BE4006860AB60029B02985A1AA318884202D21A
:101BF400019B9B181B190D4A1360039B002BB8D142
:101C040062B6BFF36F8FB4E733680193431CB4D15A
:101C14000B480C4B984200DD1800471EB0E78020AB
:101C2400C000D9E710E000E0C8030020C40300208E
:101C3400BC030020C0030020BF12000080E8FF00A6
:101C4400A60D0000A70D000070B5EFF3108572B665
:101C5400084A094B14681B68E41AFFF717FF0019B8
:101C6400002D02D162B6BFF36F8F96214901FEF7B2
:101C740029FA70BDC4030020C00300200C2070B5F5
:101C8400134D6B681840082808D00C38434258415B
:101C9400104B40421840104BC01870BD0F200F4924
:101CA4009A0C02408C5CEA6A0D490240895CC022AD
:101CB4008020520213404002834201D1064802E0D0
:101CC4009342FBD10748FEF7FDF96043E5E7C046C0
:101CD40000100240005A620200127A002D3E0008F1
:101CE4001D3E0008006CDC0202000120002A0FD017
:101CF400094B0A4993429B410A685B4282431A4357
:101D04000A600A6802409A4203D00A6810405840A8
:101D140070470020FCE7C04600366E0100200240F8
:101D240070B5EFF3108572B6064B9C6801F08FFA1C
:101D3400002D02D162B6BFF36F8F2000FEF710FEB4
:101D440070BDC046CC030020F8B501270A4E8300BD
:101D54009D59013084003359AB4200D8F8BD6868FE
:101D6400002806D0037E3B4201D101F047FA083532
:101D7400F1E72B689847FAE74C3B0008012270B55D
:101D8400234B86B003201A70FFF7DEFF00F062FCDD
:101D94000420FFF7D9FF1F4C26001F4DAC420ED381
:101DA40000F0BAF9AE4220D300F0C6F9FEF7CCFA3F
:101DB40001211A4A93898B43938106B070BD636AEB
:101DC4000593236A0493E3690393A3690293636904
:101DD400019323690093E368A2686168206800F0B6
:101DE400ADF823685C653034D7E7B26AF36A511CF6
:101DF40001D1591C05D011003068194303D101F0F9
:101E04006FFA3036CEE70649183000F029FBF8E7C0
:101E1400F80300200038000800380008C001002042
:101E2400CB32000870B57026012504004643010238
:101E3400114880220918002086B004950E350395B8
:101E4400053565430D4B0590029001900C48F6183A
:101E54002D180C4B30000095520000F06FF804224E
:101E6400337C2C74934333740134074BE402E41839
:101E7400EE606C6006B070BD000C002050010020C4
:101E8400CC0300205932000800040020F0B50020E3
:101E940087B0FFF759FF204B83F308881F49204B75
:101EA4000A6A00251A40C0231B0413430B62FEF781
:101EB40099FCFEF73FFD1B4800F07AF8FEF77AFB29
:101EC4000120FFF741FF0220FFF73EFF00F05CF91D
:101ED400154C164B80225C61154B164E059301235D
:101EE40015490493D200330020000395029501950F
:101EF400009500F023F804220700237C200093437C
:101F0400237401F0C1F92800FFF78CFF3200390077
:101F14002000FEF7F3FCC046000C002000ED00E0BA
:101F2400FFFF00FF30020020C0010020CC0300208E
:101F34009D3D0008811D0008000D0020F0B587B00C
:101F44000593030058338365C365109B072783817A
:101F5400042300250732BA430374D2190F9BBA43F2
:101F640083738B180E0085601900C5738561C56184
:101F740004000493FEF79EFB049BC019B8431F1A88
:101F84000E9B3A0002930D9B310001930C9B2000A1
:101F94000093059BFEF79CFC044B65659B68AB4274
:101FA40000D01B6E3800236607B0F0BDCC030020C0
:101FB40001230374838100230366014B98607047F7
:101FC400CC0300200B21084A49429368D9669866DD
:101FD400802306495B05486803434B6062B6BFF340
:101FE4006F8F9368D86E7047CC03002000ED00E03B
:101FF400102370B5C356027C002B31DBD3062FD1DE
:1020040080235B4213431A4C0374A3691949E269A0
:102014008B4207D1016042601060E0610FE09A4298
:10202400F8D01B68002BF5D00E260E259E57455779
:10203400AE42F4DD5A680360426010605860A569DE
:102044008D4201D0002D00D1E568A3681A7CD20628
:1020540007D1DA897F2A04D9AA69002A01D16361E8
:1020640070BDAB4202D0280000F062F96561F7E769
:10207400CC030020E403002010B500280AD1EFF3BC
:102084000580002807D1064B5A699B689A4202D002
:10209400FFF798FF10BD62B6BFF36F8FFAE7C04633
:1020A400CC03002070B51A4CA168E3690A68CB1A06
:1020B400581E834149685B420A6051601340E169DC
:1020C400A268002B05D1134B516013600A60E261D2
:1020D4000AE00E250E205D571056854213DD59681F
:1020E400136051600A605A60A5690A4B9D4201D091
:1020F400002D00D1E568A3689D4202D0280000F0BD
:1021040017F9656170BD8B42DDD01B68D9E7C04605
:10211400CC030020E4030020EFF3108172B6054BDA
:102124009A68D37B013BD373002902D162B6BFF313
:102134006F8F7047CC03002070B5EFF3108672B632
:102144000F4DAB68DA7B0132DA73AC690D4A944205
:1021540001D0002C00D1EC681A7CD20605D1DA89B2
:102164007F2A02D9A269002A05D09C4202D020000D
:1021740000F0DEF8230030006B61FFF77DFF70BDD7
:10218400CC030020E4030020024B034A9A61DA6185
:102194007047C046CC030020E4030020014B98683C
:1021A4007047C046CC030020F7B58389040001932F
:1021B400EFF31083009372B60823027C1A4206D010
:1021C400009B002B02D162B6BFF36F8FF7BD1900DD
:1021D400114348B2002857DB2174A368002B02D0B6
:1021E400200001F046F820002600183001F094F891
:1021F4005836A56DAE4201D0002D4DD1304F00258B
:10220400BB689C4204D1EFF305856A1E9541EDB28B
:10221400BE692C4A964201D0002E00D1FE68B3421A
:1022240002D0300000F084F820007E6100F04EFD02
:10223400002D02D02448FFF7BBFEBB689C4238D176
:10224400EFF30583002B34D1A389DB070FD5009B63
:10225400002B02D162B6BFF36F8F62B6BFF36F8FEC
:102264000423181C02DFEFF31083009372B6009866
:10227400FFF7A8FE019BDB07A8D562B6BFF36F8FFB
:102284000423181C02DFA1E77F210A401343200026
:10229400237400F0E6FFA0E7280000F0EAFF28001E
:1022A400183001F039F800232800EB66FFF7A0FE90
:1022B4009FE7009B002BDDD162B6BFF36F8FD9E798
:1022C400CC030020E40300203002002010B5047C7D
:1022D4001F21220003000A4000200C4211D10949A9
:1022E40010008B420DD008490868002809D0D9890C
:1022F4007F2905D80E215956044B1B68994200DAF0
:10230400100010BD5001002018010020F00300202F
:102314000121044B044AC01A044BC0104343D15456
:102324007047C046A0020020F9030020ABAAAAAA65
:1023340070B518250B4B1E7CFFF7C8FF75430A4B7D
:102344000400ED18280000F0E7FF0022074B9A551F
:10235400944205D0621E28000549D31700F080F886
:1023640070BDC046CC030020A0020020F903002069
:102374001523000870B5EFF3108572B6104A114B9F
:1023840094681868A04207D1FFF7D2FF002D02D14C
:1023940062B6BFF36F8F70BD00211960127C0A4BC7
:1023A4009B5C8B42F2D02000FFF790FF0028EDD019
:1023B400237CDB0601D1FFF775FE2000E4E7C0466D
:1023C400CC030020EC030020F9030020024B186822
:1023D400984200D1002070471C01002070B506000F
:1023E400FFF7F4FF00280ED0026943693400F517A3
:1023F400121BAB41002B06DC01D1002A03DBD843BE
:10240400C017104070BD0148FCE7C046FFFFFF7FC6
:10241400002010B5034B1B68834201D1FFF714FC65
:1024240010BDC046F403002030B500280ED00B4B7D
:102434005B6898420AD00168002907D00A694B6991
:102444000469456912196B410A614B61036842686A
:1024540013605A6000230360436030BD1C010020F8
:10246400F0B5040015001E0085B0531C02D1731C86
:1024740000D17CE0A160EFF31083039372B6002EC9
:1024840026DBFFF7C5FF00210090012040197141B0
:10249400009AD31712184B413649226163610868C8
:1024A400496812184B411E00150001230293FFF7DF
:1024B4008DFF0700304B9C465B680193002F1DD1B4
:1024C40063462360019B63601C6063465C6027E095
:1024D400284B1868596802225242D317121A8B41AA
:1024E400521BB3411100002B04DC01D1002A01D19D
:1024F40001210023636121610023D7E738697969E9
:1025040022696369994202DC28D1904226D9801A53
:1025140099417B6838617961636027601C607C60E5
:10252400FFF754FF84420FD1144B1B68002B0BD1CF
:10253400029B002B02D1FFF76BFF00900098FFF77E
:102544004DFF0021FFF706FB039B002B02D162B66F
:10255400BFF36F8F2800310005B0F0BD121A8B4114
:1025640022616361019B9F42AAD03F68A6E70025D0
:102574000026EFE7B80200201C010020F40300202D
:10258400F0B5050089B0314B03911D60FFF71EFFC4
:102594002F4904000A684B68E81704920593002C3D
:1025A40010D02669676900950190874202DC24D126
:1025B400AE4222D932003B00009E019F921BBB41D8
:1025C400226163612A00049C059D030012196B417A
:1025D40000240A604B601D4B20001C60FFF7FEFEC8
:1025E4002100FFF7B7FA039BA34202D162B6BFF3FF
:1025F4006F8FFFF7BFFE09B0F0BDF3170696079380
:10260400069A079B049805998018594100220023D3
:102614000F4D22616361286069602000FFF704FFA9
:10262400802301221B0622616361039B002B02D1DC
:1026340062B6BFF36F8F2000A3689847EFF310834F
:1026440072B60393014B1D68AD1B9EE7F403002093
:10265400B802002010B5024800F0B5FA10BDC0461B
:10266400A23D0008F0B5436891B0019006938378C9
:10267400170000269B0700D524E20126764257E086
:102684004D788B1C0993252D00D124E200220421CE
:10269400099B1400009205920A3209931F2C1FD83B
:1026A4002800203810281DD8FDF702FD0E1C1C1828
:1026B4001C1C1C0F1C1C1C0C1C161C1C09000120BF
:1026C400044302E0022004430C43099801330578D3
:1026D400002DE2D1099337E00820F1E71020EFE75D
:1026E4007F2C28D82800303809280DD840252C42C2
:1026F40004D0009D554328180090E6E7059D5543F6
:10270400281805902020DBE72A2D0CD101CF65067F
:10271400F2D4002803DB202505902C43D5E7404262
:1027240005902820CCE72E2D05D140200442C7D0A7
:10273400300011B0F0BD6C2D2CD026D8682D31D0CE
:102744006A2D32D04C2D30D0009B002B03DA40236D
:102754009C430023009320232B431A00653A022A4A
:1027640001D9612B24D10722FB1D934308331F0099
:10277400B84B00920493240752D53400009B9D1952
:10278400AC424FD1059B009A61E1742D9DD07A2D06
:102794009BD0D9E78020044200D191E78025AD0089
:1027A4002C438DE780204000F5E7A020800087E7D8
:1027B40028006338122800D9E2E0FDF779FC0A43C7
:1027C400E1E1E1E143E1E1E1E1E1F2DCE1E111E157
:1027D400A300012302CF0AAA117000930492CAE74E
:1027E40008CF0493002B01D19B4B0493630602D4BE
:1027F40001235B4200930099049800F0E5FD0090EA
:10280400B9E720200199069B9847002813DB013C77
:10281400009BA342F5D3059B05949E19361BACE798
:10282400059CF5E7049B01999B1B185D069B984743
:1028340001340028A4DA019B9A7804231343019AF3
:1028440093701AE723063FD5A30538D50722073727
:1028540097430CCF02920393102322009A43039BC5
:102864000892002B39DA0299039A00244B429441CE
:10287400029303948023089ADB0013439BB20893CA
:102884000AAC0A2302980399220000F0A8FD031B56
:102894000793079B089C049323005B0600D4A1E0E4
:1028A4000123079A9C43009B934200DC9AE0002D8D
:1028B40000D095E01123089C9C43009B1AE008CFAC
:1028C4000293DB170393C7E708CFE205F8D5A20507
:1028D40001D55BB2F4E71BB2F2E7029B039A134300
:1028E400CED16306CCD5009B002BC9D111339C43B8
:1028F400009B07930493594B23405A1E9341049A17
:10290400D31825E010239C43063B9C4680232200D9
:102914001A4004921C424AD021008133FF331940EB
:102924001C4242D00722FB1D93431F0003CB0837F0
:1029340003000B434DD1220016339A4308926306D9
:102944004AD5009B002B47D117339C43009B079328
:102954000493230761D4E3070BD5079B049A0093E0
:10296400059B934205DD9B1A079A9B180093059BD0
:102974000493049B48E0102378259C461C43C5E738
:10298400782B04D110225B1B1A439446BEE7252002
:102994000199069B9847002800DA4CE70236E8B212
:1029A4009AE0082300259C46B0E701CFC0E78022C7
:1029B400210008CF5200180011401442B8D08022E0
:1029C40021009200114098B21442B1D00499D8B2B7
:1029D400AEE706239C4308940AAC6346220054E7FE
:1029E400009B0493E30686D52B005A1E9341049A58
:1029F4009B180133ACE720200199069B98470028D7
:102A040000DA18E7089B01330893089A059B934260
:102A1400F1DC049B0492F61AB618E30628D530209C
:102A24000199069B9847002800DA04E7002D17D186
:102A340001363400009B079AF3181B1B9A4223DBD0
:102A44001500002D28D1079B049A1C19059B26000C
:102A54009D1A32E0E33D0008DC3D00080604000056
:102A64000236E8B20199069B98470028E1DAE2E6CB
:102A74001C4B1C42DDD02B20A30700D40B3864056B
:102A840000D52D200136EDE730200199069B013455
:102A940098470028CEDACEE60AAB013DE85C0199FE
:102AA400069B98470028CCDAC5E620200199069BAE
:102AB40001369847002800DABDE663199B1B002BFA
:102AC400F3DC09990878002800D131E6252800D1E3
:102AD400D6E54B1C099301360199069B98470028BB
:102AE400EFDAA8E6060400007047C90040184088E1
:102AF40040087047F8B50D000400FFF7F6FFFDF736
:102B040029FB1F21091A8A00A218EB0010691F1D56
:102B14000633E719E318AEB2002808D10130884023
:102B2400E1680143E16015613E801E80F8BDC1008B
:102B34000431625A3A80D200A2181880D6806652B4
:102B4400F4E70723F7B50027043ACC1D89189C4302
:102B540099430E1BF6080460A660E76030000091FC
:102B64002425FDF7F7FA20222D1A121A2000390025
:102B74009200103000F020FC0122AD000735ED0872
:102B8400A9B24B0013436380731BEA009BB2019309
:102B9400A01803000198278040008446180063466B
:102BA4004380A1520122009B0199F6005F801980A5
:102BB400A61973882900134373802000FFF79AFF36
:102BC400F7BD002070470FB407B504A901C90191EE
:102BD400FDF73CFC03B008BC04B018477047F0B5DF
:102BE400012685B0302402934368144058683300AA
:102BF400019494098B4034408C40456802369D43CF
:102C04002C43446084680327A4461C008C4066431C
:102C1400F5430395D5093D4065432F006546B5430B
:102C24002F4387600327520A3A406243C568B5437D
:102C34002A43C260019A202A0CD1072915D82300FF
:102C44008B408B400F215943026A8A4302994B43BC
:102C540013430362019B02681B095C43039B1A40F4
:102C640014430460002005B0F0BD0F211B0A5B4330
:102C74005B435943426A8A4302994B431A43426273
:102C8400E8E710B500F098FB10BD10B500F08BFB21
:102C940010BD10B501000068FDF7DAFC10BD10B5D9
:102CA400FDF706FDFDF74CFE10BD10B50021012017
:102CB400FDF7CEFC10BD10B5FDF766FCFDF7A2FCD8
:102CC400FDF7ACFCFDF7A0FEFFF7E0F886204042DC
:102CD4007047002802D162B6BFF36F8F7047BFF30D
:102CE4004F8F30BF62B6BFF36F8F704710B5FDF7DB
:102CF400B9FE002010BD1F230120194088407047F1
:102D0400022803D8002807D000207047C31F0020E2
:102D1400022BFAD98638F8E786204042F5E7704757
:102D2400436800205B681B690B60704743685B68FD
:102D3400586942401140414059610020704743683E
:102D440000205B6899617047436800205B68996262
:102D54007047436800205B685A6951405961704765
:102D640030B503690024986800280FD1002A1BD1CC
:102D74001620404230BD2060D868814210D1DC600A
:102D84000EE005680400002DF0D028008842F8D138
:102D94000868002CEFD1DC689860A14200D1D860AB
:102DA40000200860824206D09A680A60DA68996056
:102DB400002A00D1D9600020DCE71300F7B5802297
:102DC4001F00920217400C00019713424DD09A073E
:102DD40044D55A0765D55022D90641D580218900AA
:102DE4000A43C02519008026ED002940F600B142AF
:102DF4004BD0A94245D08025AD00A94247D0C0217F
:102E04001E0089020E40056900960B4214D06E68BC
:102E14003100E1408C46012167460F4202D1A140B6
:102E2400314369600199002906D0190331D5012382
:102E3400A340416849688B6100232100FFF7CFFE5E
:102E4400009B002B08D16B6801221900E14011425C
:102E540002D0A24093436B600020FEBD1022BBE76A
:102E64009906BED58021C900BAE73022D903B8D566
:102E7400DA0603D49A06D20F9202B2E780229200B5
:102E8400AFE7C02149000A43B9E78021FAE780216E
:102E9400F9E75B03D0D50123A340416849688B62FD
:102EA400CAE786204042D8E770B50B690E009968DE
:102EB4000500002902D00C68002900D170BD8B6880
:102EC4001A002A402B4202D030004B689847231E38
:102ED40000D0236821001C00EEE730B503681360BE
:102EE40005790468ED006419A34202D3022040422C
:102EF40030BD0833DC1E24788C42F0D10020F7E783
:102F0400F7B504000025C90043180193019B9C42B6
:102F140001D10020FEBD102327681F4222D12025A5
:102F240063681D431F23780A1840FDF7D7FA061E6D
:102F340024D0FB051A0F1F231F406B4600921978FB
:102F44002A003B00FFF74BFE0028E3DB112F07D1DB
:102F5400736800995A6801238B4029050CD5936145
:102F64000834D3E71F233B40102B03D0112BD9D1B6
:102F74006568D7E73025D5E79362F1E7132040422F
:102F8400C8E74163704781637047C1637047016458
:102F9400704710B51400426803695168186801311C
:102FA400FDF790F820600020606010BD4068CB03FE
:102FB40000681B0D1B181F2001401E3888401B6829
:102FC4000340591E8B410020137070474268CB03A5
:102FD40012681B0D9B181F2211401E3A8A40186864
:102FE40002431A600020704742681F20CB0301404F
:102FF4001E38884012681B0D9B181A6882431A6099
:103004000020704770B50D000400FFF7DFFF2900B2
:103014002000FFF7E9FF002070BD80220300520169
:103024000800934207D080225205934207D14342BD
:10303400584101307047434258410330FAE7434254
:1030440058410230F6E7012143681A68D069D36910
:1030540000070B408B40D169C00F18430423890734
:1030640000D51843D169194201D020231843802385
:10307400D1695B00194202D0082113620843C307D7
:1030840001D508231362830701D501231362430783
:1030940001D502231362830601D50423136270470A
:1030A40043681A68EFF31081012383F310881068D2
:1030B4003F330343136081F31088704743681A68F1
:1030C400EFF31081012383F31088402013688343B6
:1030D400136081F31088704743681A68EFF3108116
:1030E400012383F3108810681F330343136081F3B3
:1030F4001088704743681A68EFF31081012383F343
:103104001088202013688343136081F3108870476C
:1031140043681B68D8698006C00F70470120704758
:10312400036959609A60704710B502695368002BAF
:1031340001D09168984710BD002210B511001B20E2
:10314400FDF79CFB1B20FDF78DFB10BD002210B585
:1031540011001C20FDF792FB1C20FDF783FB10BD22
:1031640043681B68D8694006C00F70474368002055
:103174001B68DA69120602D518684006C00F70474A
:10318400802210B543681B68D8691042FCD0EFF365
:10319400108072B6DC69144205D10028F4D162B6FD
:1031A400BFF36F8FF0E71985002800D010BD62B619
:1031B400BFF36F8FFAE7202243681B68D969114275
:1031C40003D019680120114206D1DA6900205206A1
:1031D40002D518684006C00F7047082243681B6870
:1031E400D869104200D01A62DA69920603D5002029
:1031F4009B8C0B70704701204042FBE710B543697C
:103204000400002B07D100230122E168487802431F
:103214004A70584210BD98470028F4D0C11743188B
:10322400E2684B40FF2B00DDFF231370ECE700281E
:1032340008D0C36800205A78D20703D518784342CF
:103244005841C0B27047EFF3108372B6FEE710B571
:10325400FFF7F9FF10B5EFF3108372B6FFF73FFDE8
:10326400F9E70368426813605A600023036043600F
:10327400704710B50400FFF7F4FF0222237C934348
:1032840023740023A36010BD10B5EFF3108472B64D
:10329400FEF7AEFE002C02D162B6BFF36F8F10BDF5
:1032A400282310B5027C04001A420BD18368002B3A
:1032B40001D0FFF7DEFF0422237C20009343237414
:1032C400FEF796FE10BD10B5EFF3108472B61838F1
:1032D400FFF7E6FF002C02D162B6BFF36F8F10BD7B
:1032E40070B50400EFF3108572B60426037C3342F4
:1032F4000CD0183000F010F8237C2000B343237462
:10330400FEF776FE2800FEF7B7FE70BD002DFCD157
:1033140062B6BFF36F8FF8E770B50400EFF3108562
:1033240072B60368002B1BD0FFF750F8060020008C
:10333400FFF77AF8802300221B0622616361A6420C
:1033440006D00020002D02D162B6BFF36F8F70BD8E
:10335400FFF75EF8FFF742F80021FEF7FBFBF0E70A
:103364000369012B09D1802342691B069A4204D1C7
:10337400802300221B060261436116204042E1E7DC
:10338400030070B5EFF3108572B6066801240020BF
:103394008E4201D120001A60002D02D162B6BFF323
:1033A4006F8F204070BD002310B59A4200D110BD2C
:1033B400CC5CC4540133F8E703008218934200D173
:1033C400704719700133F9E7030041188B4202D0AA
:1033D4001A78002A01D1181A70470133F6E7F0B5BC
:1033E4000D003721C91A8FB0C9B20D911F210400F5
:1033F4000B400C930C99E3B2082955D0102900D145
:1034040064E0E90760080843690806900791A0088A
:10341400A9070843A90808900991089E099F0698DE
:103424000799801979410E07B44606090096664645
:10343400009F37430E0900970196009E019F801953
:1034440079410E06B4466746060A3E4302960E0AC2
:103454000396029E039F801979410E04B446674681
:10346400060C3E4304960E0C0596049E059F801997
:10347400794100260A910B960A9E0B9F8019794187
:103484004E07CD080521C4083443614349005B1A43
:10349400DBB2092B12D9012000210A3B24184D412B
:1034A400DBB21DE00200A5E707210B4069078C464B
:1034B4006646E008E908064334000D003033137013
:1034C4002300501C2B43EDD10FB0F0BD0F210B4056
:1034D40029078C46664620092909064334000D0055
:0C34E400092BEBD90D99CB18DBB2E7E700
:0834F00070CDFF7F0100000018
:1034F80000000000903500087D040008000000006E
:1035080000000000AC350008000000001C36000870
:103518000000000054360008000000007036000863
:1035280000000000383600080000000000360008DF
:1035380000000000E435000800000000C83500085D
:10354800650B000800000000000000008C36000831
:1035580000000000A8360008C50F000800000000A1
:10356800D11A000800000000910A000800000000BD
:1035780000000000FC36000800000000C436000807
:0835880000000000E03600081D
:103590005B3D0008000000003C38000842010020AC
:1035A00000000000490E0008000000006C3D00080B
:1035B000A03A00082C3800084A0100200000000052
:1035C0000000000000000000933B0008AC38000839
:1035D0000038000834010020C0020020B9040008AF
:1035E00000000000A13B0008C038000800380008B7
:1035F00036010020D0020020B904000800000000BD
:10360000AF3B0008D438000800380008380100201B
:10361000E0020020B904000800000000BD3B0008E3
:10362000E8380008003800083A010020F0020020C5
:10363000B904000800000000CB3B0008FC3800087B
:10364000003800083C01002000030020B9040008F5
:1036500000000000D93B00081039000800380008BD
:103660003E01002010030020B90400080000000003
:103670003D3D000800000000000000004001002067
:1036800000000000B50A0008000000007D3D0008B1
:10369000A43A0008583800084C010020EC00002033
:1036A000C9160008000000008D3D0008F83A000827
:1036B000583800084E01002000010020C9160008FB
:1036C00000000000683D00088C390008243800081C
:1036D00044010020C8000020D912000800000000AA
:1036E000683D0008DC390008243800084601002045
:1036F000D4000020D912000800000000683D000836
:103700002C3A00082438000848010020E00000207E
:08371000D912000800000000BE
:1037180000000000AF2C000800000000AF2C0008DB
:1037280000000000AF2C000800000000AF2C0008CB
:1037380000000000AF2C0008EF3D00081D0B00083A
:10374800ED3D00081D0B0008EB3D00081D0B0008AF
:1037580000000000AF2C000800000000AF2C00089B
:1037680000000000AF2C000800000000AF2C00088B
:1037780000000000AF2C000800000000AF2C00087B
:1037880000000000AF2C000800000000AF2C00086B
:1037980000000000AF2C000800000000AF2C00085B
:1037A80000000000AF2C000800000000AF2C00084B
:1037B80000000000AF2C000800000000AF2C00083B
:1037C80000000000AF2C000800000000AF2C00082B
:1037D80000000000AF2C000800000000AF2C00081B
:1037E80000000000AF2C0008A83600082D310008A2
:0837F8008C3600082D31000899
:10380000BF2D0008252D0008312D0008432D00088C
:103810004D2D0008572D000819100008652D0008CF
:0438200000000000A4
:08382400C9100008972F0008ED
:10382C00B12F0008D12F0008ED2F00080930000837
:10383C00D50C0008150D000800000000450D00080F
:0C384C00150E000800000000CD0D000863
:10385800DF310008853100084B30000841180008A6
:1038680045190008E9190008451A0008A53000089C
:10387800C130000871310008DD300008F930000857
:10388800653100081531000875140008C1140008D6
:0C389800BB310008213100082531000878
:1038A4001800000001000000FFFF000000140048A1
:1038B400050000001400000000004000FFFF0000AD
:1038C4000010004804000000140000000000200064
:1038D400FFFF0000000C004803000000140000007B
:1038E40000001000FFFF0000000800480200000074
:1038F4001400000000000800FFFF0000000400485E
:10390400010000001400000000000400FFFF00009C
:103914000000004800000000140000000000020045
:1039240054360008383600081C36000800360008F3
:10393400E4350008C835000800000000000000005D
:103944000000000000000000000000000000000073
:103954000000000000000000000000000000000063
:103964000000000000000000000000000000000053
:103974000000000000000000000000000000000043
:1039840000000000000000000000004000000000F3
:10399400000000000000000000000000AC39000836
:1039A40002000000BC3900081C00000001000000F7
:1039B40008000000FF000000C439000801000000F6
:1039C400CC390008020000000200000000000000E2
:1039D400220000000000000000040040000000007D
:1039E400000000000000000000000000FC39000896
:1039F400020000000C3A00081C0000000200000055
:103A040008000000FF000000143A00080100000054
:103A14001C3A00080200000001020000000000003F
:103A24002102000000000000002C01402F000000D3
:103A34000000000000000000000000004C3A0008F4
:103A4400020000005C3A00081800000000080000B2
:103A540008000000FF000000643A000801000000B4
:103A64006C3A0008010000000201000000000000A0
:103A7400872F00088B2F00088F2F0008932F000832
:103A840004000000400000000004000001000000E9
:103A940010000000000100000010000000100240AF
:103AA4000044004090350008AC35000811020000C5
:103AB400D03A0008010000000000000000000000EF
:103AC40000000000D83A0008513100081C00000032
:103AD40000000200E03A000801000000E83A000893
:103AE400020000004100000000020000610000002C
:103AF400000000000038014090350008AC35000893
:103B04008E010000243B00080100000000000000BA
:103B140000000000000000002C3B00083D310008BC
:103B24001800000000400000343B000801000000C1
:103B34003C3B0008020000002101000000020000DC
:103B44004101000000000000F8340008F8340008C7
:103B54006835000870350008903500089035000875
:103B6400001000000030677269707065725F696EE2
:103B74006974206661696C65640A006772697070B3
:103B840065722068656C642061742025640A00678E
:103B940070696F40343830303134303000677069C8
:103BA4006F403438303031303030006770696F40E6
:103BB4003438303030633030006770696F403438E7
:103BC400303030383030006770696F40343830300E
:103BD40030343030006770696F4034383030303002
:103BE40030300072302F61313A202030782530385F
:103BF40078202072312F61323A20203078253038F5
:103C040078202072322F61333A20203078253038E2
:103C1400780A0072332F61343A2020307825303806
:103C240078207231322F69703A202030782530386C
:103C340078207231342F6C723A2020307825303855
:103C4400780A0020787073723A2020307825303852
:103C5400780A004661756C74696E6720696E7374C6
:103C640072756374696F6E20616464726573732026
:103C7400287231352F7063293A203078253038780E
:103C84000A00556E68616E646C6564204952516E19
:103C94003A2025640A00526573657276656420458E
:103CA4007863657074696F6E20280053707572694B
:103CB4006F757320696E746572727570742028490B
:103CC40052512000535053454C20696E2074687241
:103CD400656164206D6F646520646F6573206E6F29
:103CE4007420696E646963617465205053500A00DE
:103CF4002A2A2A2A2A2048415244204641554C5413
:103D0400202A2A2A2A2A0A00415243485F45584356
:103D1400455054207769746820726561736F6E2012
:103D240025780A0A002A2A2A2A2A202573202564AB
:103D340029202A2A2A2A2A0A00696E746572727551
:103D440070742D636F6E74726F6C6C657240343076
:103D540030313034303000726363403430303231CB
:103D64003030300070776D0072657365742D636F49
:103D74006E74726F6C6C65720073657269616C400D
:103D840034303030343430300073657269616C40E3
:103D94003430303133383030006D61696E002A2A96
:103DA4002A20426F6F74696E67205A657068797251
:103DB400204F53206275696C642076342E342E3083
:103DC4002D3732322D6735396463393035653830F3
:103DD4006137202A2A2A0A00286E756C6C29002A69
:103DE400666C6F61742A00040C0202000200010276
:103DF4000304050600020406080A0C00000800007B
:103E0400000800000000040404000000000000009A
:103E1400000102030406070809010203040506075A
:103E240008090A0B0C0D0E0F1002030405060708FF
:0C3E3400090A0B0C0D0E0F10100000000E
:103E4000C72B000800000000F12C00080000000053
:103E50000000000000000000AC3500080002000077
:103E600000000000AC350008010200000000000066
:103E7000AC3500088B010000F800002000000000B5
:103E80000000000000C20100000103000C0100203E
:103E9000000000000000000000C20100000103005B
:103EA00000127A00C80000001C0100201C01002044
:103EB000FFFFFFFFFFFFFFFFFFFFFFFFFFFFFFFF12
:103EC00000000000000000000000000000000000F2
:0C3ED000000000000000000000000000E6
:043EDC0015E015E0F8
:040000050800080DDA
:00000001FF
