:020000040800F2
:1000000000110020FD0A00087F310008E90A0008FD
:1000100000000000000000000000000000000000E0
:10002000000000000000000000000000310B00088C
:1000300000000000000000008D0C0008FD1D0008FD
:100040002D0D00082D0D00082D0D00082D0D0008A8
:100050002D0D00082D0D00082D0D00082D0D000898
:100060002D0D00082D0D00082D0D00082D0D000888
:100070002D0D00082D0D00082D0D00082D0D000878
:100080002D0D00082D0D00082D0D00082D0D000868
:100090002D0D00082D0D00082D0D00082D0D000858
:1000A0002D0D00082D0D00082D0D00082D0D000848
:0400B0002D0D00080A
:1000B40002B4714649084900095C49008E4402BCF7
:1000C4007047C046002934D00123002210B488426E
:1000D4002CD301242407A14204D2814202D2090173
:1000E4001B01F8E7E400A14204D2814202D2490094
:1000F4005B00F8E7884201D3401A1A434C08A04237
:1001040002D3001B5C0822438C08A04202D3001BCC
:100114009C082243CC08A04202D3001BDC082243E3
:10012400002803D01B0901D00909E3E7100010BC23
:10013400704701B5002000F05FF802BD0029F8D037
:1001440003B5FFF7C1FF0EBC4243891A1847C046E6
:10015400002941D010B404004C40A44601230022DD
:10016400002900D54942002800D5404288422CD3BA
:1001740001242407A14204D2814202D209011B01B5
:10018400F8E7E400A14204D2814202D249005B00B4
:10019400F8E7884201D3401A1A434C08A04202D31C
:1001A400001B5C0822438C08A04202D3001B9C085D
:1001B4002243CC08A04202D3001BDC0822430028BF
:1001C40003D01B0901D00909E3E710006446002CA1
:1001D40000D5404210BC704701B5002000F00CF877
:1001E40002BDC0460029F7D003B5FFF7B3FF0EBC2C
:1001F4004243891A1847C0467047C0461C21012350
:100204001B04984201D3000C10391B0A984201D3F5
:10021400000A08391B09984201D30009043902A2D3
:10022400105C40187047C04604030202010101013A
:100234000000000000000000002B11D1002A0FD1A3
:10024400002900D1002802D00021C943080007B4C6
:10025400024802A14018029003BDC0469DFFFFFF63
:1002640003B4684601B5029800F04CF8019B9E4621
:1002740002B00CBC7047C046D0400B00D1409C4635
:10028400203AD34018435242634693401843704780
:100294009140030090409C46203A934019435242B7
:1002A4006346D3401943704710B5002903D1FFF7C3
:1002B400A5FF203002E00800FFF7A0FF10BDC046F4
:1002C400F7B5040C0D0091B20F0061438C46060093
:1002D400019383B2100C5F43444358433B0C604486
:1002E4001B18994202D98021490264180199554387
:1002F4007143180C04191B04BFB24919D819091900
:1003040003B0F0BDF0B587B006000F00059204936A
:100314008B4200D966E001D1824263D804990598E2
:10032400FFF7C2FF390001903000FFF7BDFF019BCA
:1003340004991B1A1A0005980193FFF7A9FF0400FA
:100344000D00B94246D801D1B04243D80120002162
:10035400019AFFF79DFF361BAF4102900391019B69
:10036400002B2ED0E90762080A4301996B088C46DA
:1003740001240025BB4232D801D1B2422FD830002B
:100384003900801A99410018494100196941060051
:100394000F00012149428C4461460029EAD1029CA4
:1003A400039D30003900019AFFF766FF019AA419F2
:1003B4007D4106000F00FFF76BFF241A8D41029464
:1003C40003950C9B002B01D01E605F60029803997B
:1003D40007B0F0BD0022002302920393BFE7B619D1
:1003E4007F41D6E70023002402930394E9E7000049
:1003F400F8B507001E0015000C000948390002F08A
:1004040050FE32002900200002F0B2FD054802F03F
:10041400A0FD00F077F9AF20800002F09AFDF8BD4E
:10042400EA400008DC050000F8B500F017F90028E0
:1004340072D13C4802F035FE00243B4AA300D75851
:100444003A48390002F02DFE0026E5B231002800BA
:1004540002F088FD0536322002F07BFD692EF5D1CD
:10046400C820800002F075FD0021280002F07AFD0A
:10047400FA20400002F06DFD39002D4802F011FE13
:1004840000263100280002F06DFD053E322002F006
:1004940060FD33006933F4D1C820800002F059FDB7
:1004A4000021280002F05EFDFA200134400002F031
:1004B40050FD042CC1D1002364211A001D48FFF70C
:1004C40097FF002364211A001B484942FFF790FF5D
:1004D4000023642219001948FFF78AFF00236422CD
:1004E400190017485242FFF783FF002264231100CA
:1004F4001448FFF77DFF0022642311005B42124879
:10050400FFF776FF114802F0CCFD00F0FBF8FA206B
:10051400C00002F01EFD8FE70D4802F0C2FD00206E
:10052400F8BDC0460B410008BC3D0008204100084E
:1005340033410008464100084E4100085741000875
:1005440063410008704100087B41000885410008B0
:10055400F7400008F0B543688BB005910393838995
:10056400046885680493A36820005B68039908AA5B
:10057400984700282BDB089E099F280032003B0087
:100584000021FFF79DFE0023144A0691FFF754FE55
:10059400069A134B050007909A421AD832003B0082
:1005A40000210598FFF78CFE00230C4A0E00FFF78C
:1005B40043FE0B4903008E420BD89D420CD3049991
:1005C400A2680091166820002A000399B0470BB076
:1005D400F0BD86204042FAE71620FBE700CA9A3BAA
:1005E400FFC99A3B0A00F8B504000B000D00643201
:1005F40027DA64256D42164AE10088585218012111
:100604001279DB439140134ADB0F165D0269734094
:1006140012680A40571EBA419A4216D08368DB68B2
:1006240098470D4A2401EB171419ED18A0685D4092
:1006340068436421FFF746FD01002000FFF78AFFAD
:10064400F8BD6429D7DD6425D5E783681B69E7E72E
:10065400CC3D00080A440008EC3D0008F0B5002633
:100664000127254D254C85B0286803F04EF8002855
:1006740003D11320404205B0F0BD206803F045F8D3
:100684000028F6D023792068E288009383689C468A
:1006940003690193D0235B0353403A4202D1B02350
:1006A4005B031343164A00991A400392019A126895
:1006B40002923A008A401100029A8A433B4203D0D4
:1006C4000B00029A13431A001300019A0099136055
:1006D4006346039A1B6898470028CCDB0021280056
:1006E400FFF738FF0028C6DB013610350834042E26
:1006F400BAD10020BFE7C046EC3D0008CC3D00085D
:10070400FFFFEFFF10B50024044B20010021C018A7
:100714000134FFF71FFF042CF6D110BDEC3D000897
:1007240010B5024B1B68984710BDC046B4000020AA
:10073400014B18607047C046B40000207FB5050027
:100744000E0010220021684603F0BEF86C46022316
:10075400A370044B320029006846019302F0B6F9F5
:100764007FBDC04625070008802102200A4BC9032B
:100774009A6982B00A439A619A690A4007490192C8
:10078400019A4A68824300204A609A6904490A40EF
:100794009A6102B07047C046001002400058014000
:1007A400FFFFBFFF10B5416807480C3183681B6821
:1007B400002B03D09847002803DC10BD582040428A
:1007C400FBE70020F9E7C046A03A000810B5192855
:1007D40002D90024200010BD044B8000C45820001E
:1007E40002F093FF0028F5D1F3E7C046A43E0008C9
:1007F40010B5EFF3108472B60A4B1A68002A08D1B8
:100804008020094A400011680143116011680142C7
:10081400FCD01A6801321A60002C02D162B6BFF310
:100824006F8F10BD240300200070004010B5EFF35B
:10083400108472B60C4B1968002909D101220B48A7
:1008440003F026F8002C02D162B6BFF36F8F10BDFF
:10085400012904D1064907480A6802400A601A6857
:10086400013A1A60EEE7C04624030020200300206A
:1008740000700040FFFEFFFF0649074A10B5521AF8
:10088400064803F018F80323054A11680B43136064
:1008940010BDC04600000008B4000008000000209D
:1008A400000001401023044A11680B431360034BFA
:1008B400034A1A607047C046002002401401002019
:1008C40000127A00F7B504000D001E00019201F039
:1008D40083FE030000F038FA054F32003B500199C3
:1008E4002800A04700F030FA385800F0B1F9C046AB
:1008F4000800000010B5034A03480021121A02F050
:100904002EFC10BDFC030020500100200648074ABD
:1009140010B5121A064902F026FC064A0648074991
:10092400121A02F020FC10BDB40000205001002077
:1009340060440008B4000020B400002060440008B3
:1009440070B505000C1E13D08B684A680F480968FF
:1009540002F0A7FB0E4863692269E16802F0A1FB7B
:100964000C48E16902F09DFB0B48A16902F099FB78
:10097400012D05D1EFF305810848103902F091FBF0
:100984002800210001F044FB70BDC0460642000867
:10099400364200086642000876420008A542000874
:1009A40030BFFDE7F7B50A4B0A4D0600EF18CC1B24
:1009B4002A0020000849019302F07DFF60190021FC
:1009C400019A02F081FF3800083C74660830FEBDCD
:1009D4000400000000000000B43D0008F0B5314BF5
:1009E40004005F6889B0FD05ED0D62B6BFF36F8F3B
:1009F400130EFF2B06D1F33B1340082B3BD12A489F
:100A040002F04FFB00263400032D3AD1274802F0B0
:100A140048FBA369264A934202D3264A934205D34C
:100A2400254A934238D3254A934235D2023B1B8848
:100A3400FF221800DF219043090288422CD1134081
:100A4400022B29D11E48216802F02BFB27682022A3
:100A54002100684602F02FFF6D46079B002E1DD033
:100A6400DA0502D1174A1343EB6129003800FFF776
:100A740067FF09B0F0BD01261207C5D50C0000269A
:100A8400C2E7F8235B0010491F4200D10F492A0036
:100A94000F48103A02F005FB0027D8E75B0A5B0217
:100AA400E2E7C04600ED00E0E74200081343000817
:100AB400B4000008003A0008B4000020B40000208C
:100AC4002B430008FF010000CE420008B942000891
:100AD400484300080821024A53698B435361704715
:100AE40000ED00E0EFF30880EFF3098101B57246F1
:100AF400FFF774FF01BDC046094880F3088872B649
:100B040008480949401880F30988EFF3148002214A
:100B1400084380F31488BFF36F8F02F03AFB0000A0
:100B24000011002000040020000800000420714689
:100B3400014202D0EFF3098001D1EFF3088081690B
:100B4400023909780229FFD001B5724602F00FFB81
:100B540001BDC04643B2000605D41F221A4001233A
:100B64009340014A1360704700E100E030B5FF256F
:100B740003220B00290040B20240D20091409B01A5
:100B84002B40C943934000280ADBC0240A4A80084A
:100B940080008018A40002590A401343035130BD59
:100BA4000F2210400838054A800880008018C26966
:100BB40011401943C161F2E700E100E000ED00E0FB
:100BC40010B5203A1360029B01245360039B06492D
:100BD4009360049BA143D36080235B04D36100230F
:100BE40091610265836610BDC908000870B50B4B9E
:100BF40015009860426E0A4B0E001A602C1C86F396
:100C040009880020034B9847201C00210022002360
:100C1400014C2047B3310008C9080008CC03002068
:100C2400280300201022014B1A61704700ED00E0F8
:100C3400054B5A699B689A4205D08023034A5B0599
:100C440051680B4353607047CC03002000ED00E073
:100C540010B50A4B9B6883420DD1EFF30583002B3B
:100C640009D08022064B520559680A435A605A6AD1
:100C740004490A405A6201F0B5FC10BDCC030020BF
:100C840000ED00E0FF7FFFFF15498A681548104416
:100C9400EFF3098CF0C043464C4655465E46674622
:100CA400F8C072B6104F114E4A698A603E60104C0B
:100CB400141920680F4C2060906E0023936600285E
:100CC40000D162B6074C10191030F8C89846A146F6
:100CD400AA46B346BC462438F0C88CF3098870474A
:100CE400CC0300203000000004ED00E00000000808
:100CF4006400000028030020F0B5C024002203266D
:100D0400FF25A40010002F003040C0008740054993
:100D140093089B005B1819590132B94319511D2AD4
:100D2400F0D1F0BD00E100E010B5EFF30583054A12
:100D3400103BDB00D118496898588847FFF778FFC3
:100D440010BDC046283C00080148006870470000F8
:100D54002803002010B5024B1B689847002010BDE3
:100D64002C030020034B044A1860022391780B43A0
:100D7400937070472C030020B8000020072310B59F
:100D84000449054A99430548521A02F048F90020DB
:100D940010BDC04607110020004000203003002091
:100DA40013B56A46064B694611CB11C205488368E0
:100DB4001B68002B01D0984716BD58204042FBE722
:100DC400B43D0008A03A0008020000201F2A08D8F9
:100DD40001239340034A50691840C01A43425841C2
:100DE400C0B27047000401401F2201230240934017
:100DF4001F2803D80020034A53617047162040423D
:100E0400FBE7C04600040140F8B5060000250127B1
:100E14007378AB4200D8F8BD347864192000FFF72A
:100E2400D3FF00280ED02000FFF7DEFF074AE100C1
:100E34008B58002B06D052181F2138000C40A040BC
:100E4400516898470135EDB2E2E7C0463C03002003
:100E54000022052010B50C4C110020706070FFF7C3
:100E640085FE002206201100A070E070FFF77EFED0
:100E74000C220721054802F027FD0022072011005B
:100E8400FFF774FE002010BD24010020280100207B
:100E940010B50400FF20002C05D02000FFF7AEF9A8
:100EA4001F23181AC0B2044B1856044B1A68144373
:100EB4001C60FFF74FFE10BD240100200004014018
:100EC400024A1368834313607047C046000401401C
:100ED400020000B5080003290AD80E4BFFF7E8F812
:100EE40002090C13996891439960D9689143D960B8
:100EF40000BD99681143F7E7D9681143D96099682F
:100F040091439960F4E7996811439960D9680A4359
:100F1400DA60EDE70004014070B5FF230D00140012
:100F2400002804D0FFF76AF91F231B1ADBB2094A11
:100F3400D8008358AB4203D111184968A14204D0A8
:100F4400002B04D1155012185460002070BD1020DD
:100F54004042FBE73C030020FF2310B5002804D0E7
:100F6400FFF74CF91F231B1ADBB20021024ADB00F6
:100F74009950D218516010BD3C030020032310B5D2
:100F84000F2403409B009C409940044A8008800041
:100F940080188268A2430A43826010BD00000140A9
:100FA400032303408008054A0230800080580F2242
:100FB4009B009A401040D8407047C0460000014052
:100FC4000B8813B50C481B051A0D1B181B0D082B99
:100FD4000ED80A4C486813191A68024300201A6094
:100FE4000B881B051B0D1B191B680193019B16BD68
:100FF40086204042FBE7C0460000C0FE00100240CD
:101004000B8809481B051A0D1B181B0D082B07D844
:101014000020064B4968D3181A688A431A6070473F
:1010240086204042FBE7C0460000C0FE001002409C
:1010340070B51E4B0D0018680B8814001B051B0DA2
:101044001C2B09D8062B0AD8042B05D8022B20D830
:10105400012B16D0022B1ED08620404218E001221C
:101064009A4013490A420BD112490A4209D1092B69
:10107400F2D100F001F9002816D000F0FDF800E0EC
:1010840040088023206029685B01994206D2002031
:1010940070BD0020F5E780200002F2E7090B013162
:1010A400FFF710F82060F2E70520D6E714010020CE
:1010B400800000110001100070B508884C6800051C
:1010C400E502000DA6B2ED0E02F088F8002812D158
:1010D400FF2C0FD0094BF21801236602B60F01361C
:1010E400B340013BAB401168240E99430B00AC4064
:1010F4002343136070BD86204042FBE7001002408A
:101104000B880A4A1B05180D9B1810B51B0D082BDC
:1011140008D8074BC01803684868984343425841AD
:10112400013010BD02F05AF8F8E7C0460000C0FED6
:1011340000100240F7B5414E00F0A2F8300002F072
:101144005CF800F013FF3E4C3E4A636835001B0612
:101154001B0FD35CD840137801901D41A84202D2E2
:10116400280000F039FF80232268DB021343236048
:10117400802322685B021343236080239B0222683E
:101184001A42FCD0FFF734FB01230227226A1343DF
:101194002362236A3B42FCD0FFF748FB0C226368BE
:1011A4001340082B16D123683B4207D10123226840
:1011B40013432360022322681A42FCD0032263688B
:1011C400934363600C2362681A42FCD1F022636883
:1011D40093436360802723681B4ABF041340236042
:1011E40023683B42FCD100F035F8802322685B047D
:1011F4001343236023683B42FCD0F022636893438B
:101204006360032362689A43013B13430C226360C7
:1012140063681340082BFBD1019BAB4202D3280027
:1012240000F0DAFE094B00201E606268084B1A4089
:101234008023DB0013436360FEBDC046006CDC0208
:101244000010024030440008FFFFFFFE140100209C
:10125400FFF8FFFF064B074A5968114088225203E2
:101264000A430F215A60DA6A8A43DA627047C04639
:1012740000100240FF7FC2FF00487047006CDC0290
:1012840080210A4B4905DA6982B00A43DA61DA69D6
:101294000A4001210192019A9A690A439A619B6961
:1012A4000B400093009B02B07047C0460010024000
:1012B40010B5084802F029FA002808D0064C20008E
:1012C400FFF750FD2000FFF733FA002010BD132074
:1012D4004042FBE79C3B0008E112000870B50400A3
:1012E400074D0A2804D1AB680D2128005B68984794
:1012F400AB6828005B68E1B29847200070BDC04627
:101304009C3B0008F7B547680600B8681D000192C9
:101314000C0001F05EFF8023019A00909B039A4227
:1013240015D12000BD68FFF73BFE85420DD1210099
:10133400280001F04EFF0400FFF7C2FD2000FFF774
:101344000BFE00212000FFF7C3FD0020FEBD80231B
:10135400019ADB039A4223D08023DB049D421BD0F5
:10136400C023DB049D4219D080239B049D421AD1E3
:10137400022532000E490098FFF7CEFD002814D153
:101384002000B968FFF7FAFD00982900FFF7A0FDD7
:101394000098FFF77DFDD8E70125EAE70325E8E794
:1013A40086204042D2E71620FBE71020F9E7C0462A
:1013B40089330008F7B504000800190008AB1B883E
:1013C4001700019363689C461E68431E032B16D8BE
:1013D4008024E405A64204D080246402A24200D9F9
:1013E400DEE0704C9B001D5900930024042801D0BA
:1013F4006D481C58019BD80504D5002C03D1162038
:10140400404206E02C00002F04D1336AA343336228
:101414000020FEBD63469868002800D085E0013FA7
:101424000120019A0240530001930322402C0BD067
:1014340000D98AE00200042C06D00218102C03D034
:101444000432844200D10022584B306A9A5C022351
:1014540093409843019B9340554A1843009B306244
:10146400D35830009847F762336A23409C42CFD068
:101474000323402D0AD074D8023B042D06D0013337
:10148400102D03D00433012D00D100233000494F27
:101494001830FA5C0090121847481168C35C019038
:1014A4009C4673236046834099430B00602181402E
:1014B4000B4313600323402C0AD05DD8023B042C59
:1014C40006D00133102C03D00433012C00D10023A7
:1014D4003A4A7168D35C80225200100098408143DC
:1014E4007160336A1C438023346231680B43336078
:1014F4000323402D0AD04AD8023B042D06D00133E1
:10150400102D03D00433012D00D100230198FA5C7F
:10151400C05C082383400099521811680B43136080
:10152400012372691343736172E7102801D10139F1
:1015340075E740239C46030062469343202B01D069
:1015440060452DD149087F086AE7802004224000C5
:10155400844200D178E71A4BE218501E82410532CA
:1015640072E780220423520095428FD0144BEB186B
:101574005A1E9341053389E7802204235200944282
:10158400A6D00F4BE3185A1E93410533A0E704235A
:101594009542BBD00A4BED186B1E9D416B1DB5E700
:1015A40086202DE710400008044000081B44000872
:1015B400F43F0008294400082244000814440008A9
:1015C40000FCFFFFF0B55C4B85B000939B68466858
:1015D40001931B68076934687169002B02D158258F
:1015E4006D42A1E000989847051E00DA9CE0B369BB
:1015F400012B00D89BE0019B71699B690831002B8A
:10160400EDD0002200989847051E00D08CE0019B85
:101614007169DB680831002BE1D0009802AA984771
:1016240000280FDB029B7868B9683B608368DB683D
:10163400002B00D098470021F06903AA01F0BBFEFB
:10164400002801DA05006FE0039B0022197918686D
:1016540001F0C4FE0028F5DB7368384AA362002356
:10166400E362944212D08023DB059C420ED0344BBB
:101674009C420BD0334B9C420FD1236832490B4020
:101684002360944219D10023236336E07021236838
:101694008B43B1680B432360EFE72C4B9C42ECD0A7
:1016A4002B4B9C42E9D02B4B9C42E6D02A4B9C42CC
:1016B40023D02A4B9C4220D007E0244B9C42E2D00A
:1016C400234B9C420FD1002323633369002B08D1A1
:1016D4001F4B9C4219D01F4B9C4216D0F368002B21
:1016E4001ED086257CE71B4B9C42ECD08023DB0577
:1016F4009C4202D0124B9C42D8D1702163688B4328
:1017040031690B436360944213D1FF22636C9343AA
:10171400F268134363648023626C1B0213436364A3
:101724000123226813432360280005B0F0BD162569
:1017340056E7064BD0E7C046A03A0008002C01400B
:101744000004004000200040FFFCFFFF0040014077
:1017540000440140004801400010004000140040D3
:1017640043681B68EFF31081012282F310889868A4
:1017740002439A6081F310880A4A934202D00A4ACB
:10178400934203D1402259680A435A60EFF310810F
:10179400012282F310881868FF3202431A6081F331
:1017A40010887047003801400044004043681B68BB
:1017B400EFF31080012181F310889A688A439A60BC
:1017C40080F310880A4A934202D00A4A934203D112
:1017D40040215A688A435A60EFF31081012282F350
:1017E400108805481A6802401A6081F3108870470F
:1017F4000038014000440040FFFEFFFF37B50300FE
:101804000D1E046802D11620404218E04068196990
:101814008368DB68002B13D001AA984700280EDBED
:101824002368084A680813402360019B2900C018F4
:10183400FEF748FC0F28E6D980B2E06000203EBDE8
:101844005820E1E7FF7FFFFFF7B5020013690C00A2
:101854001D680B794068012B13D0991E4E427141CB
:10186400890200916679022E0ED84A4F7600F75B02
:10187400A679022E0BD0042E2ED05E1EB3411B037C
:1018840008E0C021C900ECE78027BF01F0E75E4211
:1018940073411B07E6790196012E20D00026B44639
:1018A4000068A5421ED104683B4E00993440214390
:1018B4000B430360436839490B403B43436053681F
:1018C400374819688B680340604603438B60296876
:1018D4005068FFF793FFFEBD80235B01DAE7C02663
:1018E400B600DCE7C0210668C9000E400099B14289
:1018F40005D006682B490E4000990E430660C026A9
:101904005168B6010868416831408F4204D041688B
:10191400224E3140394341605168234E08680168C2
:1019240031408B4204D00168204E31400B430360A8
:10193400C0205368800019688B6803409C4505D01B
:101944008B6817480340604603438B6001985368D3
:101954000338464270411B6899684904C90F88429C
:1019640007D00199032911D180219868C901014345
:10197400996021682B6800209942ACD05068FFF729
:101984003DFF0028A7D123682B60A4E79968084885
:101994000140EDE7E4400008FFE9FFEFFFCFFFFF60
:1019A400FFFCFFFFFFF9FFFF00100010FFEFFFEF48
:1019B400FFBFFFFFF0B543680700586885B0196999
:1019C400019383681B68002B00D19EE09847051E95
:1019D40000DA97E0019B0021586A03AA01F0EBFCAE
:1019E400051E00DA8EE0039B00221979186801F0C5
:1019F400F5FC051E00DA85E001227E683B69346847
:101A04001D68236893432360B06801F07EFE0028BC
:101A140000D17CE0B068F1688368DB68002B00D0FB
:101A24009847EFF31082012383F3108821680B3366
:101A34000B43236082F3108829003800FFF704FF6A
:101A4400051E02D016256D425CE0337E002B03D0C8
:101A54000823A2681343A360737E002B04D0802361
:101A640062681B0213436360B37E002B04D080239F
:101A740062685B0213436360F37E002B04D080230F
:101A840062689B0213436360337F002B28D0214B91
:101A94009C4208D0204B9C4205D0204B9C4202D053
:101AA4001F4B9C42CED17B681A6880239168DB016E
:101AB4000B4393602268737F1A495B050A40134302
:101AC40023602268B37F18491B040A401343236030
:101AD400F37F002B04D08023A2681B021343A3606E
:101AE400012322681343236080239B03E2691A4283
:101AF400FCD08023DB03E2691A42FCD0019B38004E
:101B04009B6A9847280005B0F0BD58259BE713252C
:101B140099E7C046003801400044004000480040B6
:101B2400004C0040FFFF1FFCFFFFE0FFF0B54368DF
:101B340085B01C68036906001B680D0003930B79CC
:101B4400012B1DD09A1E51424A41920202926A7997
:101B54000192022A17D80199304A4800825AAF7973
:101B6400022F13D0042F02D00020834218D08020EB
:101B74004001D91E01290FD88620404205B0F0BD8E
:101B8400C022D200E2E780229201E8E70020002B85
:101B9400EFD18020400503E0002B01D0042FEBD0CF
:101BA40080235B019C460023624509D0C0239B012E
:101BB4009C460223624503D0013B002A00D0023335
:101BC400019A9A42D8D1029901F095FC8742D3D167
:101BD400EB79002B0DD0012B1CD1114B9C4208D06A
:101BE400104B9C4205D0104B9C4202D00F4B9C42A0
:101BF400C2D1012723682900BB4330002360FFF7CB
:101C040023FE0028B8D123681F43039B276006CD19
:101C140006C3B3E7032BE0D0AEE7C046E4400008B8
:101C2400003801400044004000480040004C00409F
:101C340070B50369C0221B680C001B68D2000B60DE
:101C44008021436805001B68C9001B6813400222F9
:101C54008B4204D01C4A9B185A425341DAB2C02129
:101C6400802022716B6889011B6800225B68400137
:101C74000B40834206D002328B4203D0013A002B40
:101C840000D0023262716B681B6818681968C0233F
:101C9400DB0019400D4B184001F02DFCC022A0714F
:101CA4006B6892001B689B681340094A9B185A4250
:101CB4005341DBB2E3716A6812689268520400D53A
:101CC40003230020E37170BD00FAFFFF0010001031
:101CD40000FDFFFF70B543680D001C68C023206839
:101CE4002168DB001940114B1600184001F003FC79
:101CF400042817D08023E26900201A4211D0EFF3A0
:101D0400108272B6311A002906DDE169194203D046
:101D1400295C01302185F5E7002A02D162B6BFF3C0
:101D24006F8F70BD86204042FBE7C0460010001054
:101D340070B543680D001C68C02320682168DB006F
:101D440019400D4B1600184001F0D5FB042810D0A3
:101D5400002020220823311A00290CDDE1691142F8
:101D640009D0A18C2954E16901301942F3D02362CE
:101D7400F1E78620404270BD0010001030B50C49D8
:101D84000C4A8C6812680D688B68002C00D1140012
:101D9400002B00D113000848ED0301D49C4203D268
:101DA4000468A4180460096800688018C01A30BD6B
:101DB40010E000E0C8030020BC030020094A002012
:101DC400136A1B021B0A13629622074B52011A6004
:101DD400064B074A1860074B5A60072298601A603E
:101DE4007047C04600ED00E0C8030020BC0300209B
:101DF400BF12000010E000E070B5FFF7BFFF0E4B0C
:101E04000E4A186811680E4C401810609621002282
:101E140025681A60401B4901FEF754F996235B01BB
:101E240043435B192360EFF3108172B600F0C6FDE3
:101E3400FEF7FEFE70BDC046BC030020C4030020B4
:101E4400C0030020F0B5334D334E85B0002953D084
:101E5400431C08D101222B6893432B60FF231B06EC
:101E6400336005B0F0BD336801930027012848DCD6
:101E7400EFF31083039372B6FFF780FF0022AB6881
:101E84000293264B1C68264B04191A60254B1B68C9
:101E94000093E01A90423ADB96235B015F43224AA7
:101EA400C01919008018FEF70DF996235B015843F9
:101EB400009B1B1B18188023DB00984200D21800DB
:101EC4001A4B984200D91800002330600138A968E1
:101ED4006860AB60029B02985A1AA318884202D227
:101EE400019B9B181B190D4A1360039B002BB8D14F
:101EF40062B6BFF36F8FB4E733680193431CB4D168
:101F04000B480C4B984200DD1800471EB0E78020B8
:101F1400C000D9E710E000E0C8030020C40300209B
:101F2400BC030020C0030020BF12000080E8FF00B3
:101F3400A60D0000A70D000070B5EFF3108572B672
:101F4400084A094B14681B68E41AFFF717FF0019C5
:101F5400002D02D162B6BFF36F8F96214901FEF7BF
:101F6400B1F870BDC4030020C00300200C2070B57C
:101F7400134D6B681840082808D00C384342584168
:101F8400104B40421840104BC01870BD0F200F4931
:101F94009A0C02408C5CEA6A0D490240895CC022BA
:101FA4008020520213404002834201D1064802E0DD
:101FB4009342FBD10748FEF785F86043E5E7C04646
:101FC40000100240005A620200127A0050440008D5
:101FD40040440008006CDC0202000120002A0FD0FB
:101FE400094B0A4993429B410A685B4282431A4364
:101FF4000A600A6802409A4203D00A6810405840B6
:1020040070470020FCE7C04600366E010020024005
:1020140070B5EFF3108572B6064B9C6801F085FB32
:10202400002D02D162B6BFF36F8F2000FEF710FEC1
:1020340070BDC046CC030020F8B501270A4E8300CA
:102044009D59013084003359AB4200D8F8BD68680B
:10205400002806D0037E3B4201D101F03DFB083548
:10206400F1E72B689847FAE7CC400008012270B5E5
:10207400234B86B003201A70FFF7DEFF00F01EFD2D
:102084000420FFF7D9FF1F4C26001F4DAC420ED38E
:1020940000F0E6F9AE4220D300F0F2F9FEF7C4F9FD
:1020A40001211A4A93898B43938106B070BD636AF8
:1020B4000593236A0493E3690393A3690293636911
:1020C400019323690093E368A2686168206800F0C3
:1020D400ADF823685C653034D7E7B26AF36A511C03
:1020E40001D1591C05D011003068194303D101F006
:1020F4007BFB3036CEE70649183000F0CFFBF8E71B
:10210400F8030020103D0008103D0008C001002025
:10211400A737000870B57026012504004643010264
:10212400114880220918002086B004950E350395C5
:10213400053565430D4B0590029001900C48F61847
:102144002D180C4B30000095520000F06FF804225B
:10215400337C2C74934333740134074BE402E41846
:10216400EE606C6006B070BD000C002050010020D1
:10217400CC0300203537000800040020F0B500200F
:1021840087B0FFF759FF204B83F308881F49204B82
:102194000A6A00251A40C0231B0413430B62FEF78E
:1021A40099FCFEF73FFD1B4800F07AF8FEF77AFB36
:1021B4000120FFF741FF0220FFF73EFF00F088F9FE
:1021C400154C164B80225C61154B164E059301236A
:1021D40015490493D200330020000395029501951C
:1021E400009500F023F804220700237C2000934389
:1021F400237401F0B7FA2800FFF78CFF320039008E
:102204002000FEF7F3FCC046000C002000ED00E0C7
:10221400FFFF00FF30020020C0010020CC0300209B
:10222400BC43000871200008000D0020F0B587B001
:102234000593030058338365C365109B0727838187
:10224400042300250732BA430374D2190F9BBA43FF
:1022540083738B180E0085601900C5738561C56191
:1022640004000493FEF79EFB049BC019B8431F1A95
:102274000E9B3A0002930D9B310001930C9B2000AE
:102284000093059BFEF79CFC044B65659B68AB4281
:1022940000D01B6E3800236607B0F0BDCC030020CD
:1022A40001230374838100230366014B9860704704
:1022B400CC0300200B21084A49429368D9669866EA
:1022C400802306495B05486803434B6062B6BFF34D
:1022D4006F8F9368D86E7047CC03002000ED00E048
:1022E400102370B5C356027C002B31DBD3062FD1EB
:1022F40080235B4213431A4C0374A3691949E269AE
:102304008B4207D1016042601060E0610FE09A42A5
:10231400F8D01B68002BF5D00E260E259E57455786
:10232400AE42F4DD5A680360426010605860A569EB
:102334008D4201D0002D00D1E568A3681A7CD20635
:1023440007D1DA897F2A04D9AA69002A01D16361F5
:1023540070BDAB4202D0280000F008FA6561F7E7CF
:10236400CC030020E4030020102270B5825605003F
:10237400037C002A04DA7F221340037401F0DFF99E
:102384000D4E0E4AB469B368944201D0002C00D1BA
:10239400F468AB4208D01A7CD20605D1DA897F2AC8
:1023A40002D9A269002A05D0A34202D0200000F07D
:1023B400DDF92300736170BDCC030020E403002029
:1023C40010B500280AD1EFF30580002807D1064B89
:1023D4005A699B689A4202D0FFF76CFF10BD62B63F
:1023E400BFF36F8FFAE7C046CC03002070B51A4CD8
:1023F400A168E3690A68CB1A581E834149685B42A5
:102404000A6051601340E169A268002B05D1134BA7
:10241400516013600A60E2610AE00E250E205D57E8
:102424001056854213DD5968136051600A605A6082
:10243400A5690A4B9D4201D0002D00D1E568A3682F
:102444009D4202D0280000F091F9656170BD8B4275
:10245400DDD01B68D9E7C046CC030020E40300208C
:10246400EFF3108172B6054B9A68D37B013BD373AB
:10247400002902D162B6BFF36F8F7047CC030020EE
:1024840070B5EFF3108672B60F4DAB68DA7B01328C
:10249400DA73AC690D4A944201D0002C00D1EC6887
:1024A4001A7CD20605D1DA897F2A02D9A269002AC8
:1024B40005D09C4202D0200000F058F923003000DF
:1024C4006B61FFF77DFF70BDCC030020E4030020A7
:1024D400024B034A9A61DA617047C046CC0300207C
:1024E400E403002070B5EFF3108572B61B4CA168AD
:1024F400E3690A68CB1A581E834149685B420A6043
:1025040051601340E169A268002B05D1144B51605E
:1025140013600A60E2610AE00E260E209E571056F0
:10252400864216DD5968136051600A605A60A669D4
:102534000B4B9E4201D0002E00D1E668A3689E4258
:1025440002D0300000F012F928006661FFF7B2FEF5
:1025540070BD8B42DAD01B68D6E7C046CC0300209E
:10256400E4030020F8B5030007000C000B4303D17B
:10257400FFF7B8FF0020F8BDEFF3108672B6134DD5
:10258400134BA8681860FFF7EFFEA86823003A0011
:102594001049183000F082F90423AA680400117C61
:1025A40030000B431374FFF785FEAB689A6A002A68
:1025B400E0D18022DB6A12069342DBD101F064F998
:1025C400201AC343DB171840D5E7C046CC030020CC
:1025D400EC030020A7370008014B98687047C046F9
:1025E400CC030020F7B5838904000193EFF3108333
:1025F400009372B60823027C1A4206D0009B002B7B
:1026040002D162B6BFF36F8FF7BD1900114348B210
:10261400002857DB2174A368002B02D0200001F0AE
:1026240096F820002600183001F0FAF85836A56D07
:10263400AE4201D0002D4DD1304F0025BB689C42E5
:1026440004D1EFF305856A1E9541EDB2BE692C4AAB
:10265400964201D0002E00D1FE68B34202D0300071
:1026640000F084F820007E6100F09EFD002D02D071
:102674002448FFF715FEBB689C4238D1EFF305836D
:10268400002B34D1A389DB070FD5009B002B02D18B
:1026940062B6BFF36F8F62B6BFF36F8F0423181C4B
:1026A40002DFEFF31083009372B60098FFF702FE87
:1026B400019BDB07A8D562B6BFF36F8F0423181CF8
:1026C40002DFA1E77F210A4013432000237401F0B5
:1026D40036F8A0E7280001F03AF82800183001F095
:1026E4009FF800232800EB66FFF7FAFD9FE7009BA5
:1026F400002BDDD162B6BFF36F8FD9E7CC03002086
:10270400E40300203002002010B5047C1F212200C5
:1027140003000A4000200C4211D1094910008B42E9
:102724000DD008490868002809D0D9897F2905D81F
:102734000E215956044B1B68994200DA100010BD53
:102744005001002018010020F00300200121044B57
:10275400044AC01A044BC0104343D1547047C046C6
:10276400A0020020F9030020ABAAAAAA70B518257C
:102774000B4B1E7CFFF7C8FF75430A4B0400ED1892
:10278400280001F04DF80022074B9A55944205D0D9
:10279400621E28000549D31700F080F870BDC046BA
:1027A400CC030020A0020020F903002051270008D8
:1027B40070B5EFF3108572B6104A114B946818681F
:1027C400A04207D1FFF7D2FF002D02D162B6BFF3BA
:1027D4006F8F70BD00211960127C0A4B9B5C8B4289
:1027E400F2D02000FFF790FF0028EDD0237CDB0619
:1027F40001D1FFF7FBFD2000E4E7C046CC03002035
:10280400EC030020F9030020024B1868984200D121
:10281400002070471C01002070B50600FFF7F4FF8C
:1028240000280ED0026943693400F517121BAB412E
:10283400002B06DC01D1002A03DBD843C01710406B
:1028440070BD0148FCE7C046FFFFFF7F002010B5C4
:10285400034B1B68834201D1FFF76EFB10BDC046DA
:10286400F403002030B500280ED00B4B5B6898426F
:102874000AD00168002907D00A694B6904694569CF
:1028840012196B410A614B610368426813605A6014
:1028940000230360436030BD1C010020F0B5040038
:1028A40015001E0085B0531C02D1731C00D17CE0BE
:1028B400A160EFF31083039372B6002E26DBFFF7BB
:1028C400C5FF00210090012040197141009AD317DF
:1028D40012184B413649226163610868496812182D
:1028E4004B411E00150001230293FFF78DFF0700E3
:1028F400304B9C465B680193002F1DD163462360D7
:10290400019B63601C6063465C6027E0284B186889
:10291400596802225242D317121A8B41521BB341F7
:102924001100002B04DC01D1002A01D10121002374
:10293400636121610023D7E7386979692269636992
:10294400994202DC28D1904226D9801A99417B68A9
:1029540038617961636027601C607C60FFF754FF15
:1029640084420FD1144B1B68002B0BD1029B002B0C
:1029740002D1FFF76BFF00900098FFF74DFF002195
:10298400FFF760FA039B002B02D162B6BFF36F8F8F
:102994002800310005B0F0BD121A8B412261636139
:1029A400019B9F42AAD03F68A6E700250026EFE7D7
:1029B400B80200201C010020F4030020F0B505003B
:1029C40089B0314B03911D60FFF71EFF2F490400AE
:1029D4000A684B68E81704920593002C10D0266906
:1029E400676900950190874202DC24D1AE4222D966
:1029F40032003B00009E019F921BBB412261636138
:102A04002A00049C059D030012196B4100240A60EE
:102A14004B601D4B20001C60FFF7FEFE2100FFF7FA
:102A240011FA039BA34202D162B6BFF36F8FFFF783
:102A3400BFFE09B0F0BDF31706960793069A079BED
:102A44000498059980185941002200230F4D2261F2
:102A54006361286069602000FFF704FF802301227E
:102A64001B0622616361039B002B02D162B6BFF394
:102A74006F8F2000A3689847EFF3108372B6039317
:102A8400014B1D68AD1B9EE7F4030020B802002033
:102A940010B5EFF3108472B6FFF7D8FE02000649B2
:102AA400C3170868496880185941002C02D162B6DE
:102AB400BFF36F8F10BDC046B802002010B50248A6
:102AC40000F0EFFA10BDC046C1430008F0B54368FA
:102AD40091B0019006938378170000269B0700D5D8
:102AE40024E20126764257E04D788B1C0993252D6C
:102AF40000D124E200220421099B140000920592D3
:102B04000A3209931F2C1FD82800203810281DD8FA
:102B1400FDF7CEFA0E1C1C181C1C1C0F1C1C1C0CD4
:102B24001C161C1C09000120044302E0022004437B
:102B34000C43099801330578002DE2D1099337E05D
:102B44000820F1E71020EFE77F2C28D82800303840
:102B540009280DD840252C4204D0009D554328183F
:102B64000090E6E7059D5543281805902020DBE7F3
:102B74002A2D0CD101CF6506F2D4002803DB2025D1
:102B840005902C43D5E7404205902820CCE72E2D14
:102B940005D140200442C7D0300011B0F0BD6C2DE7
:102BA4002CD026D8682D31D06A2D32D04C2D30D07F
:102BB400009B002B03DA40239C4300230093202333
:102BC4002B431A00653A022A01D9612B24D107222A
:102BD400FB1D934308331F00B84B00920493240752
:102BE40052D53400009B9D19AC424FD1059B009AED
:102BF40061E1742D9DD07A2D9BD0D9E780200442C9
:102C040000D191E78025AD002C438DE78020400062
:102C1400F5E7A020800087E728006338122800D950
:102C2400E2E0FDF745FA0A43E1E1E1E143E1E1E1F4
:102C3400E1E1F2DCE1E111E1A300012302CF0AAA00
:102C4400117000930492CAE708CF0493002B01D1BA
:102C54009B4B0493630602D401235B4200930099C7
:102C6400049800F039FE0090B9E720200199069BF2
:102C74009847002813DB013C009BA342F5D3059B36
:102C840005949E19361BACE7059CF5E7049B019956
:102C94009B1B185D069B984701340028A4DA019B0E
:102CA4009A7804231343019A93701AE723063FD5B5
:102CB400A30538D50722073797430CCF0292039315
:102CC400102322009A43039B0892002B39DA0299BD
:102CD400039A00244B429441029303948023089A5C
:102CE400DB0013439BB208930AAC0A2302980399AE
:102CF400220000F0FCFD031B0793079B089C049330
:102D040023005B0600D4A1E00123079A9C43009BA7
:102D1400934200DC9AE0002D00D095E01123089C3A
:102D24009C43009B1AE008CF0293DB170393C7E789
:102D340008CFE205F8D5A20501D55BB2F4E71BB2D2
:102D4400F2E7029B039A1343CED16306CCD5009BD2
:102D5400002BC9D111339C43009B07930493594B17
:102D640023405A1E9341049AD31825E010239C4310
:102D7400063B9C46802322001A4004921C424AD0FF
:102D840021008133FF3319401C4242D00722FB1D2E
:102D940093431F0003CB083703000B434DD122009C
:102DA40016339A43089263064AD5009B002B47D1F9
:102DB40017339C43009B07930493230761D4E307D1
:102DC4000BD5079B049A0093059B934205DD9B1A40
:102DD400079A9B180093059B0493049B48E01023D7
:102DE40078259C461C43C5E7782B04D110225B1B35
:102DF4001A439446BEE725200199069B984700286C
:102E040000DA4CE70236E8B29AE0082300259C4633
:102E1400B0E701CFC0E78022210008CF520018009C
:102E240011401442B8D0802221009200114098B27F
:102E34001442B1D00499D8B2AEE706239C43089457
:102E44000AAC6346220054E7009B0493E30686D54C
:102E54002B005A1E9341049A9B180133ACE720209F
:102E64000199069B9847002800DA18E7089B01336C
:102E74000893089A059B9342F1DC049B0492F61A8A
:102E8400B618E30628D530200199069B98470028F8
:102E940000DA04E7002D17D101363400009B079AAD
:102EA400F3181B1B9A4223DB1500002D28D1079B26
:102EB400049A1C19059B26009D1A32E0024400085E
:102EC400FB430008060400000236E8B20199069BA1
:102ED40098470028E1DAE2E61C4B1C42DDD02B20A7
:102EE400A30700D40B38640500D52D200136EDE787
:102EF40030200199069B013498470028CEDACEE6AB
:102F04000AAB013DE85C0199069B98470028CCDA9E
:102F1400C5E620200199069B01369847002800DA6F
:102F2400BDE663199B1B002BF3DC09990878002884
:102F340000D131E6252800D1D6E54B1C0993013692
:102F44000199069B98470028EFDAA8E606040000DA
:102F5400704710B50A220023C117FDF7B1F900F03C
:102F64002DFC10BD10B5032801D8FDF73BFB10BDA7
:102F7400F0B5431A85B09D1A9B1803936C46002341
:102F8400642640188118801A0095019102909A00D5
:102F9400A258D11752184A40964200DA160001335B
:102FA400042BF4D100256427AB00E05831007843AA
:102FB400FDF7CEF80100E8B20135FFF7D3FF042D89
:102FC400F2D105B0F0BDC9004018408840087047F0
:102FD400F8B50D000400FFF7F6FFFDF70FF91F2108
:102FE400091A8A00A218EB0010691F1D0633E7199D
:102FF400E318AEB2002808D101308840E1680143EB
:10300400E16015613E801E80F8BDC1000431625A42
:103014003A80D200A2181880D6806652F4E70723BB
:10302400F7B50027043ACC1D89189C4399430E1B1D
:10303400F6080460A660E760300000912425FDF7DF
:10304400DDF820222D1A121A2000390092001030C7
:1030540000F03AFC0122AD000735ED08A9B24B009F
:1030640013436380731BEA009BB20193A01803000F
:103074000198278040008446180063464380A1528B
:103084000122009B0199F6005F801980A6197388BC
:103094002900134373802000FFF79AFFF7BD002037
:1030A40070470FB407B504A901C90191FDF746FBA8
:1030B40003B008BC04B018477047F0B5012685B0CA
:1030C40030240293436814405868330001949409EF
:1030D4008B4034408C40456802369D432C43446009
:1030E40084680327A4461C008C406643F54303957B
:1030F400D5093D4065432F006546B5432F4387609E
:103104000327520A3A406243C568B5432A43C26062
:10311400019A202A0CD1072915D823008B408B4013
:103124000F215943026A8A4302994B4313430362B2
:10313400019B02681B095C43039B1A40144304600F
:10314400002005B0F0BD0F211B0A5B435B435943CC
:10315400426A8A4302994B431A434262E8E710B534
:1031640000F0B2FB10BD10B500F0A5FB10BD10B50A
:1031740001000068FDF7E4FB10BD10B5FDF710FC7D
:10318400FDF756FD10BD10B500210120FDF7D8FB59
:1031940010BD10B5FDF770FBFDF7ACFBFDF7B6FBFA
:1031A400FDF7AAFDFEF7EAFF86204042704700289B
:1031B40002D162B6BFF36F8F7047BFF34F8F30BF3A
:1031C40062B6BFF36F8F704710B5FDF7C3FD0020E3
:1031D40010BD1F230120194088407047022803D8DE
:1031E400002807D000207047C31F0020022BFAD903
:1031F4008638F8E786204042F5E7704743680020A8
:103204005B681B690B60704743685B6858694240A0
:1032140011404140596100207047436800205B68B9
:1032240099617047436800205B68996270474368FE
:1032340000205B685A6951405961704730B5036991
:103244000024986800280FD1002A1BD11620404280
:1032540030BD2060D868814210D1DC600EE0056882
:103264000400002DF0D028008842F8D10868002C12
:10327400EFD1DC689860A14200D1D86000200860DA
:10328400824206D09A680A60DA689960002A00D1FE
:10329400D9600020DCE71300F7B580221F009202FA
:1032A40017400C00019713424DD09A0744D55A0792
:1032B40065D55022D90641D5802189000A43C0250D
:1032C40019008026ED002940F600B1424BD0A942F6
:1032D40045D08025AD00A94247D0C0211E008902F7
:1032E4000E40056900960B4214D06E683100E1402F
:1032F4008C46012167460F4202D1A14031436960E7
:103304000199002906D0190331D50123A34041684E
:1033140049688B6100232100FFF7CFFE009B002B3F
:1033240008D16B6801221900E140114202D0A24089
:1033340093436B600020FEBD1022BBE79906BED507
:103344008021C900BAE73022D903B8D5DA0603D4FC
:103354009A06D20F9202B2E780229200AFE7C02110
:1033640049000A43B9E78021FAE78021F9E75B03C2
:10337400D0D50123A340416849688B62CAE78620FF
:103384004042D8E770B50B690E0099680500002922
:1033940002D00C68002900D170BD8B681A002A4045
:1033A4002B4202D030004B689847231E00D023687C
:1033B40021001C00EEE730B503681360057904684A
:1033C400ED006419A34202D30220404230BD083309
:1033D400DC1E24788C42F0D10020F7E7F7B5040016
:1033E4000025C90043180193019B9C4201D1002090
:1033F400FEBD102327681F4222D1202563681D4388
:103404001F23780A1840FDF7E1F9061E24D0FB05B6
:103414001A0F1F231F406B46009219782A003B00A5
:10342400FFF74BFE0028E3DB112F07D173680099E7
:103434005A6801238B4029050CD593610834D3E7DE
:103444001F233B40102B03D0112BD9D16568D7E73C
:103454003025D5E79362F1E713204042C8E7416382
:10346400704781637047C16370470164704710B54A
:10347400140042680369516818680131FCF722FEA0
:1034840020600020606010BD4068CB0300681B0D05
:103494001B181F2001401E3888401B680340591E1A
:1034A4008B410020137070474268CB0312681B0DD8
:1034B4009B181F2211401E3A8A40186802431A6062
:1034C4000020704742681F20CB0301401E3888400B
:1034D40012681B0D9B181A6882431A6000207047FB
:1034E40070B50D000400FFF7DFFF29002000FFF78F
:1034F400E9FF002070BD80220300520108009342BE
:1035040007D080225205934207D1434258410130EB
:103514007047434258410330FAE74342584102306E
:10352400F6E7012143681A68D069D36900070B40A4
:103534008B40D169C00F18430423890700D5184371
:10354400D169194201D0202318438023D1695B003B
:10355400194202D0082113620843C30701D5082386
:103564001362830701D501231362430701D50223A4
:103574001362830601D504231362704743681A68F3
:10358400EFF31081012383F3108810683F33034362
:10359400136081F31088704743681A68EFF3108151
:1035A400012383F31088402013688343136081F35D
:1035B4001088704743681A68EFF31081012383F37E
:1035C400108810681F330343136081F31088704719
:1035D40043681A68EFF31081012383F310882020D5
:1035E40013688343136081F31088704743681B6832
:1035F400D8698006C00F704701207047036959607D
:103604009A60704710B502695368002B01D0916825
:10361400984710BD002210B511001B20FDF7A6FA33
:103624001B20FDF797FA10BD002210B511001C20D5
:10363400FDF79CFA1C20FDF78DFA10BD43681B684A
:10364400D8694006C00F7047436800201B68DA69D8
:10365400120602D518684006C00F7047802210B5C4
:1036640043681B68D8691042FCD0EFF3108072B62F
:10367400DC69144205D10028F4D162B6BFF36F8F20
:10368400F0E71985002800D010BD62B6BFF36F8F34
:10369400FAE7202243681B68D969114203D01968EC
:1036A4000120114206D1DA690020520602D51868B9
:1036B4004006C00F7047082243681B68D86910424F
:1036C40000D01A62DA69920603D500209B8C0B7035
:1036D400704701204042FBE710B543690400002B0A
:1036E40007D100230122E168487802434A70584216
:1036F40010BD98470028F4D0C1174318E2684B4026
:10370400FF2B00DDFF231370ECE7002808D0C3680B
:1037140000205A78D20703D5187843425841C0B2E2
:103724007047EFF3108372B6FEE710B5FFF7F9FFA9
:1037340010B5EFF3108372B6FFF73FFDF9E70368A6
:10374400426813605A60002303604360704710B5F9
:103754000400FFF7F4FF0222237C93432374002325
:10376400A36010BD10B5EFF3108472B6FEF7B8FD78
:10377400002C02D162B6BFF36F8F10BD282310B5A1
:10378400027C04001A420BD18368002B01D0FFF79E
:10379400DEFF0422237C200093432374FEF7A0FD64
:1037A40010BD10B5EFF3108472B61838FFF7E6FFBA
:1037B400002C02D162B6BFF36F8F10BD70B5050047
:1037C4000C00FEF7CFFE013501D1631C0AD00200C4
:1037D400C31700210920801859410A220023FCF74D
:1037E4002BFD70BD2000FCE770B50400EFF31085DD
:1037F40072B60426037C33420CD0183000F010F863
:10380400237C2000B3432374FEF76AFD2800FEF7EF
:10381400D7FD70BD002DFCD162B6BFF36F8FF8E702
:1038240070B50400EFF3108572B60368002B1BD04B
:10383400FEF7EAFF06002000FFF714F880230022B9
:103844001B0622616361A64206D00020002D02D12E
:1038540062B6BFF36F8F70BDFEF7F8FFFEF7DCFFB3
:103864000021FEF7EFFAF0E70369012B09D1802369
:1038740042691B069A4204D1802300221B0602617E
:10388400436116204042E1E710B5FFF701F910BD8E
:10389400030070B5EFF3108572B6066801240020AA
:1038A4008E4201D120001A60002D02D162B6BFF30E
:1038B4006F8F204070BD002310B59A4200D110BD17
:1038C400CC5CC4540133F8E703008218934200D15E
:1038D400704719700133F9E7030041188B4202D095
:1038E4001A78002A01D1181A70470133F6E7F0B5A7
:1038F4000D003721C91A8FB0C9B20D911F210400E0
:103904000B400C930C99E3B2082955D0102900D12F
:1039140064E0E90760080843690806900791A00875
:10392400A9070843A90808900991089E099F0698C9
:103934000799801979410E07B44606090096664630
:10394400009F37430E0900970196009E019F80193E
:1039540079410E06B4466746060A3E4302960E0AAD
:103964000396029E039F801979410E04B44667466C
:10397400060C3E4304960E0C0596049E059F801982
:10398400794100260A910B960A9E0B9F8019794172
:103994004E07CD080521C4083443614349005B1A2E
:1039A400DBB2092B12D9012000210A3B24184D4116
:1039B400DBB21DE00200A5E707210B4069078C4636
:1039C4006646E008E908064334000D0030331370FE
:1039D4002300501C2B43EDD10FB0F0BD0F210B4041
:1039E40029078C46664620092909064334000D0040
:0C39F400092BEBD90D99CB18DBB2E7E7EB
:083A000008C9FF7F010000006E
:103A080000000000A03A00086D0700080000000050
:103A180000000000BC3A000800000000483B000815
:103A2800000000002C3B000800000000643B000878
:103A380000000000803B000800000000103B000868
:103A480000000000F43A000800000000D83A00081E
:103A5800550E000800000000000000009C3B000814
:103A680000000000B83B0008B51200080000000084
:103A7800C11D000800000000810D000800000000C2
:103A8800000000000C3C000800000000D43B0008C7
:083A980000000000F03B0008F3
:103AA0007A430008000000004C3D0008420100205D
:103AB0000000000039110008000000008B430008DE
:103AC000204000083C3D00084A01002000000000A2
:103AD0000000000000000000B24100082C3E000879
:103AE000103D000834010020C0020020A907000892
:103AF00000000000C0410008403E0008103D0008E2
:103B000036010020D0020020A907000800000000B4
:103B1000CE410008543E0008103D00083801002046
:103B2000E0020020A907000800000000DC410008B6
:103B3000683E0008103D00083A010020F002002015
:103B4000A907000800000000EA4100087C3E0008C8
:103B5000103D00083C01002000030020A9070008D8
:103B600000000000F8410008903E0008103D0008E9
:103B70003E01002010030020A907000800000000FB
:103B80005C4300080000000000000000400100202D
:103B900000000000A50D0008000000009C43000884
:103BA00024400008683D00084C010020EC00002083
:103BB000B919000800000000AC4300087840000874
:103BC000683D00084E01002000010020B9190008DE
:103BD00000000000874300080C3F0008343D000847
:103BE00044010020C8000020C915000800000000A2
:103BF000874300085C3F0008343D00084601002070
:103C0000D4000020C9150008000000008743000808
:103C1000AC3F0008343D000848010020E0000020CF
:083C2000C915000800000000B6
:103C2800000000008B310008000000008B31000804
:103C3800000000008B310008000000008B310008F4
:103C4800000000008B310008124400080D0E000827
:103C5800104400080D0E00080E4400080D0E000860
:103C6800000000008B310008000000008B310008C4
:103C7800000000008B310008000000008B310008B4
:103C8800000000008B310008000000008B310008A4
:103C9800000000008B310008000000008B31000894
:103CA800000000008B310008000000008B31000884
:103CB800000000008B310008000000008B31000874
:103CC800000000008B310008000000008B31000864
:103CD800000000008B310008000000008B31000854
:103CE800000000008B310008000000008B31000844
:103CF800000000008B310008B83B000809360008B6
:083D08009C3B0008093600088D
:103D10009B320008013200080D3200081F320008F3
:103D20002932000833320008091300084132000824
:043D3000000000008F
:083D3400B91300087334000804
:103D3C008D340008AD340008C9340008E53400089F
:103D4C00C50F000805100008000000003510000821
:0C3D5C000511000800000000BD10000868
:103D6800BB3600086136000827350008311B0008FB
:103D7800351C0008D91C0008351D000881350008CD
:103D88009D3500084D360008B9350008D5350008BE
:103D980041360008F135000865170008B11700081A
:0C3DA80097360008FD35000801360008C1
:103DB4001800000001000000A6410008A941000805
:103DC400AC410008AF4100082C3B00080000000093
:103DD4002C3B0008010000002C3B000802000000FE
:103DE4002C3B000803000000D43B00080100000045
:103DF40050C3000000000000D43B00080200000093
:103E040050C3000000000000F03B00080300000065
:103E140050C3000000000000F03B00080400000054
:103E240050C3000000000000FFFF00000014004821
:103E3400050000001400000000004000FFFF000027
:103E440000100048040000001400000000002000DE
:103E5400FFFF0000000C00480300000014000000F5
:103E640000001000FFFF00000008004802000000EE
:103E74001400000000000800FFFF000000040048D8
:103E8400010000001400000000000400FFFF000017
:103E940000000048000000001400000000000200C0
:103EA400643B0008483B00082C3B0008103B00081A
:103EB400F43A0008D83A00080000000000000000AE
:103EC40000000000000000000000000000000000EE
:103ED40000000000000000000000000000000000DE
:103EE40000000000000000000000000000000000CE
:103EF40000000000000000000000000000000000BE
:103F0400000000000000000000000040000000006D
:103F14000000000000000000000000002C3F00082A
:103F2400020000003C3F00081C00000001000000EB
:103F340008000000FF000000443F000801000000EA
:103F44004C3F0008020000000200000000000000D6
:103F540022000000000000000004004000000000F7
:103F64000000000000000000000000007C3F00088A
:103F7400020000008C3F00081C000000020000004A
:103F840008000000FF000000943F0008010000004A
:103F94009C3F000802000000010200000000000035
:103FA4002102000000000000002C01402F0000004E
:103FB400000000000000000000000000CC3F0008EA
:103FC40002000000DC3F00081800000000080000A8
:103FD40008000000FF000000E43F000801000000AA
:103FE400EC3F000801000000020100000000000096
:103FF40063340008673400086B3400086F34000829
:104004000400000040000000000400000100000063
:104014001000000000010000001000000010024029
:1040240000440040A03A0008BC3A00081102000015
:1040340050400008010000000000000000000000E3
:1040440000000000584000082D3600081C00000045
:104054000000020060400008010000006840000801
:1040640002000000410000000002000061000000A6
:104074000000000000380140A03A0008BC3A0008E3
:104084008E010000A44000080100000000000000B0
:104094000000000000000000AC40000819360008D1
:1040A4001800000000400000B440000801000000B7
:1040B400BC400008020000002101000000020000D2
:1040C4004101000000000000083A0008083A000816
:1040D400783A0008803A0008A03A0008A03A00089C
:1040E4000010000000306D6563616E756D3A202527
:1040F400730A006D6F746F72735F696E6974206602
:1041040061696C65640A000A3D3D3D20647269760C
:10411400652074657374203D3D3D0A006D6F746FB6
:10412400722025733A20666F72776172640A006D9B
:104134006F746F722025733A2072657665727365A9
:104144000A00666F7277617264006261636B776103
:10415400726400737472616665206C6566740073C2
:10416400747261666520726967687400726F746145
:1041740074652043435700726F746174652043571C
:10418400002D2D2D206379636C6520636F6D706C39
:104194006574652C2070617573696E67202D2D2DF3
:1041A4000A00464C00465200524C005252006770BE
:1041B400696F403438303031343030006770696FA3
:1041C400403438303031303030006770696F4034FB
:1041D40038303030633030006770696F40343830C5
:1041E4003030383030006770696F403438303030E8
:1041F400343030006770696F4034383030303030DC
:10420400300072302F61313A2020307825303878F0
:10421400202072312F61323A2020307825303878CE
:10422400202072322F61333A2020307825303878BC
:104234000A0072332F61343A2020307825303878E0
:10424400207231322F69703A202030782530387846
:10425400207231342F6C723A20203078253038782F
:104264000A0020787073723A20203078253038782C
:104274000A004661756C74696E6720696E737472A6
:10428400756374696F6E206164647265737320284A
:104294007231352F7063293A203078253038780A06
:1042A40000556E68616E646C6564204952516E3AC3
:1042B4002025640A0052657365727665642045782A
:1042C40063657074696F6E20280053707572696F2E
:1042D400757320696E746572727570742028495202
:1042E400512000535053454C20696E207468726508
:1042F4006164206D6F646520646F6573206E6F74F4
:1043040020696E646963617465205053500A002A01
:104314002A2A2A2A2048415244204641554C5420F6
:104324002A2A2A2A2A0A00415243485F455843450B
:104334005054207769746820726561736F6E20250C
:10434400780A0A002A2A2A2A2A2025732025642981
:10435400202A2A2A2A2A0A00696E746572727570E4
:10436400742D636F6E74726F6C6C65724034303090
:1043740031303430300072636340343030323130A5
:1043840030300070776D0072657365742D636F6EE5
:1043940074726F6C6C65720073657269616C403421
:1043A400303030343430300073657269616C4034BD
:1043B40030303133383030006D61696E002A2A2A7A
:1043C40020426F6F74696E67205A65706879722035
:1043D4004F53206275696C642076342E342E302D50
:1043E4003732322D67353964633930356538306199
:1043F40037202A2A2A0A00286E756C6C29002A663E
:104404006C6F61742A0000010001040C02020002B6
:104414000001020304050600020406080A0C000059
:10442400080000000800000000040404000000006C
:104434000000000001020304060708090102030446
:1044440005060708090A0B0C0D0E0F1002030405DC
:0C445400060708090A0B0C0D0E0F1010D3
:10446000A330000800000000CD310008000000006B
:104470000000000000000000BC3A0008000200003C
:1044800000000000BC3A000801020000000000002B
:10449000BC3A00088B010000F8000020000000007A
:1044A0000000000000C20100000103000C01002018
:1044B000000000000000000000C201000001030035
:1044C00000127A00C80000001C0100201C0100201E
:1044D000FFFFFFFFFFFFFFFFFFFFFFFFFFFFFFFFEC
:1044E00000000000000000000000000000000000CC
:0C44F000000000000000000000000000C0
:0444FC0015E015E0D2
:0400000508000AFDE8
:00000001FF
