:020000040800F2
:1000000030110020E1120008F93A0008CD12000872
:1000100000000000000000000000000000000000E0
:1000200000000000000000000000000015130008A0
:10003000000000000000000071140008E125000825
:1000400011150008111500081115000811150008F8
:1000500011150008111500081115000811150008E8
:1000600011150008111500081115000811150008D8
:1000700011150008111500081115000811150008C8
:1000800011150008111500081115000811150008B8
:1000900011150008111500081115000811150008A8
:1000A0001115000811150008111500081115000898
:0800B0001115000811150008EC
:1000B80002B4714649084900095C49008E4402BCF3
:1000C8007047C046002934D00123002210B488426A
:1000D8002CD301242407A14204D2814202D209016F
:1000E8001B01F8E7E400A14204D2814202D2490090
:1000F8005B00F8E7884201D3401A1A434C08A04233
:1001080002D3001B5C0822438C08A04202D3001BC8
:100118009C082243CC08A04202D3001BDC082243DF
:10012800002803D01B0901D00909E3E7100010BC1F
:10013800704701B5002000F05FF802BD0029F8D033
:1001480003B5FFF7C1FF0EBC4243891A1847C046E2
:10015800002941D010B404004C40A44601230022D9
:10016800002900D54942002800D5404288422CD3B6
:1001780001242407A14204D2814202D209011B01B1
:10018800F8E7E400A14204D2814202D249005B00B0
:10019800F8E7884201D3401A1A434C08A04202D318
:1001A800001B5C0822438C08A04202D3001B9C0859
:1001B8002243CC08A04202D3001BDC0822430028BB
:1001C80003D01B0901D00909E3E710006446002C9D
:1001D80000D5404210BC704701B5002000F00CF873
:1001E80002BDC0460029F7D003B5FFF7B3FF0EBC28
:1001F8004243891A1847C0467047C0461C2101234C
:100208001B04984201D3000C10391B0A984201D3F1
:10021800000A08391B09984201D30009043902A2CF
:10022800105C40187047C046040302020101010136
:100238000000000000000000002B11D1002A0FD19F
:10024800002900D1002802D00021C943080007B4C2
:10025800024802A14018029003BDC0469DFFFFFF5F
:1002680003B4684601B5029800F044FA019B9E4623
:1002780002B00CBC7047C046F0B5C30F85B044024D
:1002880045000391640A2D0E01932ED0FF2D39D01D
:100298008023E400DB047F3D1C4302950027039B79
:1002A8005D025E00DB0F6D0A360E039330D0FF2E21
:1002B8003BD08023ED00DB041D4333007F3B00214E
:1002C8000398019A42400298D2B2C31AB800084370
:1002D80001380E2842D8FFF7EBFE6CA87EA89DA82F
:1002E8007E6C6C9D7E2E2E2E720001270294002CAF
:1002F800D5D02000FFF782FF773F431F9C403B1A71
:100308000293CBE703270295002CC8D1013FC6E72B
:100318002B000121002DD3D02800FFF76FFF431FCA
:100328009D4076235B421B1AC9E733000321002D49
:10033800C6D10139C4E73900019A022939D0032905
:1003480000D170E00025280001291ED16D026D0A38
:10035800C0052843D207104305B0F0BD64016D0104
:10036800AC4228D31A200121641B0126270049002A
:100378006400002F01DBA54201D8641B314301381A
:100388000028F3D1601E84410C4318007F300028F8
:1003980024DD610704D00F212140042900D0043452
:1003A800210103D58033180023490C40E508FE28B5
:1003B800CCDD00250DE01B200021013BD5E7802383
:1003C800DB031C4201D01D4229D08025019AED0390
:1003D8002543FF20BAE72C00039AAEE70121002548
:1003E800091A28001B29B1DC9E3325009C40CD400A
:1003F800631E9C4125436B0704D00F232B40042B1D
:1004080000D0043580232800DB0418401D420FD19A
:10041800ED089BE7002380240193E403D5E7039BC1
:100428002C000193D1E70192CFE7002528008DE742
:10043800002501208AE7C046FFFFFFF7F0B5C30F8C
:1004480085B04702440003917F0A240E02930AD024
:10045800FF2C71D080227F3C26000023FF00D204AD
:10046800174301930CE001233E1E019308D0380086
:10047800FFF7C4FE7626431F9F407642361A019442
:10048800039B5C025D00DB0F640A2D0E03935AD0B8
:10049800FF2D64D080232800E400DB041C437F3850
:1004A8000023019986198800721C18430A2800DD68
:1004B8007EE00299039D69400291022855DC0138CB
:1004C800012864D9B9B20D003B0C200CA4B26543D5
:1004D80041435C43434309191F002B0C5B189C42A2
:1004E80002D9802149027F181904ADB24D19AC0117
:1004F800611E8C411B0CAD0EDB192C439B011C4368
:100508001B0167D5012361081C400C4310007F3094
:10051800002861DD630704D00F232340042B00D09B
:100528000434230103D5803210003F4B1C40E108FE
:10053800FE2834DD00214BE0032326000193002F21
:100548009ED1013B8DE720000123002CA9D0FFF7A5
:1005580055FE431F9C4076235B42181AA0E72800EB
:100568000323002C9DD1013B9BE701218140A6205C
:100578000D00C000054001421ED1902080000142BC
:1005880046D1B938FF3801429CD003990291022B19
:10059800D0D0032B42D000210800012BB6D1029BFA
:1005A8004902490AC0050843DB07184305B0F0BDF6
:1005B8000F2804D00B28E8D03C00019BE7E78023F4
:1005C800DB031F4201D01C4226D08021C9033943D6
:1005D800FF20E4E7320099E7012300211B1A0800F5
:1005E8001B2BDCDC9E3221009440D940631E9C41C9
:1005F80021434B0704D00F230B40042B00D00431B8
:1006080080230800DB041840194209D1C908C6E74D
:1006180080270295FF03D8E7039B02932700D4E7BE
:1006280000210120BBE7C046FFFFFFF7410243005E
:10063800C20F490A00201B0E7E2B03DD9D2B02DD15
:10064800084BD0187047802000040843952B05DD1F
:10065800963B9840002AF5D04042F3E79621CB1A02
:10066800D840F7E7FFFFFF7FD0400B00D1409C4602
:10067800203AD34018435242634693401843704788
:100688009140030090409C46203A934019435242BF
:100698006346D3401943704710B5002903D1FFF7CB
:1006A800ADFD203002E00800FFF7A8FD10BDC046F0
:1006B800F7B5040C0D0091B20F0061438C4606009B
:1006C800019383B2100C5F43444358433B0C60448E
:1006D8001B18994202D9802149026418019955438F
:1006E8007143180C04191B04BFB24919D819091908
:1006F80003B0F0BDF0B587B006000F000592049373
:100708008B4200D966E001D1824263D804990598EA
:10071800FFF7C2FF390001903000FFF7BDFF019BD2
:1007280004991B1A1A0005980193FFF7A9FF040002
:100738000D00B94246D801D1B04243D8012000216A
:10074800019AFFF79DFF361BAF4102900391019B71
:10075800002B2ED0E90762080A4301996B088C46E2
:1007680001240025BB4232D801D1B2422FD8300033
:100778003900801A99410018494100196941060059
:100788000F00012149428C4461460029EAD1029CAC
:10079800039D30003900019AFFF766FF019AA419FA
:1007A8007D4106000F00FFF76BFF241A8D4102946C
:1007B80003950C9B002B01D01E605F600298039983
:1007C80007B0F0BD0022002302920393BFE7B619D9
:1007D8007F41D6E70023002402930394E9E7000051
:1007E80010B500F06FF900F0CFF900F04FFA00F003
:1007F80007FB624803F07FF80121080003F004F8C2
:100808000121022003F000F80121032002F0FCFF7F
:100818005B4803F070F800225020110002F0AAFF94
:100828009620C00002F097FF00F0A0F9C820400011
:1008380002F091FF534803F05EF8002250211000A7
:10084800494202F097FF9620C00002F084FF00F0B2
:100858008DF9C820400002F07EFF4B4803F04BF8AA
:1008680050210022080002F085FFFA20800002F0E3
:1008780072FF00F07BF9C820400002F06CFF43488B
:1008880003F039F800215022080002F073FF4048B5
:1008980002F061FF00F06AF99620800002F05BFF29
:1008A8003C4803F028F8002000F07CF99620C000AE
:1008B80002F051FF384803F01EF8642000F072F986
:1008C8009620C00002F047FF344803F014F800F007
:1008D80005FA334802F03FFF00F034FAC8208000E0
:1008E80002F039FF2F4803F006F800F011FA2C48FF
:1008F80002F031FF00F026FAC820800002F02BFF3A
:10090800294802F0F8FFC82201202849920000F087
:10091800DDFAC82202202549920000F0D7FAC82241
:1009280022499200032000F0D1FAFA20800002F058
:1009380012FF96221E499200032000F0C7FAC82031
:10094800800002F008FF96221A499200032000F066
:10095800BDFAC820800002F0FEFE962213499200DC
:10096800032000F0B3FAC820800002F0F4FE124819
:1009780002F0C1FF0A4802F0EEFE49E71E4B0008EC
:10098800334B0008444B00085A4B00086C4B0008D6
:10099800DC0500007A4B00088A4B00089B4B0008D6
:1009A800B80B0000AC4B0008BE4B00080000F0423A
:1009B8000000A04200002043D14B0008F0B5436876
:1009C8008BB0059103938389046885680493A368B1
:1009D80020005B68039908AA984700282BDB089E2B
:1009E800099F280032003B000021FFF761FE002329
:1009F800144A0691FFF720FC069A134B050007904E
:100A08009A421AD832003B0000210598FFF750FEA1
:100A180000230C4A0E00FFF70FFC0B4903008E421F
:100A28000BD89D420CD30499A26800911668200047
:100A38002A000399B0470BB0F0BD86204042FAE780
:100A48001620FBE700CA9A3BFFC99A3B0A00F8B593
:100A580004000B000D00643227DA64256D42164A43
:100A6800E1008858521801211279DB439140134A5A
:100A7800DB0F165D0269734012680A40571EBA41BF
:100A88009A4216D08368DB6898470D4A2401EB1711
:100A98001419ED18A0685D4068436421FFF712FB44
:100AA80001002000FFF78AFFF8BD6429D7DD64251F
:100AB800D5E783681B69E7E79C470008594E00089B
:100AC800BC470008F0B500260127254D254C85B008
:100AD800286803F0EDFA002803D11320404205B03E
:100AE800F0BD206803F0E4FA0028F6D023792068E6
:100AF800E288009383689C4603690193D0235B03D3
:100B080053403A4202D1B0235B031343164A00997B
:100B18001A400392019A126802923A008A40110020
:100B2800029A8A433B4203D00B00029A13431A00ED
:100B38001300019A009913606346039A1B6898474B
:100B48000028CCDB00212800FFF738FF0028C6DB8F
:100B5800013610350834042EBAD10020BFE7C0464C
:100B6800BC4700089C470008FFFFEFFF10B50024B2
:100B7800044B20010021C0180134FFF71FFF042C8B
:100B8800F6D110BDBC47000810B5054803F090FA2F
:100B9800002801D0002010BD13204042FBE7C046CA
:100BA800E4450008F0B5040087B0204801218368B7
:100BB80004AA5B689847002831DB049E059F002340
:100BC8001B4A30003900FFF773FD0023194A0D0056
:100BD800FFF732FB184B029003909D421FD81E2C42
:100BE8001FDD1E2400251548154B60433200C01830
:100BF80029003B00FFF75CFD00230E4A0C00FFF7BD
:100C08001BFB0D4903008C4209D80399994206D36E
:100C180006480095826801211468029AA04707B027
:100C2800F0BD0A2CDEDA0A24DCE7C046E4450008F9
:100C3800002D310100CA9A3BFFC99A3B204E0000A3
:100C480020A10700F7B583689C460369D40207D53D
:100C5800C0252D032A4203D0D407E4172C40624054
:100C680001273D00084C1E6814408D400194340053
:100C7800AC433A4201D034002C431C6063461B68E5
:100C8800019A9847FEBDC046FFFFEFFF10B5114C13
:100C9800200003F00DFA002802D11320404210BDB5
:100CA800200003F005FA0028F7D0B0220821200020
:100CB8005203FFF7C7FF0028F1DBB022092120000B
:100CC8005203FFF7BFFF0028E9DB0020024B187032
:100CD800E5E7C046044500082C04002010B50121B2
:100CE800074802F07AFD0021064802F076FD02F07E
:100CF8006CFD0122044B1860044B1A7010BDC046ED
:100D080004480008FC470008F00200202C040020DA
:100D180010B50021074802F060FD0121064802F0E5
:100D28005CFD02F052FD0122044B1860044B1A705E
:100D380010BDC04604480008FC470008F002002027
:100D48002C04002010B50021054802F046FD0021C2
:100D5800044802F042FD0022034B1A7010BDC04641
:100D680004480008FC4700082C04002013B50400C0
:100D780083685B6C002B14D09847002811D113BDF1
:100D8800A3689B69002B0CD069460122200007311B
:100D980098470200012804D16B460648D91D02F085
:100DA80005FEA3685B6B002BEAD02000984700285B
:100DB800E6D1E4E7B800002070B5050003F03BFA7F
:100DC8000A220023FFF738FA0400012229000B4801
:100DD80002F00CFE01280ED0642003F042F903F063
:100DE8002AFA0A220023FFF727FA001B3128ECD938
:100DF8007420404270BD0020FCE7C046B8000020C7
:100E080070B50F4C200003F053F9002814D0A568E2
:100E1800EB6A002B01D020009847AB6C002B03D065
:100E28000022200007499847A3689B6A002B01D03D
:100E380020009847002070BD13204042FBE7C046C1
:100E480058450008750D000870B51C0086B01C4B8D
:100E580002AE3380E31CF37033003171B0701119A6
:100E680001338A4228D102230022611DC9B2F05CF5
:100E780001331218D8B292B28842F8D3D24300256F
:100E880033195A710F4B0634E4B25D609D60DD6022
:100E9800715D0D48013583685B689847EBB2A342E2
:100EA800F6D300256B460135D81DEDB2FFF784FF58
:100EB800AC42F7D806B070BD107801321871CFE790
:100EC80055550000B80000205845000873B50400C7
:100ED800081C09491600FFF7B1FA0849FFF7CCF9D1
:100EE800FFF7A4FB01AD28802A000423012120007C
:100EF8006E80FFF7A9FF73BD00007A4400007043BD
:100F080010B5024B1B68984710BDC046CC000020A6
:100F1800014B18607047C046CC0000207FB5050023
:100F28000E0010220021684603F0A5F96C46022342
:100F3800A370044B320029006846019302F0C8F9F7
:100F48007FBDC046090F0008802102200A4BC90353
:100F58009A6982B00A439A619A690A4007490192DC
:100F6800019A4A68824300204A609A6904490A4003
:100F78009A6102B07047C046001002400058014014
:100F8800FFFFBFFF10B5416807480C3183681B6835
:100F9800002B03D09847002803DC10BD582040429E
:100FA800FBE70020F9E7C0465C44000810B51928A3
:100FB80002D90024200010BD044B8000C458200032
:100FC80003F076F80028F5D1F3E7C0468448000816
:100FD80010B5EFF3108472B60A4B1A68002A08D1CC
:100FE8008020094A400011680143116011680142DC
:100FF800FCD01A6801321A60002C02D162B6BFF325
:101008006F8F10BD580300200070004010B5EFF33B
:10101800108472B60C4B1968002909D101220B48BB
:1010280003F00DF9002C02D162B6BFF36F8F10BD2B
:10103800012904D1064907480A6802400A601A686B
:10104800013A1A60EEE7C046580300205403002016
:1010580000700040FFFEFFFF0649074A10B5521A0C
:10106800064803F0FFF80323054A11680B43136091
:1010780010BDC04600000008B800000800000020AD
:10108800000001401023044A11680B431360034B0E
:10109800034A1A607047C046002002404001002001
:1010A80000127A00F7B504000D001E00019201F04D
:1010B80095FE030000F038FA054F32003B500199C5
:1010C8002800A04700F030FA385800F0B1F9C046BF
:1010D8000800000010B5034A03480021121A02F064
:1010E800F9FC10BD30040020800100200648074AA2
:1010F80010B5121A064902F0F1FC064A06480749DB
:10110800121A02F0EBFC10BDB8000020800100208C
:10111800B04E0008B8000020B8000020B04E00080B
:1011280070B505000C1E13D08B684A680F48096813
:1011380002F0E1FB0E4863692269E16802F0DBFB1B
:101148000C48E16902F0D7FB0B48A16902F0D3FB18
:10115800012D05D1EFF305810848103902F0CBFBCA
:101168002800210001F056FB70BDC046454C000820
:10117800754C0008A54C0008B54C0008E44C000864
:1011880030BFFDE7F7B50A4B0A4D0600EF18CC1B38
:101198002A0020000849019303F064F8601900212F
:1011A800019A03F068F83800083C74660830FEBD00
:1011B800040000000000000094470008F0B5314B1F
:1011C80004005F6889B0FD05ED0D62B6BFF36F8F4F
:1011D800130EFF2B06D1F33B1340082B3BD12A48B3
:1011E80002F089FB00263400032D3AD1274802F08B
:1011F80082FBA369264A934202D3264A934205D327
:10120800254A934238D3254A934235D2023B1B885C
:10121800FF221800DF219043090288422CD1134095
:10122800022B29D11E48216802F065FB276820227D
:101238002100684603F016F86D46079B002E1DD066
:10124800DA0502D1174A1343EB6129003800FFF78A
:1012580067FF09B0F0BD01261207C5D50C000026AE
:10126800C2E7F8235B0010491F4200D10F492A004A
:101278000F48103A02F03FFB0027D8E75B0A5B02F1
:10128800E2E7C04600ED00E0264D0008524D000898
:10129800B8000008B4430008B8000020B8000020D7
:1012A8006A4D0008FF0100000D4D0008F84C0008C9
:1012B800874D00080821024A53698B4353617047E0
:1012C80000ED00E0EFF30880EFF3098101B5724605
:1012D800FFF774FF01BDC046094880F3088872B65D
:1012E80008480949401880F30988EFF3148002215F
:1012F800084380F31488BFF36F8F02F005FC0000E9
:10130800301100203004002000080000042071463D
:10131800014202D0EFF3098001D1EFF3088081691F
:10132800023909780229FFD001B5724602F0DAFBCA
:1013380001BDC04643B2000605D41F221A4001234E
:101348009340014A1360704700E100E030B5FF2583
:1013580003220B00290040B20240D20091409B01B9
:101368002B40C943934000280ADBC0240A4A80085E
:1013780080008018A40002590A401343035130BD6D
:101388000F2210400838054A800880008018C2697A
:1013980011401943C161F2E700E100E000ED00E00F
:1013A80010B5203A1360029B01245360039B064941
:1013B8009360049BA143D36080235B04D361002323
:1013C80091610265836610BDAD10000870B50B4BC6
:1013D80015009860426E0A4B0E001A602C1C86F3AA
:1013E80009880020034B9847201C00210022002375
:1013F800014C20472D3B0008AD10000800040020D8
:101408005C0300201022014B1A61704700ED00E0D8
:10141800054B5A699B689A4205D08023034A5B05AD
:1014280051680B43536070470004002000ED00E052
:1014380010B50A4B9B6883420DD1EFF30583002B4F
:1014480009D08022064B520559680A435A605A6AE5
:1014580004490A405A6201F0C7FC10BD000400208C
:1014680000ED00E0FF7FFFFF15498A68154810442A
:10147800EFF3098CF0C043464C4655465E46674636
:10148800F8C072B6104F114E4A698A603E60104C1F
:10149800141920680F4C2060906E00239366002872
:1014A80000D162B6074C10191030F8C89846A1460A
:1014B800AA46B346BC462438F0C88CF3098870475E
:1014C800000400203000000004ED00E000000008E7
:1014D800640000005C030020F0B5C024002203264D
:1014E800FF25A40010002F003040C00087400549A8
:1014F80093089B005B1819590132B94319511E2AE8
:10150800F0D1F0BD00E100E010B5EFF30583054A26
:10151800103BDB00D118496898588847FFF778FFD7
:1015280010BDC0460046000801480068704700002A
:101538005C03002010B5024B1B689847002010BDC3
:1015480060030020034B044A1860022391780B4380
:101558009370704760030020D0000020072310B567
:101568000449054A99430548521A02F082F90020B5
:1015780010BDC04677110020004000206403002001
:1015880013B56A46064B694611CB11C205488368F4
:101598001B68002B01D0984716BD58204042FBE736
:1015A800944700085C440008020000201F2A08D85D
:1015B80001239340034A50691840C01A43425841D6
:1015C800C0B27047000401401F220123024093402B
:1015D8001F2803D80020034A536170471620404251
:1015E800FBE7C04600040140F8B5060000250127C6
:1015F8007378AB4200D8F8BD347864192000FFF73F
:10160800D3FF00280ED02000FFF7DEFF074AE100D5
:101618008B58002B06D052181F2138000C40A040D0
:10162800516898470135EDB2E2E7C04670030020E3
:101638000022052010B50C4C110020706070FFF7D7
:1016480085FE002206201100A070E070FFF77EFEE4
:101658000C220721054802F00EFE00220720110087
:10166800FFF774FE002010BD500100205401002037
:1016780010B50400FF20002C05D02000FEF7BEFDA9
:101688001F23181AC0B2044B1856044B1A68144387
:101698001C60FFF74FFE10BD500100200004014000
:1016A800024A1368834313607047C0460004014030
:1016B800020000B5080003290AD80E4BFEF7F8FC13
:1016C80002090C13996891439960D9689143D960CC
:1016D80000BD99681143F7E7D9681143D960996843
:1016E80091439960F4E7996811439960D9680A436E
:1016F800DA60EDE70004014070B5FF230D00140027
:10170800002804D0FEF77AFD1F231B1ADBB2094A12
:10171800D8008358AB4203D111184968A14204D0BC
:10172800002B04D1155012185460002070BD1020F1
:101738004042FBE770030020FF2310B5002804D0C7
:10174800FEF75CFD1F231B1ADBB20021024ADB00F7
:101758009950D218516010BD70030020032310B5B2
:101768000F2403409B009C409940044A8008800055
:1017780080188268A2430A43826010BD00000140BD
:10178800032303408008054A0230800080580F2256
:101798009B009A401040D8407047C0460000014066
:1017A8000B8813B50C481B051A0D1B181B0D082BAD
:1017B8000ED80A4C486813191A68024300201A60A8
:1017C8000B881B051B0D1B191B680193019B16BD7C
:1017D80086204042FBE7C0460000C0FE00100240E1
:1017E8000B8809481B051A0D1B181B0D082B07D859
:1017F8000020064B4968D3181A688A431A60704754
:1018080086204042FBE7C0460000C0FE00100240B0
:1018180070B51E4B0D0018680B8814001B051B0DB6
:101828001C2B09D8062B0AD8042B05D8022B20D844
:10183800012B16D0022B1ED08620404218E0012230
:101848009A4013490A420BD112490A4209D1092B7D
:10185800F2D100F001F9002816D000F0FDF800E000
:1018680040088023206029685B01994206D2002045
:1018780070BD0020F5E780200002F2E7090B013176
:10188800FEF720FC2060F2E70520D6E740010020A3
:10189800800000110001100070B508884C68000530
:1018A800E502000DA6B2ED0E02F053F9002812D1A0
:1018B800FF2C0FD0094BF21801236602B60F013630
:1018C800B340013BAB401168240E99430B00AC4078
:1018D8002343136070BD86204042FBE7001002409E
:1018E8000B880A4A1B05180D9B1810B51B0D082BF1
:1018F80008D8074BC01803684868984343425841C2
:10190800013010BD02F025F9F8E7C0460000C0FE1E
:1019180000100240F7B5414E00F0A2F8300002F086
:1019280027F900F025FF3E4C3E4A636835001B0648
:101938001B0FD35CD840137801901D41A84202D2F6
:10194800280000F04BFF80232268DB02134323604A
:10195800802322685B021343236080239B02226852
:101968001A42FCD0FFF734FB01230227226A1343F3
:101978002362236A3B42FCD0FFF748FB0C226368D2
:101988001340082B16D123683B4207D10123226854
:1019980013432360022322681A42FCD0032263689F
:1019A800934363600C2362681A42FCD1F022636897
:1019B80093436360802723681B4ABF041340236056
:1019C80023683B42FCD100F035F8802322685B0491
:1019D8001343236023683B42FCD0F022636893439F
:1019E8006360032362689A43013B13430C226360DC
:1019F80063681340082BFBD1019BAB4202D328003C
:101A080000F0ECFE094B00201E606268084B1A408B
:101A18008023DB0013436360FEBDC046006CDC021C
:101A2800001002407F4E0008FFFFFFFE400100202B
:101A3800FFF8FFFF064B074A5968114088225203F6
:101A48000A430F215A60DA6A8A43DA627047C0464D
:101A580000100240FF7FC2FF00487047006CDC02A4
:101A680080210A4B4905DA6982B00A43DA61DA69EA
:101A78000A4001210192019A9A690A439A619B6975
:101A88000B400093009B02B07047C0460010024014
:101A980010B5084802F00CFB002808D0064C2000BE
:101AA800FFF750FD2000FFF733FA002010BD132088
:101AB8004042FBE774450008C51A000870B50400E9
:101AC800074D0A2804D1AB680D2128005B689847A8
:101AD800AB6828005B68E1B29847200070BDC0463B
:101AE80074450008F7B547680600B8681D000192FC
:101AF8000C0002F029F88023019A00909B039A4277
:101B080015D12000BD68FFF73BFE85420DD12100AD
:101B1800280002F019F80400FFF7C2FD2000FFF7C3
:101B28000BFE00212000FFF7C3FD0020FEBD80232F
:101B3800019ADB039A4223D08023DB049D421BD009
:101B4800C023DB049D4219D080239B049D421AD1F7
:101B5800022532000E490098FFF7CEFD002814D167
:101B68002000B968FFF7FAFD00982900FFF7A0FDEB
:101B78000098FFF77DFDD8E70125EAE70325E8E7A8
:101B880086204042D2E71620FBE71020F9E7C0463E
:101B9800033D0008F7B504000800190008AB1B88CE
:101BA8001700019363689C461E68431E032B16D8D2
:101BB8008024E405A64204D080246402A24200D90D
:101BC800DEE0704C9B001D5900930024042801D0CE
:101BD8006D481C58019BD80504D5002C03D116204C
:101BE800404206E02C00002F04D1336AA34333623D
:101BF8000020FEBD63469868002800D085E0013FBC
:101C08000120019A0240530001930322402C0BD07B
:101C180000D98AE00200042C06D00218102C03D048
:101C28000432844200D10022584B306A9A5C022365
:101C380093409843019B9340554A1843009B306258
:101C4800D35830009847F762336A23409C42CFD07C
:101C58000323402D0AD074D8023B042D06D001334B
:101C6800102D03D00433012D00D100233000494F3B
:101C78001830FA5C0090121847481168C35C01904C
:101C88009C4673236046834099430B006021814042
:101C98000B4313600323402C0AD05DD8023B042C6D
:101CA80006D00133102C03D00433012C00D10023BB
:101CB8003A4A7168D35C80225200100098408143F0
:101CC8007160336A1C438023346231680B4333608C
:101CD8000323402D0AD04AD8023B042D06D00133F5
:101CE800102D03D00433012D00D100230198FA5C94
:101CF800C05C082383400099521811680B43136095
:101D0800012372691343736172E7102801D1013905
:101D180075E740239C46030062469343202B01D07D
:101D280060452DD149087F086AE7802004224000D9
:101D3800844200D178E71A4BE218501E82410532DE
:101D480072E780220423520095428FD0144BEB187F
:101D58005A1E9341053389E7802204235200944296
:101D6800A6D00F4BE3185A1E93410533A0E704236E
:101D78009542BBD00A4BED186B1E9D416B1DB5E714
:101D880086202DE7F0490008E44900086A4E00085B
:101D9800D4490008784E0008714E0008634E0008C8
:101DA80000FCFFFFF0B55C4B85B000939B6846686C
:101DB80001931B68076934687169002B02D15825A3
:101DC8006D42A1E000989847051E00DA9CE0B369CF
:101DD800012B00D89BE0019B71699B690831002B9E
:101DE800EDD0002200989847051E00D08CE0019B9A
:101DF8007169DB680831002BE1D0009802AA984786
:101E080000280FDB029B7868B9683B608368DB6851
:101E1800002B00D098470021F06903AA01F086FF43
:101E2800002801DA05006FE0039B00221979186881
:101E380001F08FFF0028F5DB7368384AA36200239E
:101E4800E362944212D08023DB059C420ED0344BCF
:101E58009C420BD0334B9C420FD1236832490B4034
:101E68002360944219D10023236336E0702123684C
:101E78008B43B1680B432360EFE72C4B9C42ECD0BB
:101E88002B4B9C42E9D02B4B9C42E6D02A4B9C42E0
:101E980023D02A4B9C4220D007E0244B9C42E2D01E
:101EA800234B9C420FD1002323633369002B08D1B5
:101EB8001F4B9C4219D01F4B9C4216D0F368002B35
:101EC8001ED086257CE71B4B9C42ECD08023DB058B
:101ED8009C4202D0124B9C42D8D1702163688B433C
:101EE80031690B436360944213D1FF22636C9343BF
:101EF800F268134363648023626C1B0213436364B8
:101F08000123226813432360280005B0F0BD16257D
:101F180056E7064BD0E7C0465C440008002C014059
:101F28000004004000200040FFFCFFFF004001408B
:101F380000440140004801400010004000140040E7
:101F480043681B68EFF31081012282F310889868B8
:101F580002439A6081F310880A4A934202D00A4ADF
:101F6800934203D1402259680A435A60EFF3108123
:101F7800012282F310881868FF3202431A6081F345
:101F880010887047003801400044004043681B68CF
:101F9800EFF31080012181F310889A688A439A60D0
:101FA80080F310880A4A934202D00A4A934203D126
:101FB80040215A688A435A60EFF31081012282F364
:101FC800108805481A6802401A6081F31088704723
:101FD8000038014000440040FFFEFFFF37B5030012
:101FE8000D1E046802D11620404218E040681969A5
:101FF8008368DB68002B13D001AA984700280EDB02
:102008002368084A680813402360019B2900C01808
:10201800FEF758F80F28E6D980B2E06000203EBDF0
:102028005820E1E7FF7FFFFFF7B5020013690C00B6
:102038001D680B794068012B13D0991E4E427141DF
:10204800890200916679022E0ED84A4F7600F75B16
:10205800A679022E0BD0042E2ED05E1EB3411B0390
:1020680008E0C021C900ECE78027BF01F0E75E4225
:1020780073411B07E6790196012E20D00026B4464D
:102088000068A5421ED104683B4E009934402143A4
:102098000B430360436839490B403B434360536833
:1020A800374819688B680340604603438B6029688A
:1020B8005068FFF793FFFEBD80235B01DAE7C02677
:1020C800B600DCE7C0210668C9000E400099B1429D
:1020D80005D006682B490E4000990E430660C026BD
:1020E8005168B6010868416831408F4204D04168A0
:1020F800224E3140394341605168234E08680168D7
:1021080031408B4204D00168204E31400B430360BC
:10211800C0205368800019688B6803409C4505D02F
:102128008B6817480340604603438B6001985368E7
:102138000338464270411B6899684904C90F8842B0
:1021480007D00199032911D180219868C901014359
:10215800996021682B6800209942ACD05068FFF73D
:102168003DFF0028A7D123682B60A4E79968084899
:102178000140EDE7184B0008FFE9FFEFFFCFFFFF35
:10218800FFFCFFFFFFF9FFFF00100010FFEFFFEF5C
:10219800FFBFFFFFF0B543680700586885B01969AD
:1021A800019383681B68002B00D19EE09847051EA9
:1021B80000DA97E0019B0021586A03AA01F0B6FDF6
:1021C800051E00DA8EE0039B00221979186801F0D9
:1021D800C0FD051E00DA85E001227E683B6934688F
:1021E8001D68236893432360B06801F061FF0028ED
:1021F80000D17CE0B068F1688368DB68002B00D010
:102208009847EFF31082012383F3108821680B337A
:102218000B43236082F3108829003800FFF704FF7E
:10222800051E02D016256D425CE0337E002B03D0DC
:102238000823A2681343A360737E002B04D0802375
:1022480062681B0213436360B37E002B04D08023B3
:1022580062685B0213436360F37E002B04D0802323
:1022680062689B0213436360337F002B28D0214BA5
:102278009C4208D0204B9C4205D0204B9C4202D067
:102288001F4B9C42CED17B681A6880239168DB0182
:102298000B4393602268737F1A495B050A40134316
:1022A80023602268B37F18491B040A401343236044
:1022B800F37F002B04D08023A2681B021343A36082
:1022C800012322681343236080239B03E2691A4297
:1022D800FCD08023DB03E2691A42FCD0019B380062
:1022E8009B6A9847280005B0F0BD58259BE7132541
:1022F80099E7C046003801400044004000480040CB
:10230800004C0040FFFF1FFCFFFFE0FFF0B54368F3
:1023180085B01C68036906001B680D0003930B79E0
:10232800012B1DD09A1E51424A41920202926A79AB
:102338000192022A17D80199304A4800825AAF7987
:10234800022F13D0042F02D00020834218D08020FF
:102358004001D91E01290FD88620404205B0F0BDA2
:10236800C022D200E2E780229201E8E70020002B99
:10237800EFD18020400503E0002B01D0042FEBD0E3
:1023880080235B019C460023624509D0C0239B0142
:102398009C460223624503D0013B002A00D0023349
:1023A800019A9A42D8D1029901F060FD8742D3D1AF
:1023B800EB79002B0DD0012B1CD1114B9C4208D07E
:1023C800104B9C4205D0104B9C4202D00F4B9C42B4
:1023D800C2D1012723682900BB4330002360FFF7DF
:1023E80023FE0028B8D123681F43039B276006CD2E
:1023F80006C3B3E7032BE0D0AEE7C046184B00088E
:10240800003801400044004000480040004C0040B3
:1024180070B50369C0221B680C001B68D2000B60F2
:102428008021436805001B68C9001B68134002220D
:102438008B4204D01C4A9B185A425341DAB2C0213D
:10244800802022716B6889011B6800225B6840014B
:102458000B40834206D002328B4203D0013A002B54
:1024680000D0023262716B681B6818681968C02353
:10247800DB0019400D4B184001F0F8FCC022A07198
:102488006B6892001B689B681340094A9B185A4264
:102498005341DBB2E3716A6812689268520400D54E
:1024A80003230020E37170BD00FAFFFF0010001045
:1024B80000FDFFFF70B543680D001C68C02320684D
:1024C8002168DB001940114B1600184001F0CEFCC2
:1024D800042817D08023E26900201A4211D0EFF3B4
:1024E800108272B6311A002906DDE169194203D05B
:1024F800295C01302185F5E7002A02D162B6BFF3D5
:102508006F8F70BD86204042FBE7C0460010001068
:1025180070B543680D001C68C02320682168DB0083
:1025280019400D4B1600184001F0A0FC042810D0EB
:10253800002020220823311A00290CDDE16911420C
:1025480009D0A18C2954E16901301942F3D02362E2
:10255800F1E78620404270BD0010001030B50C49EC
:102568000C4A8C6812680D688B68002C00D1140026
:10257800002B00D113000848ED0301D49C4203D27C
:102588000468A4180460096800688018C01A30BD7F
:1025980010E000E0FC030020F0030020094A0020BE
:1025A800136A1B021B0A13629622074B52011A6018
:1025B800064B074A1860074B5A60072298601A6052
:1025C8007047C04600ED00E0FC030020F003002047
:1025D800BF12000010E000E070B5FFF7BFFF0E4B20
:1025E8000E4A186811680E4C401810609621002297
:1025F80025681A60401B4901FDF764FD96235B01BD
:1026080043435B192360EFF3108172B600F0D8FDE5
:10261800FEF7FEFE70BDC046F0030020F803002060
:10262800F4030020F0B5334D334E85B0002953D064
:10263800431C08D101222B6893432B60FF231B0600
:10264800336005B0F0BD336801930027012848DCEA
:10265800EFF31083039372B6FFF780FF0022AB6895
:102668000293264B1C68264B04191A60254B1B68DD
:102678000093E01A90423ADB96235B015F43224ABB
:10268800C01919008018FDF71DFD96235B015843FA
:10269800009B1B1B18188023DB00984200D21800EF
:1026A8001A4B984200D91800002330600138A968F5
:1026B8006860AB60029B02985A1AA318884202D23B
:1026C800019B9B181B190D4A1360039B002BB8D163
:1026D80062B6BFF36F8FB4E733680193431CB4D17C
:1026E8000B480C4B984200DD1800471EB0E78020CD
:1026F800C000D9E710E000E0FC030020F803002048
:10270800F0030020F4030020BF12000080E8FF005F
:10271800A60D0000A70D000070B5EFF3108572B686
:10272800084A094B14681B68E41AFFF717FF0019D9
:10273800002D02D162B6BFF36F8F96214901FDF7D4
:10274800C1FC70BDF8030020F403002070B5EFF35E
:10275800108572B6054B1C68FFF700FF2018002D86
:1027680002D162B6BFF36F8F70BDC046F803002078
:102778000C2070B5134D6B681840082808D00C3829
:1027880043425841104B40421840104BC01870BD8E
:102798000F200F499A0C02408C5CEA6A0D490240EE
:1027A800895CC0228020520213404002834201D13A
:1027B800064802E09342FBD10748FDF783FC6043DB
:1027C800E5E7C04600100240005A620200127A0093
:1027D8009F4E00088F4E0008006CDC0202000120AA
:1027E800002A0FD0094B0A4993429B410A685B4271
:1027F80082431A430A600A6802409A4203D00A6870
:102808001040584070470020FCE7C04600366E0173
:102818000020024070B5EFF3108572B6064B9C6835
:1028280001F056FC002D02D162B6BFF36F8F200075
:10283800FEF7FEFD70BDC04600040020F8B5012774
:102848000A4E83009D59013084003359AB4200D8A9
:10285800F8BD6868002806D0037E3B4201D101F02C
:102868000EFC0835F1E72B689847FAE7004B00089B
:10287800012270B5234B86B003201A70FFF7DEFFE4
:1028880000F01EFD0420FFF7D9FF1F4C26001F4D46
:10289800AC420ED300F0E6F9AE4220D300F0F2F9D4
:1028A800FDF79EFF01211A4A93898B43938106B055
:1028B80070BD636A0593236A0493E3690393A3696C
:1028C80002936369019323690093E368A2686168CE
:1028D800206800F0ADF823685C653034D7E7B26A49
:1028E800F36A511C01D1591C05D0110030681943F5
:1028F80003D101F04CFC3036CEE70649183000F021
:10290800CFFBF8E72D040020F0460008F046000849
:10291800F00100205141000870B57026012504001F
:1029280046430102114880220918002086B0049508
:102938000E350395053565430D4B059002900190C2
:102948000C48F6182D180C4B30000095520000F07A
:102958006FF80422337C2C74934333740134074B8F
:10296800E402E418EE606C6006B070BD300C002024
:102978008001002000040020DF400008300400200F
:10298800F0B5002087B0FFF759FF204B83F3088884
:102998001F49204B0A6A00251A40C0231B04134311
:1029A8000B62FEF787FCFEF72DFD1B4800F07AF856
:1029B800FEF768FB0120FFF741FF0220FFF73EFF0B
:1029C80000F088F9154C164B80225C61154B164EA9
:1029D8000593012315490493D20033002000039581
:1029E80002950195009500F023F804220700237C46
:1029F80020009343237401F088FB2800FFF78CFF25
:102A0800320039002000FEF7E1FCC046300C0020FF
:102A180000ED00E0FFFF00FF60020020F001002051
:102A2800000400200B4E000879280008300D002013
:102A3800F0B587B00593030058338365C365109BD1
:102A480007278381042300250732BA430374D21968
:102A58000F9BBA4383738B180E0085601900C573EA
:102A68008561C56104000493FEF78CFB049BC019C3
:102A7800B8431F1A0E9B3A0002930D9B3100019335
:102A88000C9B20000093059BFEF78AFC044B6565B0
:102A98009B68AB4200D01B6E3800236607B0F0BDC0
:102AA8000004002001230374838100230366014B83
:102AB80098607047000400200B21084A4942936837
:102AC800D9669866802306495B05486803434B60CE
:102AD80062B6BFF36F8F9368D86E7047000400200A
:102AE80000ED00E0102370B5C356027C002B31DBEB
:102AF800D3062FD180235B4213431A4C0374A36976
:102B08001949E2698B4207D1016042601060E061B7
:102B18000FE09A42F8D01B68002BF5D00E260E2540
:102B28009E574557AE42F4DD5A6803604260106014
:102B38005860A5698D4201D0002D00D1E568A368D1
:102B48001A7CD20607D1DA897F2A04D9AA69002A11
:102B580001D1636170BDAB4202D0280000F008FAD1
:102B68006561F7E70004002018040020102270B502
:102B780082560500037C002A04DA7F22134003747E
:102B880001F0B0FA0D4E0E4AB469B368944201D010
:102B9800002C00D1F468AB4208D01A7CD20605D1CB
:102BA800DA897F2A02D9A269002A05D0A34202D075
:102BB800200000F0DDF92300736170BD00040020DF
:102BC8001804002010B500280AD1EFF3058000286A
:102BD80007D1064B5A699B689A4202D0FFF76CFFEF
:102BE80010BD62B6BFF36F8FFAE7C046000400203D
:102BF80070B51A4CA168E3690A68CB1A581E83415C
:102C080049685B420A6051601340E169A268002B81
:102C180005D1134B516013600A60E2610AE00E258A
:102C28000E205D571056854213DD596813605160B8
:102C38000A605A60A5690A4B9D4201D0002D00D157
:102C4800E568A3689D4202D0280000F091F965610B
:102C580070BD8B42DDD01B68D9E7C0460004002058
:102C680018040020EFF3108172B6054B9A68D37BE5
:102C7800013BD373002902D162B6BFF36F8F70474F
:102C88000004002070B5EFF3108672B60F4DAB68E4
:102C9800DA7B0132DA73AC690D4A944201D0002C18
:102CA80000D1EC681A7CD20605D1DA897F2A02D9CC
:102CB800A269002A05D09C4202D0200000F058F9F1
:102CC800230030006B61FFF77DFF70BD000400201A
:102CD80018040020024B034A9A61DA617047C04623
:102CE800000400201804002070B5EFF3108572B6B8
:102CF8001B4CA168E3690A68CB1A581E83414968CE
:102D08005B420A6051601340E169A268002B05D15B
:102D1800144B516013600A60E2610AE00E260E202F
:102D28009E571056864216DD5968136051600A6036
:102D38005A60A6690B4B9E4201D0002E00D1E6686E
:102D4800A3689E4202D0300000F012F928006661A4
:102D5800FFF7B2FE70BD8B42DAD01B68D6E7C046DB
:102D68000004002018040020F8B5030007000C0038
:102D78000B4303D1FFF7B8FF0020F8BDEFF310862F
:102D880072B6134D134BA8681860FFF7EFFEA868DA
:102D980023003A001049183000F082F90423AA6889
:102DA8000400117C30000B431374FFF785FEAB68F9
:102DB8009A6A002AE0D18022DB6A12069342DBD1AC
:102DC80001F035FA201AC343DB171840D5E7C0468F
:102DD800000400202004002051410008014B98689D
:102DE8007047C04600040020F7B5838904000193AA
:102DF800EFF31083009372B60823027C1A4206D0C0
:102E0800009B002B02D162B6BFF36F8FF7BD19008C
:102E1800114348B2002857DB2174A368002B02D065
:102E2800200001F067F920002600183001F0CBF9E6
:102E38005836A56DAE4201D0002D4DD1304F00253A
:102E4800BB689C4204D1EFF305856A1E9541EDB23B
:102E5800BE692C4A964201D0002E00D1FE68B342CA
:102E680002D0300000F084F820007E6100F057FEA8
:102E7800002D02D02448FFF715FEBB689C4238D1CC
:102E8800EFF30583002B34D1A389DB070FD5009B13
:102E9800002B02D162B6BFF36F8F62B6BFF36F8F9C
:102EA8000423181C02DFEFF31083009372B6009816
:102EB800FFF702FE019BDB07A8D562B6BFF36F8F51
:102EC8000423181C02DFA1E77F210A4013432000D6
:102ED800237401F007F9A0E7280001F00BF9280096
:102EE800183001F070F900232800EB66FFF7FAFDAF
:102EF8009FE7009B002BDDD162B6BFF36F8FD9E748
:102F080000040020180400206002002010B5047C92
:102F18001F21220003000A4000200C4211D1094958
:102F280010008B420DD008490868002809D0D989BB
:102F38007F2905D80E215956044B1B68994200DA9F
:102F4800100010BD8001002044010020240400204E
:102F58000121044B044AC01A044BC0104343D15406
:102F68007047C046D00200202E040020ABAAAAAAAF
:102F780070B518250B4B1E7CFFF7C8FF75430A4B2D
:102F88000400ED18280001F01EF90022074B9A559D
:102F9800944205D0621E28000549D31700F080F836
:102FA80070BDC04600040020D00200202E0400207E
:102FB800592F000870B5EFF3108572B6104A114BFF
:102FC80094681868A04207D1FFF7D2FF002D02D1FC
:102FD80062B6BFF36F8F70BD00211960127C0A4B77
:102FE8009B5C8B42F2D02000FFF790FF0028EDD0C9
:102FF800237CDB0601D1FFF7FBFD2000E4E7C04698
:1030080000040020200400202E040020024B186831
:10301800984200D1002070474801002070B5060092
:10302800FFF7F4FF00280ED0026943693400F51752
:10303800121BAB41002B06DC01D1002A03DBD8436D
:10304800C017104070BD0148FCE7C046FFFFFF7F76
:10305800002010B5034B1B68834201D1FFF75CFBCE
:1030680010BDC0462804002030B500280ED00B4BF8
:103078005B6898420AD00168002907D00A694B6941
:103088000469456912196B410A614B61036842681A
:1030980013605A6000230360436030BD480100207C
:1030A800F0B5040015001E0085B0531C02D1731C36
:1030B80000D17CE0A160EFF31083039372B6002E79
:1030C80026DBFFF7C5FF0021009001204019714160
:1030D800009AD31712184B41364922616361086878
:1030E800496812184B411E00150001230293FFF78F
:1030F8008DFF0700304B9C465B680193002F1DD164
:1031080063462360019B63601C6063465C6027E044
:10311800284B1868596802225242D317121A8B4159
:10312800521BB3411100002B04DC01D1002A01D14C
:1031380001210023636121610023D7E73869796998
:1031480022696369994202DC28D1904226D9801A03
:1031580099417B6838617961636027601C607C6095
:10316800FFF754FF84420FD1144B1B68002B0BD17F
:10317800029B002B02D1FFF76BFF00900098FFF72E
:103188004DFF0021FFF74EFA039B002B02D162B6D8
:10319800BFF36F8F2800310005B0F0BD121A8B41C4
:1031A80022616361019B9F42AAD03F68A6E7002580
:1031B8000026EFE7E802002048010020280400204C
:1031C800F0B5050089B0314B03911D60FFF71EFF74
:1031D8002F4904000A684B68E81704920593002CED
:1031E80010D02669676900950190874202DC24D1D6
:1031F800AE4222D932003B00009E019F921BBB4188
:10320800226163612A00049C059D030012196B4129
:1032180000240A604B601D4B20001C60FFF7FEFE77
:103228002100FFF7FFF9039BA34202D162B6BFF367
:103238006F8FFFF7BFFE09B0F0BDF317069607932F
:10324800069A079B04980599801859410022002383
:103258000F4D22616361286069602000FFF704FF59
:10326800802301221B0622616361039B002B02D18C
:1032780062B6BFF36F8F2000A3689847EFF31083FF
:1032880072B60393014B1D68AD1B9EE7280400200E
:10329800E802002010B5EFF3108472B6FFF7D8FEED
:1032A80002000649C3170868496880185941002C6C
:1032B80002D162B6BFF36F8F10BDC046E80200208E
:1032C80010B5024800F017FB10BDC046104E0008AC
:1032D800F0B5436891B001900693837817000026F3
:1032E8009B0700D524E20126764257E04D788B1CD7
:1032F8000993252D00D124E200220421099B140002
:10330800009205920A3209931F2C1FD828002038F2
:1033180010281DD8FCF7CCFE0E1C1C181C1C1C0FFA
:103328001C1C1C0C1C161C1C09000120044302E078
:10333800022004430C43099801330578002DE2D19B
:10334800099337E00820F1E71020EFE77F2C28D811
:103358002800303809280DD840252C4204D0009D7B
:10336800554328180090E6E7059D55432818059011
:103378002020DBE72A2D0CD101CF6506F2D40028E6
:1033880003DB202505902C43D5E7404205902820F3
:10339800CCE72E2D05D140200442C7D0300011B013
:1033A800F0BD6C2D2CD026D8682D31D06A2D32D0A6
:1033B8004C2D30D0009B002B03DA40239C43002384
:1033C800009320232B431A00653A022A01D9612B66
:1033D80024D10722FB1D934308331F00B84B0092EA
:1033E8000493240752D53400009B9D19AC424FD159
:1033F800059B009A61E1742D9DD07A2D9BD0D9E769
:103408008020044200D191E78025AD002C438DE750
:1034180080204000F5E7A020800087E72800633877
:10342800122800D9E2E0FCF743FE0A43E1E1E1E1BA
:1034380043E1E1E1E1E1F2DCE1E111E1A300012393
:1034480002CF0AAA117000930492CAE708CF049326
:10345800002B01D19B4B0493630602D401235B42EA
:1034680000930099049800F00EFF0090B9E720201F
:103478000199069B9847002813DB013C009BA34257
:10348800F5D3059B05949E19361BACE7059CF5E71B
:10349800049B01999B1B185D069B984701340028E3
:1034A800A4DA019B9A7804231343019A93701AE7CC
:1034B80023063FD5A30538D50722073797430CCFF6
:1034C80002920393102322009A43039B0892002B35
:1034D80039DA0299039A00244B42944102930394E7
:1034E8008023089ADB0013439BB208930AAC0A2393
:1034F80002980399220000F0D1FE031B0793079B53
:10350800089C049323005B0600D4A1E00123079ADA
:103518009C43009B934200DC9AE0002D00D095E08C
:103528001123089C9C43009B1AE008CF0293DB17E9
:103538000393C7E708CFE205F8D5A20501D55BB22A
:10354800F4E71BB2F2E7029B039A1343CED163065A
:10355800CCD5009B002BC9D111339C43009B07930A
:103568000493594B23405A1E9341049AD31825E0DB
:1035780010239C43063B9C46802322001A40049259
:103588001C424AD021008133FF3319401C4242D0EB
:103598000722FB1D93431F0003CB083703000B438F
:1035A8004DD1220016339A43089263064AD5009BF0
:1035B800002B47D117339C43009B079304932307A1
:1035C80061D4E3070BD5079B049A0093059B9342AC
:1035D80005DD9B1A079A9B180093059B0493049B8F
:1035E80048E0102378259C461C43C5E7782B04D176
:1035F80010225B1B1A439446BEE725200199069BBF
:103608009847002800DA4CE70236E8B29AE0082327
:1036180000259C46B0E701CFC0E78022210008CFF3
:103628005200180011401442B8D0802221009200A4
:10363800114098B21442B1D00499D8B2AEE706232B
:103648009C4308940AAC6346220054E7009B049309
:10365800E30686D52B005A1E9341049A9B18013322
:10366800ACE720200199069B9847002800DA18E764
:10367800089B01330893089A059B9342F1DC049B4D
:103688000492F61AB618E30628D530200199069B4D
:103698009847002800DA04E7002D17D101363400D6
:1036A800009B079AF3181B1B9A4223DB1500002D79
:1036B80028D1079B049A1C19059B26009D1A32E005
:1036C800514E00084A4E0008060400000236E8B2CF
:1036D8000199069B98470028E1DAE2E61C4B1C4258
:1036E800DDD02B20A30700D40B38640500D52D208E
:1036F8000136EDE730200199069B013498470028F0
:10370800CEDACEE60AAB013DE85C0199069B984704
:103718000028CCDAC5E620200199069B0136984797
:10372800002800DABDE663199B1B002BF3DC09991E
:103738000878002800D131E6252800D1D6E54B1CB1
:10374800099301360199069B98470028EFDAA8E605
:1037580006040000704710B50A220023C117FCF7C1
:10376800A7FF00F0FEFC10BD10B5032801D8FDF737
:103778006DF910BDF0B5431A85B09D1A9B180393D7
:103788006C460023642640188118801A0095019120
:1037980002909A00A258D11752184A40964200DA6D
:1037A80016000133042BF4D100256427AB00E05840
:1037B80031007843FCF7CCFC0100E8B20135FFF793
:1037C800D3FF042DF2D105B0F0BD10B500F033FDE4
:1037D8000A220023FCF730FD10BD020010B50B00D3
:1037E8001179012214008C402100006804692468C2
:1037F8000C4200D05340002B03D08368DB68984705
:1038080010BD83681B69FAE707B56B46DA1D1170AE
:1038180001231F21FDF718FB07BDC9004018408888
:1038280040087047F8B50D000400FFF7F6FFFCF7F5
:10383800E5FC1F21091A8A00A218EB0010691F1D58
:103848000633E719E318AEB2002808D101308840E2
:10385800E1680143E16015613E801E80F8BDC1004A
:103868000431625A3A80D200A2181880D680665273
:10387800F4E70723F7B50027043ACC1D89189C43C1
:1038880099430E1BF6080460A660E76030000091BB
:103898002425FCF7B3FC20222D1A121A2000390027
:1038A8009200103000F0E7FC0122AD000735ED086A
:1038B800A9B24B0013436380731BEA009BB20193C8
:1038C800A01803000198278040008446180063462A
:1038D8004380A1520122009B0199F6005F80198064
:1038E800A61973882900134373802000FFF79AFFF5
:1038F800F7BD002070470FB407B504A901C90191AD
:10390800FDF70CFB03B008BC04B0184770B50600FF
:103918000C888888241A3069A4B285B2844201D3FD
:10392800641BA4B22D1BA8B2984200D918003368B2
:103938001B1913600B881B180B8070BD70B5838929
:1039480084880D00E41A0369A4B21B1B934200D9B2
:1039580013002A00011DFFF7D9FF70BD10B50C0038
:10396800C38841895B1A9BB2934200D913000100B6
:1039780022000A31FFF7CAFF10BD10B54B880C882A
:10398800E41AA4B294420ED39A1892B28B884A8051
:103998000A800069D21A92B2824201D2002010BD78
:1039A8001B188B80FAE716204042F8E7F0B50E00A6
:1039B8001500002785B001902A00019803A9FFF798
:1039C800BDFF041E09D031002200039800F04AFC14
:1039D8003F192D1B3619002DEED1019B3A00180016
:1039E800191DFFF7CAFF380005B0F0BDF0B50D008E
:1039F8001600002785B001903200019803A9FFF74F
:103A0800ADFF041E0AD0002D05D00200039928003E
:103A180000F028FC2D193F19361BEDD101993A0009
:103A280001980A31FFF7A9FF380005B0F0BD7047CB
:103A3800F0B5012685B030240293436814405868D5
:103A48003300019494098B4034408C404568023619
:103A58009D432C43446084680327A4461C008C4083
:103A68006643F5430395D5093D4065432F006546F8
:103A7800B5432F4387600327520A3A406243C5681B
:103A8800B5432A43C260019A202A0CD1072915D8C8
:103A980023008B408B400F215943026A8A430299C5
:103AA8004B4313430362019B02681B095C43039B5E
:103AB8001A4014430460002005B0F0BD0F211B0A12
:103AC8005B435B435943426A8A4302994B431A4317
:103AD8004262E8E710B500F0CEFB10BD10B500F06B
:103AE800C1FB10BD10B501000068FDF719FB10BD42
:103AF80010B5FDF745FBFDF78BFC10BD10B5002197
:103B08000120FDF70DFB10BD10B5FDF7A5FAFDF777
:103B1800E1FAFDF7EBFAFDF7DFFCFEF731FF86204F
:103B280040427047002802D162B6BFF36F8F7047DA
:103B3800BFF34F8F30BF62B6BFF36F8F704710B5BA
:103B4800FDF7F8FC002010BD1F2301201940884014
:103B58007047022803D8002807D000207047C31FE9
:103B68000020022BFAD98638F8E786204042F5E78C
:103B78007047436800205B681B690B6070474368A7
:103B88005B685869424011404140596100207047C4
:103B9800436800205B6899617047436800205B6850
:103BA80099627047436800205B685A6951405961BF
:103BB800704730B503690024986800280FD1002A9F
:103BC8001BD11620404230BD2060D868814210D1F8
:103BD800DC600EE005680400002DF0D02800884263
:103BE800F8D10868002CEFD1DC689860A14200D1B8
:103BF800D86000200860824206D09A680A60DA68B5
:103C08009960002A00D1D9600020DCE71300F7B5DD
:103C180080221F00920217400C00019713424DD0DA
:103C28009A0744D55A0765D55022D90641D580212F
:103C380089000A43C02519008026ED002940F600B6
:103C4800B1424BD0A94245D08025AD00A94247D00A
:103C5800C0211E0089020E40056900960B4214D04F
:103C68006E683100E1408C46012167460F4202D15F
:103C7800A140314369600199002906D0190331D563
:103C88000123A340416849688B6100232100FFF7A5
:103C9800CFFE009B002B08D16B6801221900E14080
:103CA800114202D0A24093436B600020FEBD102257
:103CB800BBE79906BED58021C900BAE73022D903EF
:103CC800B8D5DA0603D49A06D20F9202B2E7802258
:103CD8009200AFE7C02149000A43B9E78021FAE71B
:103CE8008021F9E75B03D0D50123A34041684968E7
:103CF8008B62CAE786204042D8E770B50B690E0090
:103D080099680500002902D00C68002900D170BD0F
:103D18008B681A002A402B4202D030004B68984723
:103D2800231E00D0236821001C00EEE730B503688D
:103D3800136005790468ED006419A34202D30220D8
:103D4800404230BD0833DC1E24788C42F0D100207C
:103D5800F7E7F7B504000025C90043180193019B54
:103D68009C4201D10020FEBD102327681F4222D1AA
:103D7800202563681D431F23780A1840FDF716F9AC
:103D8800061E24D0FB051A0F1F231F406B46009206
:103D980019782A003B00FFF74BFE0028E3DB112FC0
:103DA80007D1736800995A6801238B4029050CD5FF
:103DB80093610834D3E71F233B40102B03D0112B0A
:103DC800D9D16568D7E73025D5E79362F1E71320A5
:103DD8004042C8E74163704781637047C1637047D9
:103DE8000164704710B51400426803695168186887
:103DF8000131FCF767F920600020606010BD406861
:103E0800CB0300681B0D1B181F2001401E3888407B
:103E18001B680340591E8B4100201370704742688D
:103E2800CB0312681B0D9B181F2211401E3A8A40B3
:103E3800186802431A600020704742681F20CB03AD
:103E480001401E38884012681B0D9B181A6882436F
:103E58001A600020704770B50D000400FFF7DFFFFF
:103E680029002000FFF7E9FF002070BD8022030031
:103E780052010800934207D080225205934207D18D
:103E88004342584101307047434258410330FAE7F2
:103E9800434258410230F6E7012143681A68D06965
:103EA800D36900070B408B40D169C00F1843042326
:103EB800890700D51843D169194201D02023184336
:103EC8008023D1695B00194202D00821136208439C
:103ED800C30701D508231362830701D501231362A1
:103EE800430701D502231362830601D50423136215
:103EF800704743681A68EFF31081012383F3108831
:103F080010683F330343136081F310887047436898
:103F18001A68EFF31081012383F310884020136897
:103F28008343136081F31088704743681A68EFF37E
:103F38001081012383F3108810681F330343136033
:103F480081F31088704743681A68EFF310810123E2
:103F580083F31088202013688343136081F310884B
:103F6800704743681B68D8698006C00F70470120F6
:103F78007047036959609A60704710B502695368C1
:103F8800002B01D09168984710BD002210B5110090
:103F98001B20FDF7DBF91B20FDF7CCF910BD002233
:103FA80010B511001C20FDF7D1F91C20FDF7C2F94E
:103FB80010BD002210B511001D20FDF7C7F91D2006
:103FC800FDF7B8F910BD43681B68D8694006C00FF3
:103FD8007047436800201B68DA69120602D5186822
:103FE8004006C00F7047802210B543681B68D86927
:103FF8001042FCD0EFF3108072B6DC69144205D190
:104008000028F4D162B6BFF36F8FF0E71985002856
:1040180000D010BD62B6BFF36F8FFAE72022436865
:104028001B68D969114203D019680120114206D1D1
:10403800DA690020520602D518684006C00F70479A
:10404800082243681B68D869104200D01A62DA69EE
:10405800920603D500209B8C0B70704701204042CC
:10406800FBE770B5041E09D0FEF770FB302305008E
:104078005C43FEF76BFB401BA042FAD370BD10B542
:1040880043690400002B07D100230122E168487826
:1040980002434A70584210BD98470028F4D0C1170F
:1040A8004318E2684B40FF2B00DDFF231370ECE759
:1040B800002808D0C36800205A78D20703D518789A
:1040C80043425841C0B27047EFF3108372B6FEE71F
:1040D80010B5FFF7F9FF10B5EFF3108372B6FFF7CD
:1040E80027FDF9E70368426813605A6000230360FC
:1040F8004360704710B50400FFF7F4FF0222237CE9
:10410800934323740023A36010BD10B5EFF310840C
:1041180072B6FEF7E7FC002C02D162B6BFF36F8FD0
:1041280010BD282310B5027C04001A420BD1836805
:10413800002B01D0FFF7DEFF0422237C20009343ED
:104148002374FEF7CFFC10BD10B5EFF3108472B6E0
:104158001838FFF7E6FF002C02D162B6BFF36F8F65
:1041680010BD70B505000C00FEF7FEFD013501D14C
:10417800631C0AD00200C317002109208018594186
:104188000A220023FCF758F870BD2000FCE770B540
:104198000400EFF3108572B60426037C33420CD07A
:1041A800183000F010F8237C2000B3432374FEF786
:1041B80099FC2800FEF706FD70BD002DFCD162B603
:1041C800BFF36F8FF8E770B50400EFF3108572B690
:1041D8000368002B1BD0FEF719FF06002000FEF72E
:1041E80043FF802300221B0622616361A64206D09A
:1041F8000020002D02D162B6BFF36F8F70BDFEF7AD
:1042080027FFFEF70BFF0021FEF70CFAF0E7036922
:10421800012B09D1802342691B069A4204D18023CD
:1042280000221B060261436116204042E1E710B5F7
:10423800FFF730F810BD10B5FFF72CF810BD0300DC
:1042480070B5EFF3108572B60668012400208E421F
:1042580001D120001A60002D02D162B6BFF36F8F22
:10426800204070BD002310B59A4200D110BDCC5C2F
:10427800C4540133F8E703008218934200D1704711
:1042880019700133F9E7030041188B4202D01A78FC
:10429800002A01D1181A70470133F6E7F0B50D006E
:1042A8003721C91A8FB0C9B20D911F2104000B40E4
:1042B8000C930C99E3B2082955D0102900D164E079
:1042C800E90760080843690806900791A008A9074C
:1042D8000843A90808900991089E099F069807991C
:1042E800801979410E07B446060900966646009F74
:1042F80037430E0900970196009E019F8019794166
:104308000E06B4466746060A3E4302960E0A039610
:10431800029E039F801979410E04B4466746060C35
:104328003E4304960E0C0596049E059F801979411C
:1043380000260A910B960A9E0B9F801979414E0719
:10434800CD080521C4083443614349005B1ADBB238
:10435800092B12D9012000210A3B24184D41DBB258
:104368001DE00200A5E707210B4069078C46664659
:10437800E008E908064334000D00303313702300C9
:10438800501C2B43EDD10FB0F0BD0F210B40290776
:104398008C46664620092909064334000D00092B7E
:0C43A800EBD90D99CB18DBB2E7E7000061
:0843B40048C3FF7F0100000077
:1043BC00000000005C440008510F000800000000E1
:1043CC0000000000784400080000000004450008CC
:1043DC0000000000E8440008000000002045000830
:1043EC00000000003C45000800000000CC44000820
:1043FC0000000000B04400080000000094440008D5
:10440C003916000800000000000000007445000888
:10441C00000000005845000800000000904500080E
:10442C00991A000800000000A525000800000000F3
:10443C00651500080000000000000000E4450008BD
:10444C0000000000AC45000800000000C845000852
:10445C00B94D0008000000002C4700086E01002038
:10446C00000000001D19000800000000CA4D0008E3
:10447C00004A00081C4700087601002000000000DC
:10448C000000000000000000F14B00080C48000880
:10449C00F046000860010020F40200208D0F000897
:1044AC0000000000FF4B000820480008F046000800
:1044BC0062010020040300208D0F000800000000A2
:1044CC000D4C000834480008F04600086401002038
:1044DC00140300208D0F0008000000001B4C000886
:1044EC0048480008F046000866010020240300201C
:1044FC008D0F000800000000294C00085C480008E3
:10450C00F046000868010020340300208D0F0008DD
:10451C0000000000374C000870480008F046000806
:10452C006A010020440300208D0F000800000000E9
:10453C009B4D000800000000000000006C010020F2
:10454C00000000008915000800000000DB4D000889
:10455C00044A0008484700087801002004010020A4
:10456C009D21000800000000EB4D0008584A00088F
:10457C00484700087A010020180100209D210008FE
:10458C0000000000FB4D0008AC4A0008484700083A
:10459C007C0100202C0100209D210008000000005F
:1045AC00C64D0008EC4800081447000870010020B4
:1045BC00E0000020AD1D000800000000C64D000802
:1045CC003C4900081447000872010020EC00002050
:1045DC00AD1D000800000000C64D00088C49000805
:1045EC001447000874010020F8000020AD1D0008DD
:0445FC0000000000BB
:1046000000000000053B000800000000053B00081A
:1046100000000000053B000800000000053B00080A
:1046200000000000053B0008614E0008F11500087D
:104630005F4E0008F11500085D4E0008F1150008F6
:1046400000000000053B000800000000053B0008DA
:1046500000000000053B000800000000053B0008CA
:1046600000000000053B000800000000053B0008BA
:1046700000000000053B000800000000053B0008AA
:1046800000000000053B000800000000053B00089A
:1046900000000000053B000800000000053B00088A
:1046A00000000000053B000800000000053B00087A
:1046B00000000000053B000800000000053B00086A
:1046C00000000000053B000800000000053B00085A
:1046D00000000000053B000890450008833F0008EB
:1046E00074450008833F000858450008833F0008D0
:1046F000153C00087B3B0008873B0008993B0008FD
:10470000A33B0008AD3B0008ED1A0008BB3B0008C6
:0447100000000000A5
:084714009D1B0008ED3D0008AB
:10471C00073E0008273E0008433E00085F3E0008A5
:10472C00A9170008E9170008000000001918000874
:0C473C00E918000800000000A1180008A7
:1047480049400008EF3F0008A13E00081523000873
:1047580019240008BD24000819250008FB3E00089C
:10476800173F0008DB3F0008333F00084F3F0008B1
:10477800CF3F00086B3F0008491F0008951F00083D
:0C47880025400008773F00087B3F000838
:104794001800000001000000E844000800000000C8
:1047A400E844000801000000E8440008020000009A
:1047B400E844000803000000AC45000801000000C4
:1047C40050C3000000000000AC45000802000000D7
:1047D40050C3000000000000C845000803000000AA
:1047E40050C3000000000000C84500080400000099
:1047F40050C3000000000000044500080900000048
:104804000445000808000000FFFF000000140048F1
:10481400050000001400000000004000FFFF00003D
:1048240000100048040000001400000000002000F4
:10483400FFFF0000000C004803000000140000000B
:1048440000001000FFFF0000000800480200000004
:104854001400000000000800FFFF000000040048EE
:10486400010000001400000000000400FFFF00002D
:1048740000000048000000001400000000000200D6
:104884002045000804450008E8440008CC4400081A
:10489400B044000894440008000000000000000038
:1048A4000000000000000000000000000000000004
:1048B40000000000000000000000000000000000F4
:1048C40000000000000000000000000000000000E4
:1048D40000000000000000000000000000000000D4
:1048E4000000000000000000000000400000000084
:1048F4000000000000000000000000000C49000857
:10490400020000001C4900081C0000000100000017
:1049140008000000FF000000244900080100000016
:104924002C49000802000000020000000000000002
:10493400220000000000000000040040000000000D
:104944000000000000000000000000005C490008B6
:10495400020000006C4900081C0000000200000076
:1049640008000000FF000000744900080100000076
:104974007C49000802000000010200000000000061
:104984002102000000000000002C01402F00000064
:10499400000000000000000000000000AC49000816
:1049A40002000000BC4900081800000000080000D4
:1049B40008000000FF000000C449000801000000D6
:1049C400CC490008010000000201000000000000C2
:1049D400DD3D0008E13D0008E53D0008E93D000833
:1049E400040000004000000000040000010000007A
:1049F4001000000000010000001000000010024040
:104A0400004800405C44000878440008120200009A
:104A1400304A00080100000000000000000000000F
:104A240000000000384A0008BB3F00081C000000DA
:104A340000000400404A000801000000484A000841
:104A440002000000440300000002000064030000B0
:104A540000000000004400405C4400087844000862
:104A640011020000844A0008010000000000000058
:104A740000000000000000008C4A0008A73F000866
:104A84001C00000000000200944A0008010000001D
:104A94009C4A0008020000004100000000020000DF
:104AA4006100000000000000003801405C44000880
:104AB400784400088E010000D84A00080100000074
:104AC400000000000000000000000000E04A0008B0
:104AD400933F00081800000000400000E84A000866
:104AE40001000000F04A000802000000210100005B
:104AF400000200004101000000000000BC43000867
:104B0400BC430008344400083C4400085C440008EA
:104B14005C4400080010000000300A3D3D3D207256
:104B24006F626F742064656D6F203D3D3D0A005BCC
:104B340064726976655D20666F72776172640A00DB
:104B44005B64726976655D20737472616665207258
:104B5400696768740A005B64726976655D206469DC
:104B640061676F6E616C0A005B64726976655D20D3
:104B74007370696E0A005B677269707065725D209C
:104B84006F70656E0A005B677269707065725D2094
:104B9400636C6F73650A005B686F707065725D208B
:104BA400657874656E640A005B686F707065725D29
:104BB40020726574726163740A005B61726D5D20BA
:104BC400706F7365202B20776176650A002D2D2D7B
:104BD4002064656D6F20636F6D706C6574652C2047
:104BE40070617573696E67202D2D2D0A00677069D9
:104BF4006F403438303031343030006770696F4082
:104C04003438303031303030006770696F403438B8
:104C1400303030633030006770696F403438303082
:104C240030383030006770696F4034383030303499
:104C34003030006770696F40343830303030303095
:104C44000072302F61313A202030782530387820B6
:104C54002072312F61323A20203078253038782084
:104C64002072322F61333A20203078253038780A88
:104C74000072332F61343A20203078253038782080
:104C84007231322F69703A202030782530387820FC
:104C94007231342F6C723A20203078253038780AFB
:104CA4000020787073723A20203078253038780AE2
:104CB400004661756C74696E6720696E73747275F1
:104CC4006374696F6E206164647265737320287203
:104CD40031352F7063293A203078253038780A002E
:104CE400556E68616E646C6564204952516E3A2059
:104CF40025640A005265736572766564204578639D
:104D0400657074696F6E20280053707572696F75D1
:104D14007320696E746572727570742028495251DB
:104D24002000535053454C20696E207468726561AD
:104D340064206D6F646520646F6573206E6F7420EA
:104D4400696E646963617465205053500A002A2AAD
:104D54002A2A2A2048415244204641554C54202AAC
:104D64002A2A2A2A0A00415243485F45584345509B
:104D740054207769746820726561736F6E2025789A
:104D84000A0A002A2A2A2A2A20257320256429208F
:104D94002A2A2A2A2A0A00696E7465727275707446
:104DA4002D636F6E74726F6C6C6572403430303189
:104DB400303430300072636340343030323130305C
:104DC400300070776D0072657365742D636F6E7457
:104DD400726F6C6C65720073657269616C4034301B
:104DE4003030343830300073657269616C4034306F
:104DF4003030343430300073657269616C40343063
:104E0400303133383030006D61696E002A2A2A202F
:104E1400426F6F74696E67205A6570687972204FAB
:104E240053206275696C642076342E342E302D370D
:104E340032322D673539646339303565383061373E
:104E4400202A2A2A0A00286E756C6C29002A666CAE
:104E54006F61742A0000010001040C0202000200C8
:104E640001020304050600020406080A0C000008F7
:104E7400000000080000000004040400000000001A
:104E840000000001020304060708090102030405E7
:104E9400060708090A0B0C0D0E0F10020304050681
:0C4EA4000708090A0B0C0D0E0F1010007F
:104EB0003011002000000000000000000000000091
:104EC00040000000FB38000800000000473B0008DD
:104ED000000000000000000000000000784400080E
:104EE00000020000000000007844000801020000F9
:104EF00000000000784400088B0100001001002031
:104F0000000000000000000000C2010000010300DA
:104F100024010020000000000000000000C2010089
:104F20000001030038010020000000000000000024
:104F300000C201000001030000127A00C800000056
:104F40004801002048010020FFFFFFFFFFFFFFFF97
:084F5000FFFFFFFFFFFFFFFF61
:104F58000000000000000000000000000000000049
:104F68000000000000000000000000000000000039
:044F780015E015E04B
:04000005080012E1FC
:00000001FF
